:020000040800F2
:100000000000022041B6050885A20008155A020822
:10001000F1B60508F1B60508F1B6050800000000C4
:1000200000000000000000000000000085B900088A
:1000300087B900080000000089B900085D31010897
:10004000F1B60508F1B60508F1B60508F1B60508E0
:10005000F1B60508F1B605085D1001086110010848
:10006000F1B60508651001086910010845A90008E6
:1000700059A900086DA9000881A9000895A90008E0
:10008000A9A90008BDA90008F1B6050800000000F4
:100090000000000000000000000000006D100108DA
:1000A0007DA80008A5A80008CDA8000867A800083A
:1000B000F5A8000809A900081DA90008F1B605085F
:1000C000F1B60508F1B60508F1B60508F1B6050860
:1000D000F1B60508C9A30008D5A300080000000078
:1000E00071100108F1B605088BB900080000000086
:1000F000000000000000000000000000D1A900087E
:1001000000000000F1B6050831A90008F1B60508A5
:1001100000000000000000000000000000000000DF
:10012000E5A90008F9A900080DAA000821AA0008FD
:1001300035AA0008000000000000000000000000D8
:10014000000000000000000000000000DDB9000811
:1001500049AA00085DAA000871AA0008F1B60508BE
:10016000F1B60508F1B60508000000000000000027
:10017000000000000000000000000000000000007F
:1001800000000000F1B605080000000000000000BB
:08019000F1B60508F1B60508FF
:08019800D4B1050001000000D4
:1001A000206501200202000001012C0040650120B1
:1001B000020A000001012C00606501200206000017
:1001C00001012C00806501200207000001012C00C4
:1001D000A06501200203000001012C00C065012080
:1001E0000208000001012C00E0650120010B000065
:1001F0000000770000660120020C000000013F00B3
:1002000020660120011100000000760040660120F8
:10021000011000000000760060660120010E010060
:100220000000770080660120010D010000007700CA
:10023000A06601200112000000007600C0660120C7
:100240000114000000001E00E0660120011A0000F9
:1002500000000D00006701200115000000000C00E7
:10026000206701200116000000000C0040670120FB
:10027000011B000000000E0060670120011C00004F
:1002800000001E00806701200117000000000C0024
:10029000A06701200118000000000E00C0670120C7
:1002A0000119000000000C00E0670120011E0000A1
:1002B00000000C0000680120011F000000000C007D
:1002C000206801200229050000013E00406801204D
:1002D00002310000000114006068012001330000B9
:1002E00000003C0080680120013600000000200072
:10800000D0E907239A422FBFD01AC0688018C01A3F
:108010007047D0E9092300699A4238BF1218D31A71
:108020000138C01A7047D0E90902131A5842584162
:108030007047036A41690246C85CD16801338B42CC
:1080400028BF002313627047436A8269D154436A90
:1080500002690133934228BF0023426B4362D36815
:1080600043F08003D3607047436B188810F0100012
:108070001EBF1A889B8801207047436B99891A8814
:10808000890610B592B2044607D5900605D5E26A76
:1080900022B39888216B80B29047636B99891A88C4
:1080A000090692B20FD510060DD5D4E909128A42FD
:1080B00022D0A169895C998021690132B2FBF1F07B
:1080C00001FB1022A262998A1A88C90592B204D5CE
:1080D000D20744BF4FF6F7721A8010BD9B88E26941
:1080E0006169DBB28B54E369E2680133B3FBF2F1FF
:1080F00002FB1133E361D0E7DA6822F08002DA6034
:10810000E1E7036941681F2B30B54FF0200285BFBE
:10811000A3F120054C680C68AA4098BF9A402242FF
:108120001ED0826900201074D0688468206820F016
:10813000010020605468206865790A4C828934F80F
:10814000154092B21F2B22EA0402828188BF203B95
:108150004FF020028BBF9A4002FA03F3CA608B6093
:1081600030BD00BF141D06080E4BDA68D20310D4D0
:10817000DA68D1060FD4DA68D2050ED4DA6812F0C4
:10818000E00F0CD1DB6813F0020F14BF08200920A8
:108190007047012070470620704702207047072073
:1081A000704700BF003C024007B509238DF8073037
:1081B000FFF7DAFF8DF807009DF80730012BF7D0A5
:1081C0009DF8070003B05DF804FB838A028B9BB225
:1081D00043EA024331EA03030CBF01200020704749
:1081E00082B0002301930093012300900193019B2F
:1081F00063B1009A21F07F4314320092009A126812
:108200001A4214BF0120002002B07047009A1832B1
:10821000F3E77047704701207047034BD3E9000331
:10822000C01AC0F30A00704720190020054AD2E99D
:1082300000138B42FDD0D1180133C3F30A03087A2F
:108240005360704720190020044BD3F8080820B170
:10825000D3F80808431F584258417047201900209E
:10826000012380F849307047044BD3E90003C01A5A
:10827000C0F30A00C0F50060704700BF201900205D
:1082800010B5D0F8E83504461B699847032384F8F5
:108290001231002010BD08B590F8123180F813316A
:1082A000042380F81231D0F8E835DB6898470020C5
:1082B00008BD08B5D0F8E435DB6903B19847002064
:1082C00008BD08B5D0F8E4351B6A9847002008BD02
:1082D00008B5D0F8E4355B6A9847002008BD30B592
:1082E0000138002423460134055D002DFAD1DBB2AC
:1082F00001335B0013800B7003234B70022310F8D3
:10830000014F04B930BD5A1CD2B2CC5402338D5443
:10831000DBB2F4E710B5074C2068FF2808D0064907
:10832000D1F80C2801F5016100F070F8FF232360FB
:10833000002010BD00000020201900204323014828
:108340000B80704704000020122301480B80704707
:1083500047000020042301480B807047590000208B
:1083600008B50A4602490348FFF7B9FF084608BDA9
:1083700038210020ECC8060808B50A46024903481F
:10838000FFF7ADFF084608BD38210020F7C80608F2
:1083900008B50A4602490348FFF7A1FF084608BD91
:1083A00038210020FCC8060808B50A4602490348DF
:1083B000FFF795FF084608BD3821002006C90608CA
:1083C00008B50A4602490348FFF789FF084608BD79
:1083D0003821002011C90608704770477047704760
:1083E00070477047044B00200522C3F80828C3F8E3
:1083F0001809C3F81C09704720190020024B0020FF
:10840000C3F80808704700BF20190020212838B59C
:108410000C461BD022282BD0202815D1A1B1072A29
:1084200012D11A4DD5F81C3913B1096800209847AC
:108430002368C5F82039237985F82439637985F8CC
:108440002539A37985F82639002038BD0029FBD0CD
:10845000072AF9D10D4BD3F820290A6093F8242973
:108460000A7193F825294A7193F826398B71EBE745
:108470000029E9D0022AE7D1044BD3F81839002BA0
:10848000E2D0098800209847DEE700BF20190020CD
:1084900030B50E4CD4E900329A1AC2F30A020A44EB
:1084A000B2F5006F10D801440022814203D102B11D
:1084B0002360002030BDE21810F8015B1572013313
:1084C000C3F30A030122F0E70220F3E7201900209A
:1084D000202301480B8070475D00002012230148D3
:1084E0000B8070477D000020042301480B807047FB
:1084F0008F0000200A4608B5044920B90448FFF758
:10850000EEFE024808BD0348F9E700BF47220020FD
:108510001FC9060837C9060808B50A4602490348B4
:10852000FFF7DDFE084608BD472200204FC90608B8
:1085300008B50A4602490348FFF7D1FE084608BDC0
:108540004722002062C9060808B50A4602490348C6
:10855000FFF7C5FE084608BD472200206DC9060882
:10856000002370B54D1C1E46040FB0F1204F34BFE0
:108570003034373401F8134005F813600133DCB2AE
:10858000A2424FEA0010EFD870BD1A2310B50B803D
:10859000094BD3F8E807D3F8EC2780180AD0D3F8B2
:1085A000EA4706490822FFF7DBFF04221031204684
:1085B000FFF7D6FF024810BD00F0FF1F9500002016
:1085C000930000204FF400731360034BD3F8303A4C
:1085D0000B600020704700BF20190020002070476A
:1085E00001207047012070470020704730B41446C6
:1085F0001A69A24209D30D19AA429B6938BF111BFF
:108600000A46E11830BC56F0C5B930BC7047704717
:108610007047D0ED007AD0ED036A30EE677AE6EE6F
:10862000877AB0EE670AC0ED007A7047D0ED017A24
:10863000F5EE407AF1EE10FA09D1DFED0F7A60EE37
:10864000A70AB7EE007AC7EE207AC0ED017AD0ED26
:10865000017A80ED021A71EE277AC1EE276AD0ED19
:10866000007AC0ED036A30EE677AE6EE877AB0EE04
:10867000670AC0ED007A7047DB0FC940D0ED017A80
:10868000D0ED036A30EE670AE6EE807A90ED000ADC
:10869000C0ED017AB0EE677AD0ED027A37EE677AF4
:1086A000E6EE877AC0ED027A77EEC07AA6EEA70AE8
:1086B00080ED000A704790ED056AD0ED017AD0EDAB
:1086C000006AD0ED025A90ED045A66EE277AB0EEB9
:1086D000407AE6EE807AD0ED066A80ED057AE5EE26
:1086E000A67AD0ED076AD0ED035A80ED066AE5EE72
:1086F000E67AD0ED085AC0ED086AE5EE657AB0EE8C
:10870000670AC0ED077A7047D0ED006AD0ED057AB0
:10871000E6EE807AB0EE407AB0EE670AD0ED037AEA
:10872000D0ED016A67EEC07AE6EE877AD0ED066A90
:1087300076EEA77AD0ED026AC0ED057AD0ED047A24
:1087400067EEC07AE6EE877AC0ED067A7047036876
:108750005A1C02601970704703690133012B0361D1
:1087600006D1002380ED010A80ED000A8360704786
:1087700090ED006A07EE903A70EE466AF8EEE77AFE
:1087800086EEA77A77EE067A90ED027AC0ED017A4E
:1087900030EE670AC0ED007AA6EE807A80ED037AAB
:1087A00080ED027A704703685A1C026019707047A6
:1087B000007970470079C0F3401070470079400994
:1087C000704790F83C20034602F0FF0012B10022EF
:1087D00083F83C2070474FF48053838170474FF4F7
:1087E0000063838170474FF40063838170474FF4C7
:1087F0000063838170474FF40063838170474FF4B7
:10880000006383817047064A002352F8041B8142AB
:1088100004D00133042BF8D10020704701207047A9
:108820008023002010B5064A0423002152F8044B8F
:10883000844208BF42F8041C013BF7D110BD00BFC1
:10884000802300203548F0B5B0F87E3AB0F8705A71
:10885000B0F9884AB0F9766AB0F982CAB0F9907A6C
:10886000ED1AB0F87C3A6B43B0F9865A04EBE33466
:10887000ED0295FBF4F505EBE335A5F57A6E0EFBFD
:108880000EF42313B0F9784AC0F88C5A0EFB06F6A2
:108890000EFB04FEB0F9804A5C4303FB0CFCF612AD
:1088A000241406EBEC2C04EB6E34B0F9746AB0F8C7
:1088B0007A3A02340CEB860CA410D0F8946A04F5D2
:1088C00000440CFA07FC63430CF1020C4CF25030EC
:1088D000DC0BA6EBAC0640FA07F3734355BF5B0015
:1088E000B3FBF4F3B3FBF4F35B0071B1181240F681
:1088F000DE34404360430A4C00145C4300EB2440E8
:1089000000F6CF6003EB20130B6022B10A235D4316
:1089100008352D1115600120F0BD00BF2019002081
:1089200043E3FFFF01207047012070472DE9F84322
:10893000604F1546D7F8984AB7F89C2AB7F8A29A1C
:10894000C2EB24135200C2EBE402B7F99E4A624321
:1089500003FB03F4B7F9A03A24135C43A41304EB1C
:10896000E224B7F9A63AC7F8B44A0E46A4F5FA319C
:1089700081FB01CE4FEAE37803FB0EF20CFB0822E9
:10898000A3FB0C389044B7F9A42A82FB01021B0A0E
:10899000120343EA086342EA105200031B1842EB39
:1089A000282202F50042A3FB093809FB02884FEA9E
:1089B000E8734FEA680253EA68084FF000006DD090
:1089C000B7F9AC9A4FEAE97809FB0EFE0CFB08EE0A
:1089D000A9FB0C9CE644B7F9AACA8CFB01814FEABB
:1089E000414C4FEA484111EB0909D7F8B81A4CEA53
:1089F000D83C4EEB0C0CC1F5801E0EF00048B7F9C8
:108A0000A81A48EA5E0810EB09004FEACE7EBEEBDA
:108A100000000CEBC10168EB010C40F63548A0FBEF
:108A2000080108FB0C1152F025FCB7F9B23A4FEAE5
:108A3000613E4FEA503C4CEAC14C03FB0EF24FEA58
:108A4000E3790CFB0929A3FB0C324A4403FB0EFE1D
:108A50000CFB02EEA3FB0C3CB7F9B02AE6445B0E1C
:108A600043EACE1313EB000C804602FB01F34FEAFE
:108A7000E27941EB6E6EA2FB082809FB003141440C
:108A8000D00C40EA41301CEB0000B7F9AE3A4EEB97
:108A9000E141000A40EA016000EB03100EB1000A58
:108AA000306025B104EB8404803424122C60012052
:108AB000BDE8F8832019002001207047012070478D
:108AC0002DE9F74FDFF8B092B9F8C03AD9F8BC0AEF
:108AD00099F9C44AA0EB0320A0FB0053E6176343B7
:108AE00005FB0633A4FB05542344B9F8C24AA4FB92
:108AF00000608404B004281844EA963443EB04036D
:108B0000002B02DA013843F100039A484FEAE37A76
:108B100040E9023A002900F0168103FB0AF4A3FBA6
:108B2000030E0EEB440E850945EA8E654FEAAE143E
:108B300005FB0AF603FB0466A5FB03543619D9F8B6
:108B4000E08A02D5FF3546F1000699F9CA7A2D0A66
:108B500045EA066536124FEAE77C07FB06F405FB9B
:108B60000C44A7FB057C14EB0C0402D51F3744F121
:108B70000004B9F9C5CAACF5804C4FEA8C3C7F09BA
:108B800047EAC4670CEB6414019499F9C94AB9F92E
:108B9000C79A4FEAE47B04FB0EFC00FB0BCCA4FB62
:108BA000004BDC444FEA8C0C4CEA947CA4003F1947
:108BB000019CA9F5804944EB0C0C4FEAE97B09FBC9
:108BC0000AF403FB0B44A9FB039B5C44640544EAE1
:108BD000D9244FEA495917EB09094CEB0404002C3E
:108BE00005DA6FF07F4719EB070944F10004624F83
:108BF00097F9D0CA4FEAEC7B0CFB06F605FB0B6637
:108C0000ACFB055C4FEA196916EB0C0C49EA042928
:108C10004FEA246402D51F354CF1000CB7F8CB6A3B
:108C20006D0945EACC6B97F9CF5AF60306EB6C1C3D
:108C300005FB0EFEEE1700FB06E6A5FB00052E4425
:108C4000360146EA107600011BEB00004CEB0606ED
:108C5000B7F8CDCAACFB03750CFB0A55AD0545EA68
:108C60009725BF05C01946EB0506002E02DA033032
:108C700046F10006800840EA8670A9FB0875C7190E
:108C800008FB045545EBA6053B4E96F9D34AB6F9C9
:108C9000D1EAE01704FB0AFC03FB00CCA4FB034071
:108CA00084444FEA0E4024184CEBEE7CA4FB0804ED
:108CB00008FB0C44002C05DA41F6FF7C10EB0C009D
:108CC00044F10004400B40EAC440A0FB080C6413CC
:108CD00008FB04C4002C05DA40F2FF1C10EB0C006A
:108CE00044F10004400A40EAC450381896F9D47A96
:108CF00045EB6425FE17A8FB084C664307FB0C6692
:108D0000A4FB0747F61904D54FF6FF77E41946F19F
:108D10000006240C44EA0644A4FB0847361408FB6A
:108D20000676002E02DA7F3446F10006E40944EAB2
:108D30004664201845EBE6161925A0FB050405FB43
:108D40000646360C0E6082B11920A3FB003100FBF1
:108D50000A1ABAF1000F04DA43F6FF715B184AF100
:108D6000000A9B0B43EA8A431360012003B0BDE86D
:108D7000F08F00BF002400202019002031B10A4BE1
:108D8000D3ED067AFDEEE77AC1ED007A52B1064BDB
:108D90009FED067AD3ED077A67EE877AFDEEE77AE4
:108DA000C2ED007A01207047042400200000C84270
:108DB000012070470120704749B10D4BD3F8040BD7
:108DC0006423434348BF03F6FF731B130B6062B178
:108DD000074BD3F8083B64214B434FF4F07193FBEE
:108DE000F1F303F584531A3313600120704700BF79
:108DF000201900202DE9F74FCDE90012554AB2F8AD
:108E00001A3BD2F80C1BB2F8166BB2F81C7B1B0293
:108E1000C91AB2F8183B6EEB0E0EA3FB010403FB5C
:108E20000E44B2F8143BC00940EA44601B04C01869
:108E3000A6FB013506FB0E55B2F8126B4FEA132361
:108E400043EA05634FEAC6364FEAE41444F10004EE
:108E50009B19A7FB012607FB0E664FEAD25242EA96
:108E600046224FEA252545F10005F61512F5FA6C64
:108E700046F1000BBCF5FA6F7BF100074CDAA2FB60
:108E800002784FF0050A02FB06F908EB4909A7FB37
:108E90000A780AFB09884FEA570949EAC879BF08E6
:108EA000B0EB090047EA887764EB6804DB1B2A4FC4
:108EB00065EBA805BC454FF0FF377BEB070720DAD1
:108EC00040F6AC57D21946F100065643A2FB027297
:108ED00002EB46064FEAC608FA00BA1A48EA577883
:108EE00066EB0808101844EB08044FF00B08A7FBCA
:108EF000087208FB06267F0847EAC677DB1B65EB8E
:108F0000660501FB0EFEA1FB011202EB4E0EC90F1E
:108F100041EA4E01BCEB010C009A9AB10D4AD2F81D
:108F2000201BA1FB032301FB0535520D42EAC5229C
:108F3000121A4FEA6555009B65EB0404D20B42EA16
:108F400044421A60019B0BB1C3F800C0012003B07A
:108F5000BDE8F08F2019002024FAFFFF2DE9F04F23
:108F6000544B85B0CDE90112B3F81A2BD3F80C1B82
:108F7000B3F8184BB3F8165BB3F81C6B1202891ADE
:108F800069EB0909B3F8142BA4FB010E04FB09E4F7
:108F9000800940EA84604FEAD23E520480184EEBCA
:108FA000A41EA5FB012405FB0944B3F8125BD209FA
:108FB00042EA44622D045219A6FB013506FB09550D
:108FC0004FEAD35343EA45234FEAE41444F1000443
:108FD000ED1513F5FA6845F10006B8F5FA6F03963A
:108FE00076F1000648DAA3FB036C4FF03D0B03FB60
:108FF00005F70CEB4707A6FB0BCA0BFB07AA4FEACA
:109000001C1C4CEA0A7CB0EB0C006EEB2A1EB61955
:109010007F41921B284E64EB0704039FB0454FF03D
:10902000FF3677EB06061CDA40F6AC569B1945F185
:1090300000055D43A3FB036303EB45031F013501FB
:10904000751B47EA167763EB070728184FEAC30535
:1090500045EA56754FEAC6064EEB070E921B64EBC7
:10906000050401FB09F9A1FB011303EB4909C90F31
:1090700041EA4901B8EB0108019B9BB10D4BD3F8C4
:10908000201BA1FB023201FB04245B0D43EAC42335
:109090001B1A4FEA6454019A64EB0E0EDB0B43EA91
:1090A0004E431360029B0BB1C3F80080012005B052
:1090B000BDE8F08F2019002024FAFFFF012070473F
:1090C0002DE9F041476906468846002F59D10368CB
:1090D000C3F30D0515B3D8F800803568FFF764F8C1
:1090E000092840F08780454C236923F440732361AD
:1090F000236943F400732361236943F0010323616F
:10910000C5F80080FFF750F82369092823F0010310
:1091100023616FD133680433336032E0384A9342BD
:1091200029D302F58042934224D302F58042934230
:109130002AD3344A934229D902F58032934227D95F
:1091400002F50032934225D902F50032934223D929
:1091500002F50032934221D902F5003293421FD921
:1091600002F5802293421DD9B3F1016F1CD3052073
:109170000AF0F4FB0825FFF717F8092816D04FF07E
:10918000FF373846BDE8F0811025F4E71825F2E7EF
:109190002025F0E72825EEE73025ECE73825EAE73B
:1091A0004025E8E74825E6E75825E4E7134C23691E
:1091B00023F440732361236943F40073236123691B
:1091C00023F0F803236123691D4345F0020525615F
:1091D000236943F480332361FEF7E6FF236923F01C
:1091E000020323612369092823F0F80323613FF474
:1091F00072AFC4E76FF00107C3E700BF003C024055
:1092000000400008FFFF000803682DE9F041044614
:109210004068134483421AD80D468E1804F10C0797
:109220004FF00008B54202D16069BDE8F0812369C2
:109230005A1C2261234415F8011B1973042AF1D129
:1092400039462046FFF73CFFC4E90480EAE74FF0C7
:10925000FF30EAE738B514460D4600294BD0394BAC
:109260009FED396AD3F8242B07EE902AF8EEE77ABF
:10927000B3F93C2BC7EE866A03F5346307EE902AF8
:1092800033F9082C07EE102AF8EEE77A53F8102C81
:10929000B8EEC77AA6EEA77A07EE902A53F8142CF8
:1092A000F8EEE77AE6EE877A07EE102A33F9062C15
:1092B000B8EEC70AA6EEA70A07EE902A33F90A2CE1
:1092C00007EE102AF8EEE77A33F90C2CB8EEC77ADD
:1092D000A6EEA77A07EE902AF8EEE77AE6EE877A0E
:1092E00093ED007AB8EEC77AC7EE066AA6EEA70A33
:1092F00052F03AFD28601CB3124BDFED136AB3F94C
:10930000282B07EE102AD3F8402BB3F92A3B07EE9F
:10931000902AF8EEE77AB8EEC77A87EEA60A07EE4B
:10932000903AF8EEE77AF6EE006A60EE277A9FED63
:10933000070AE7EE267A27EE800A52F015FD206034
:10934000012038BD201900200000F04A0000C8426A
:109350002DE9F347038A8689B6B205460C461E40BE
:109360004FF0004901F14C0701F1340816B902B081
:10937000BDE8F087B6FA86F329FA03F2D24391B238
:10938000298216401B3B002C40D0042BEED8DFE88E
:1093900003F039342E280300E368D5F82CA02BB154
:1093A0009B681BB11FFA8AF1201D9847636A33B18D
:1093B0009B6823B11FFA8AF104F11C009847E36B04
:1093C0002BB19B681BB11FFA8AF140469847636D29
:1093D000002BCBD09B68002BC8D01FFA8AF13846EF
:1093E00003E0E368696B5B68201D9847BEE7636A2A
:1093F000A96B5B6804F11C00F7E7E36BE96B5B6842
:109400004046F2E7636D296C5B68E8E7042B06D8F9
:10941000DFE803F00D0B09070300EB6A0193019BE2
:10942000A4E76B6BFAE7AB6BF8E7EB6BF6E72B6C3B
:10943000F4E790F84820531C0244DBB280F848302F
:1094400082F8341090F849200AB1132B01D950F05A
:1094500081BE7047002280F8492050F07BBE70B575
:10946000124D95F8443B002BFBD104464618B442FC
:1094700004D1002070BD01200AF048F8D5F8483B1F
:10948000D5F84C2B0133C3F30A039342F3D0D5F83C
:10949000483B14F8012B2B4483F8502BD5F8483B5C
:1094A0000133C3F30A03C5F8483BE0E72019002065
:1094B00038B50C461146FEF7C7FE48B1054D002AE7
:1094C000D5F8583204DD2046FFF7C9FFD5F85832E9
:1094D00038BD00BF182A0020F0B590F8CF5590F89D
:1094E000CE1590F8D12590F8D03590F8CC7590F83D
:1094F000CDC501EB05218DB203EB022390F8D31506
:1095000090F8D22585B002EB012207F01F06012159
:1095100092B29BB28E4204468DF808708DF809C055
:10952000ADF80A50ADF80C30ADF80E20C0F840216F
:1095300080F8111100F00C81022E00F01D81002E28
:1095400040F09B81BCF1090F5ED8DFE81CF0B6004B
:10955000F4005D00C8005D0057000A005D00A9002E
:1095600076002E0A022EADF806200BD0032E25D051
:10957000012E49D1D0F8EC351B68A0780DF1060119
:10958000984709E0D0F8E43580789B6A0DF1060130
:1095900098474670C4F8F005BDF80620002A47D069
:1095A000BDF80E30002B43D09A4228BF1A46ADF8C2
:1095B00006200146204650F0E9F839E0E9B20529D5
:1095C00022D8DFE801F003070B0F1317D0F8EC35B2
:1095D0005B68D2E7D0F8EC359B68CEE7D0F8EC3585
:1095E000DB68CAE7D0F8EC351B69C6E7D0F8EC3584
:1095F0005B69C2E7D0F8EC359B69BEE71A4303D13B
:1096000090F81231032B03D120464FF0EBFF0FE00F
:10961000016905F07F0680F814610B6865F30A1292
:109620001A430A6050F0C6F82EB1022384F81231B2
:10963000002005B0F0BD0123F8E7E9B2904D012903
:1096400085F85C12E0D890F81231022B0FD0032B72
:10965000DAD1C1B9022380F81231D0F8E43580F8AC
:1096600010115B689847204650F0A4F8E0E7002905
:10967000F9D00121032380F8101180F8123120461F
:109680004FF072FFEFE790F810110129EBD0D0F8FE
:10969000E4355B68984795F85C1284F81011EEE7A2
:1096A000012AB1D190F81231022B04D0032BABD197
:1096B00000F588717EE773497CE790F81231023B30
:1096C000012BA1D86E4B0022C3F86422D0F81821D8
:1096D00012B10222C3F864226B4902226AE7012D0B
:1096E00008D1C0F81851D4F8E43502A99B68204687
:1096F0009847B8E7022D9BD1DAB2002A98D10269C7
:109700001B0A023B5268032B03D8DFE803F00C0E60
:109710001012012363F30612594BC3F86822012388
:1097200084F816319FE70223F4E70323F2E70423CA
:10973000F0E70523EEE790F81231023B012B3FF6EC
:1097400063AF012D7FF474AF0023C0F81831CAE76E
:1097500090F81221032A7FF457AFDBB2012B3FF6BA
:1097600053AFD0F8E43502A99B689847BDF80E3096
:10977000002B7FF45DAF76E707F06007202FD9B2AA
:1097800005D1D0F8E43502A99B68984750E7BCF1B1
:10979000010F31D0BCF1030F1ED0BCF1000F7FF4DC
:1097A00047AF90F81221022A5AD0032A7FF42CAF37
:1097B00013F0800F4FF02802314B59D001F07F0198
:1097C00002FB010191F81E21002A4FD00122C3F8AB
:1097D0006C222E490222EDE690F81231022B3FD086
:1097E000032B7FF411AF002D7FF47DAF4A063FF4C9
:1097F0007AAF4FF0C5FE76E790F81221022A2FD0FB
:10980000032A7FF401AF002D7FF412AF11F07F0027
:109810003FF429AF5BB2002B4FF02802B5BF02FB2B
:10982000004102FB014101F58E7101F55D710022DD
:10983000DB0F08708A704B7004EB8000C9786BB145
:109840008269136802396FF3555301298CBFC3F342
:109850000071012161F31C73136044E7426DF0E76E
:109860004B063FF4E5AE4FF08BFEE1E60022AEE79B
:1098700002FB010191F87623A6E707F08001F2E7E9
:10988000182A0020782C00207C2C0020842C00201A
:1098900010B5044671BB90F81131032B1BD1D0F8E1
:1098A0009023D0F87C339A4217D9C178012908BF98
:1098B000D0F88013A2EB030204BFC918C0F88013CC
:1098C000934228BF1346C0F890239BB2D0F8802360
:1098D000002150F01FF8002010BDD0F8E4351B69BE
:1098E00023B190F81221032A00D1984720464FF067
:1098F00061FFF0E7D0F8E4359B69002BEBD090F8DE
:109900001221032AE7D19847E5E770B50A7812F0EB
:10991000600406460D462AD0202C2FD1CC884B78E7
:10992000FCB112060CD51F4922461846FEF76EFD03
:10993000EA881C4930464FF029FF0024204670BDBC
:10994000194A1360194A0323C2F80C4880F81131F0
:10995000C0E9E444234602F5016200214FF0DAFF3A
:10996000EBE7022211441846FEF750FDE6E74B787C
:109970000A2B08D00B2B0BD0062BDFD130464FF033
:1099800031FE0224DAE70A4901224FF0FFFED5E753
:109990008B781BB9074BC3F87042CFE74FF022FE1C
:1099A000CCE700BF3021002000000020201900205B
:1099B000882C0020182A002010B5282303FB010161
:1099C000074AB1F88C1304461046FEF761FD2046A5
:1099D000034A402301214FF09DFF002010BD00BF2E
:1099E0008C2C002070B50F4DD5F8BC32044643B125
:1099F00095F8C02295F8D432134302D101214FF0DB
:109A0000BFFD812120464FF0BBFD95F8D432022BDB
:109A100007D12046044ABDE870401F2301214FF0C2
:109A200079BF70BD182A0020CC2C0020002310B56F
:109A30001946044640224FF00CFE40228021204669
:109A400000234FF006FE012384F81231D4F8E835E4
:109A5000A0785B689847002010BD38B540220446C6
:109A6000022381214FF0F5FD2046022340220121EF
:109A70004FF0EFFD20460323082282214FF0E9FD3D
:109A8000084B0222002583F84B2083F84C50FEF748
:109A9000A9FC01212046044A40234FF03BFF284601
:109AA00038BD00BF000000208C2C002010B58121A3
:109AB00004464FF0A5FD204601214FF0A1FD2046B0
:109AC00082214FF09DFDFEF799FC002010BD10B5DE
:109AD000812104464FF094FD204601214FF090FD76
:109AE000024B002083F8D50210BD00BF182A0020C9
:109AF00070B5234D95F8442B012A03462FD1214EF2
:109B0000D6F8D84214B985F8444B24E0402C24D828
:109B10000ABF0222A4B285F8442BD5F84C1B1A4A7E
:109B20000A44C3E9542240F201110022A3F844116F
:109B3000C3E9564203F5A27118464FF052FED5F81C
:109B40004C3B2344C3F30A03C5F84C3BD6F8D83248
:109B50001B1BC6F8D832002070BD4024DDE7022A66
:109B6000F9D1002440F20112C0E95444C0E956443E
:109B7000A0F8442100F5A2714FF033FEC3E700BF07
:109B800020190020182A00207024002070B52B4EC8
:109B9000D6F8DC320F2B03F1010203D0C6F8DC2229
:109BA000002070BD264D0023C6F8DC3295F8443BFA
:109BB000002BF5D1D5F84C2BD5F8483B9A42EFD085
:109BC000D5F84C2BD5F8483B9A4295BFD5F8484B71
:109BD000D5F84C4BD5F84C3BC4F5006498BFE41A5B
:109BE000402CC6F8D84221D9012385F8443B4024B3
:109BF000D5F84C2B134B1344C0E9543340F20112F7
:109C00000023C0E95643A0F8442100F5A2714FF0AB
:109C1000E8FDD5F84C3B2344C3F30A03C5F84C3B9D
:109C2000D6F8D8321B1BC6F8D832B9E70EBF0223CC
:109C30000123A4B285F8443BDAE700BF182A0020CC
:109C4000201900207024002070B50446144EFFF740
:109C50003EFF20460223402281214FF0FAFC4022A1
:109C60000121204602234FF0F4FC0025D6F8E03213
:109C700086F8D5521B6886F8D45228469847E06883
:109C800050F092F8E068012150F0A4F820461F231C
:109C900006F52D7201214FF03DFE284670BD00BF34
:109CA000182A002008B500204CF07EFF002008BDD7
:109CB0002DE9F843089D0E46174600212022044650
:109CC000984657F007F84DB12B68E3811A0C6B6882
:109CD0002282E3821A0C6B8922836382304650F021
:109CE000A1FCFB0604D400F1FF39B9F1FF3F41D1DB
:109CF000082802464FF0FF39A8BF082200254FF080
:109D00002033236063603146204654F043FE234AEB
:109D1000228104F1080309F10101A27218462A46C2
:109D2000314454F037FE621E0346E01D12F8011F55
:109D3000A1F16105192D9CBF203911708242F5D126
:109D4000184604F10B0210F8013BA3F16101192937
:109D50009CBF203B00F8013C9042F4D118232373B0
:109D60004FEA1843A382099BE772A4F81A80E361C3
:109D7000BDE8F88316F809302E2B02D009F1FF391F
:109D8000B3E74A46A0EB0905082A05F1FF35A8BF4D
:109D90000822032DA8BF0325B1E700BF2020200023
:109DA0002DE9F04F012085B00D46164699464CF03E
:109DB000FBFEB64F04352C1FB9F1000F06D1484603
:109DC0004CF0F2FE484605B0BDE8F08FD7F8482ABF
:109DD000B24200F2B780D7F858AAA6EB02084FEAC1
:109DE000D803DAF830200233934208F0070803D38F
:109DF000DAF83820934218D95146184603934CF0AC
:109E0000D7FC039B824670B9A5F1080305F5FC72E7
:109E10009F4943F8041F9342FAD109F1FF390136F3
:109E200005F50075C7E7C7F8580A9AF80420002A14
:109E30006DD04FF400720021204656F04BFFDAF847
:109E40004030B8F1000F47D1CDE9008805F11C0B77
:109E500043BB43462046D7F8341A0822FFF728FFB1
:109E60005C464FF4F073DAF8448004EB030AB8F16F
:109E7000000FD2D05445D0D098F80420D8F8001064
:109E8000D8F8303004F1200B08F11C00B2B30022E6
:109E9000CDE9000211222046FFF70AFF5C46D8F800
:109EA0004880E4E7DAF830307A4911222046FFF79B
:109EB000FFFEDAF840301A6C05F13C04CDE9008869
:109EC00042B94346744911225846FFF7F1FE4FF458
:109ED000E073C8E71B6BF5E7002B0CBF01220222E1
:109EE000C2EB0812DAF84480B8F1000F03D0013A4F
:109EF000D8F84880F8D14FF40073B6E798F805C059
:109F0000D8F81020CDE900024CF02102C3E7DAF8BE
:109F100028B0BBF1000F06D14FF40072002120469B
:109F200056F0D8FE79E7DAF830209B1ADAF80C20E0
:109F300008EBC30802EB482253464FF40071204659
:109F4000D8476AE7002E64D14FF4007231462046AC
:109F500056F0C0FE802385F8BA310C2385F8BE3157
:109F6000D7F8382A4D49D7F8303AC4F8C6218A4282
:109F7000C4F8CA3118DDFF2285F8BB2185F8BD2160
:109F800085F8BC21454A013B934228DDFF2385F833
:109F9000BF3185F8C13185F8C031552385F8FA31D4
:109FA000AA2385F8FB3138E73F2192FBF1F1C1EBA1
:109FB000811C43F6C16492FBF4F4A2EB0C02A010E6
:109FC00020F03F000132024385F8BC21FF2291FBC3
:109FD000F2F2114485F8BD4185F8BB11D2E73F226A
:109FE00093FBF2F2C2EB821443F6C16093FBF0F0F4
:109FF0001B1B811021F03F0101330B4385F8C03159
:10A00000FF2392FBF3F31A4485F8C10185F8BF21C1
:10A01000C3E7D7F83C3A9E4242D152232370637083
:10A020006123A37084F8E731D7F8503AC4F8E831D7
:10A030004FF000084FF0FF3341227221E27084F8A4
:10A04000E41184F8E51184F8E62184F8EC3184F811
:10A05000ED3184F8EE3184F8EF314FF4F07241467F
:10A06000284656F037FE5523C5F8EC81C5F8F08137
:10A07000C5F8F48184F8FE316FF0550384F8FC8153
:10A0800084F8FD8184F8FF31C7E600BF2019002065
:10A09000DEADBEEF100507080F050708FF03FB0044
:10A0A000D7F8383A9E426DD14FF400720021204615
:10A0B00056F010FEEB2305F8043C3B4A582305F804
:10A0C000033C902305F8023C136845F8013C5368B3
:10A0D000C5F80330022200234FF0080CF821E37288
:10A0E000227385F809C0A273E37369743F212A7350
:10A0F00021764FF0FF31A1763E21D7F8380A21773B
:10A10000D7F8301A84F82C20091A2162D7F8400AAF
:10A11000D7F8441A63760122091AE3766377A377A6
:10A12000E37784F82D3084F82E3084F82F30616284
:10A1300084F8302084F83130802385F83C3029239E
:10A1400085F83E30942385F83F300E2385F8403063
:10A150000D2385F84130154B85F842C01A68C5F8C3
:10A1600043205A68C5F847201A89A5F84B20104AA1
:10A170009B7A85F84D301368C5F84E305368C5F8A2
:10A1800052300AE7D7F8401AD7F8443A8E4206D33D
:10A190009E4207D2711A20464CF02EFB3DE69E42AD
:10A1A000FFF4BAAEF11AF6E77BC9060884C90608BF
:10A1B00090C9060813460A460146184636F090BF75
:10A1C000024BD3F8E40208F0E3BE00BF182A0020D7
:10A1D00008B500684FF085F8024BC3F80C0B01205E
:10A1E00008BD00BF2019002008B500684FF079F8BD
:10A1F000024BC3F8200B012008BD00BF201900202E
:10A2000010B50C4CD4F85832D4F8E8021B1AFA2BCB
:10A2100006D904201FF0ECF8002084F8EC0210BDF1
:10A2200011B1D4F8F0320B6012B1D4F8F4321360EB
:10A230000120F4E7182A00200E49D1F8883043F4B1
:10A240007003C1F888300C4B1A68002042F00102FC
:10A250001A6098601A6822F0847222F480321A60C0
:10A26000064A5A601A6822F480221A60D860044BA9
:10A270008B60704700ED00E0003802401030002491
:10A280000000000870470028ACBF00F16040074B99
:10A290004FEA0111ACBF00F5614000F00F00C9B2F8
:10A2A000B4BF195480F80013704700BF14ED00E0EC
:10A2B0002DE9F0479846414B914603EB8002054655
:10A2C0009468002C78D02833636004F13E03A361C6
:10A2D00004F59F73E3614FF48073C4E9043323688A
:10A2E00094F83D00E160A36306F0A2FF064694F8EF
:10A2F000440294F83CA0271D08B14CF0C3FC94F82C
:10A30000450208B14CF0BEFCD4F840321BB12C4AD7
:10A31000116B0B43136318F0080F2CD00135EDB20D
:10A320001EB140F20673F380357218F0100F94F8E6
:10A3300046221AD00221304606F03AFFD4F84812DD
:10A3400094F94702FFF79FFF94F9473294F84722A8
:10A35000002B07DB02F01F0101228A405B0919492B
:10A3600041F823203846BDE8F08718F0200F14BFCD
:10A3700012213221DFE719F0020F0CD06B1CDBB287
:10A380001EB140F20652F280337294F84622022146
:10A39000304606F00DFF19F0010FCFD0504606F001
:10A3A00047FF0135EDB218B140F20663C380057274
:10A3B00094F846220221BFE72746D3E7141D06087A
:10A3C0000038024000E100E00148FDF756BE00BF42
:10A3D000B40000200148FDF750BE00BF000300207C
:10A3E0007047704770B5002828D04C684CB9426857
:10A3F00015685679AB8902229BB2B24023EA020368
:10A40000AB818A683AB943681D68AB8923F00103C0
:10A410001B041B0CAB81816044B1446821686479E2
:10A420008D890223A3402B439BB28B8132B14368B9
:10A430001A6893899BB243F00103938170BD0B4B63
:10A4400030B51A4600241D79854208D1DD682942BD
:10A4500003D0142000FB042030BD0029F9D00134C2
:10A460000D2C03F11403EED10020F5E74805002080
:10A4700038B503681B681C68254B03F24C6393EDE9
:10A48000007A07EE902AB8EE477AF8EE677A01393B
:10A4900087EE270A8DB2DFED1F7A30EE270A51F0E2
:10A4A00063FC1D4A23880138944280B29BB212D0CB
:10A4B00002F5806294420ED0B4F1804F0BD0A2F529
:10A4C0008032944207D002F58062944203D002F5B4
:10A4D0008062944202D123F070039BB20F4A9442EF
:10A4E00006D002F5806294421CBF23F440739BB2F5
:10A4F0002380094BE5629C42208503D003F58063ED
:10A500009C4201D1002323860123A38238BD00BFD2
:10A51000000000200AD7233C00000140001000404A
:10A520002DE9F0434568A87910F0040300F0020219
:10A530000BD0002017468046042406466B79032B77
:10A5400049D8DFE803F0094A89C990464FF4807082
:10A550001F461C460126F1E72D682B8C23F00103D2
:10A560001B041B0C2B84B5F820C0B5F804902B8B72
:10A5700023F073031B041B0C43F0600E2CF0020C41
:10A580006E4B4FEA0C4C4FEA1C4C48EA06069D42C3
:10A590001FFA89F94CEA060C03D003F580639D424B
:10A5A0000AD14FF6F3730CEA03033B4329F44079D5
:10A5B00043EA040C40EA0909A5F80490A5F818E05C
:10A5C0006963A5F820C02B8B23F008031B041B0C28
:10A5D00043F008032B83BDE8F0832D682B8C23F018
:10A5E00010031B041B0C2B842A8CB5F804E0B5F86F
:10A5F00018C0524B2CF4E64C22F020024FEA0C4CCF
:10A6000012044FEA1C4C120C48EA06069D421FFA3F
:10A610008EFE4CF4C04C42EA061203D003F5806370
:10A620009D420BD122F0800242EA071222F0400242
:10A630002EF4406E42EA04124EEA800EA5F804E0C1
:10A64000A5F818C0A9632A842B8B23F400631B048C
:10A650001B0C43F40063BDE72D682B8C23F480733F
:10A660001B041B0C2B842A8CB5F804E0B5F81CC025
:10A6700022F400732CF0730C304A4FEA0C4C1B048C
:10A680004FEA1C4C1B0C48EA060695421FFA8EFE48
:10A690004CF0600C43EA062303D002F58062954239
:10A6A0000BD123F4006343EA072323F480632EF4E1
:10A6B000405E43EA04234EEA001EA5F804E0A5F834
:10A6C0001CC0E9632B84AB8B23F008031B041B0C19
:10A6D00043F00803AB837EE72C68238C23F480537C
:10A6E0001B041B0C2384258CA288A38B25F4005506
:10A6F0002D0448EA06062D0C23F4E64345EA063508
:10A700000E4E1B041B0CB44292B243F4C04303D060
:10A7100006F58066B44203D122F4804242EA8012F8
:10A72000A280A38321642584A38B23F400631B04EC
:10A730001B0C43F40063A3834DE700BF00000140FE
:10A7400043685A79032A0FD8DFE802F00205080BA4
:10A7500018683430704718683830704718683C30D3
:10A7600070471868403070470020704710B5436844
:10A770001A685879084B0344012093F85840138C09
:10A78000A0409BB223EA00031384138CA140194319
:10A7900089B2118410BD00BF141D0608F0B5EFF397
:10A7A0001184102383F31288C5684668AA68136869
:10A7B00023F00103136032687779104E938936F8DD
:10A7C00017609BB223EA060393812A696D681F2AEA
:10A7D0004FF0200385BF203A93409340EB6098BF31
:10A7E000AB60E3B283F31188C3689B6859601A6851
:10A7F00042F001021A6001230374F0BD141D060823
:10A800000268137D012B04BF0223137592F82C10EC
:10A810000CBF4FF400730023012904BF022182F80A
:10A820002C1092F8441008BF43F48063012904BF40
:10A83000022182F8441092F85C1008BF43F40063D0
:10A8400001290DD1022182F85C1043F48053426843
:10A85000116800224A628A8992B213438B8101E017
:10A86000002BF4D17047034B0348D3F8F812FEF7DE
:10A870006FBD00BF182A00200000014010B5064C33
:10A880000648D4F8F812FEF763FDD4F8181304480C
:10A89000BDE81040FEF75CBD182A00200000014012
:10A8A0000040014010B5064C0648D4F8F812FEF7F7
:10A8B0004FFDD4F81C130448BDE81040FEF748BD16
:10A8C000182A0020000001400044014010B5064C49
:10A8D0000648D4F8F812FEF73BFDD4F820130448DC
:10A8E000BDE81040FEF734BD182A002000000140EA
:10A8F00000480140034B4FF08040D3F8FC12FEF7B4
:10A9000027BD00BF182A0020024B0348D3F80013CC
:10A91000FEF71EBD182A002000040040024B034829
:10A92000D3F80413FEF714BD182A002000080040D5
:10A93000024B0348D3F80813FEF70ABD182A00207B
:10A94000000C00400348D0F85C3613B100F5CA6033
:10A9500018477047000000200348D0F87C3613B138
:10A9600000F5CE6018477047000000200348D0F87B
:10A970009C3613B100F5D2601847704700000020E4
:10A980000348D0F8BC3613B100F5D66018477047BD
:10A99000000000200348D0F8DC3613B100F5DA607F
:10A9A00018477047000000200348D0F8FC3613B168
:10A9B00000F5DE6018477047000000200348D0F81B
:10A9C0001C3713B100F5E260184770470000002003
:10A9D0000348D0F83C3713B100F5E66018477047DC
:10A9E000000000200348D0F85C3713B100F5EA609E
:10A9F00018477047000000200348D0F87C3713B197
:10AA000000F5EE6018477047000000200348D0F8BA
:10AA10009C3713B100F5F260184770470000002022
:10AA20000348D0F8BC3713B100F5F66018477047FB
:10AA3000000000200348D0F8DC3713B100F5FA60BD
:10AA400018477047000000200348D0F8FC3713B1C6
:10AA500000F5FE6018477047000000200348D0F85A
:10AA60001C3813B100F50160184770470000002042
:10AA70000348D0F83C3813B100F50360184770471D
:10AA800000000020036823F001030360002303603B
:10AA900043608360C3600361212343612A4B984272
:10AAA00003D13D2243F8082C7047284B984204D12B
:10AAB0004FF4746243F8202C7047254B984204D120
:10AAC0004FF4741243F8382C7047224B984204D14B
:10AAD0004FF0746243F8502C70471F4B984203D1DB
:10AAE0001E4A43F8642C70471D4B984203D11D4AFF
:10AAF00043F87C2C70471C4B984203D11B4A43F807
:10AB0000942C70471A4B984204D14FF03D5243F8B1
:10AB1000AC2C17E0174B9842C3D0174B9842C7D0C4
:10AB2000164B9842CCD0164B9842D1D0154B984238
:10AB3000D6D0154B9842DAD0144B9842DED0144B45
:10AB40009842E2D0704700BF106002402860024087
:10AB50004060024058600240706002403D000020AA
:10AB600088600240400F0020A060024000003D20AD
:10AB7000B860024010640240286402404064024011
:10AB8000586402407064024088640240A06402403D
:10AB9000B86402402DE9F0410022012603250B682C
:10ABA00006FA02FC3CEA030331D10368540005FABB
:10ABB00004FE23EA0E0303600B79D0F800806FEAED
:10ABC0000E0703FA04FE013B4EEA080E012BC0F803
:10ABD00000E011D883681F4087604B798768A340E5
:10ABE0003B438360436823EA0C0343608B794768E7
:10ABF00093409BB23B434360C36805FA04F723EAE2
:10AC00000703C360CB79C768A3403B43C3600132ED
:10AC1000102AC4D1BDE8F081204A936803F00C03E8
:10AC2000042B10B520D0082B20D01D4B1B4C0360EB
:10AC3000A3681C4AC3F30313134493F85018036822
:10AC4000CB404360A168C1F38221114491F85018B0
:10AC500023FA01F18160A168C1F342310A4492F8FC
:10AC60005028D340C36010BD0F4BDFE753685168D5
:10AC700013F4800F01F03F01536814BF0A4A084AD9
:10AC8000B2FBF1F1054A5268C2F30142C3F38813E3
:10AC900001324B435200B3FBF2F3C7E700380240E6
:10ACA0000024F4000000002000127A00F0B5446B8C
:10ACB0008668A38923F400531B041B0CA3818279AB
:10ACC000278A0546BFB2100312F0040F4FEA022193
:10ACD00000F400506A7927F4405740EA07002082C8
:10ACE00014BF4FF4805C4FF0000C12F0010F0CBF4A
:10ACF000002304239207A28922F4B05201F4806158
:10AD000022F00C0248BF43F0080341EA0C01120490
:10AD10000B43120C1A43A281A38A23F440731B0431
:10AD20001B0C85B0A3826846FFF776FF214B9C423F
:10AD300003D003F580639C423AD1039BA289192179
:10AD4000170401FB03F34FF064014CBF7600B6001B
:10AD5000B3FBF6F3B3FBF1F001FB10330201A08962
:10AD600000044BBFDB001B01323332334BBFB3FB5C
:10AD7000F1F3B3FBF1F303F0070303F00F03134305
:10AD80009BB223816A6BAB7913F0080F938A0BBFD8
:10AD900023F008039BB21B0443F0080308BF1B0CFD
:10ADA000938293899BB243F40053938105B0F0BD25
:10ADB000029BC3E7001001402DE9F8431E46204BDB
:10ADC0009DF820509DF824709842894690462CD1D9
:10ADD0003B462A4631460020FFF76AFA0446002027
:10ADE000C4E90700C4E90900C4E90B986571A660CD
:10ADF000A7712046FFF75AFFEA0707D5636B4FF6A6
:10AE0000DF721A80DA6842F02002DA60626BAB0708
:10AE100042BFD36843F08003D36093899BB243F46D
:10AE2000005393812046BDE8F883064B984204D135
:10AE30003B462A4631460120CEE70024F2E700BF18
:10AE4000001001400044004081602FE741712DE770
:10AE50002DE9F043654F07EBC00985B005464FEA81
:10AE6000C00899F8640806F0E3F9064699F8650801
:10AE700006F0DEF9044699F866084BF003FF6B1CF8
:10AE8000DBB21EB140F60C12F28033721CB140F6F8
:10AE90000C22E280237204223A21304606F088F91F
:10AEA000204604223A2106F083F907EB0803D3F881
:10AEB00060484F4B9C4263D103F5F2331A6A42F467
:10AEC00000121A621A6A22F400121A62474497F8B2
:10AED0006738022B6ED0032B6ED0464E464A012BAC
:10AEE00008BF1646A78827F03F0768463F04FFF7CC
:10AEF00093FE3F0C029A414BB2FBF3F398B2074327
:10AF0000A780218821F001010904090C21803C4916
:10AF10008E4253D13B4BB2FBF3F2013092B2042A82
:10AF200080B238BF04222084A28323889BB243F0DE
:10AF300001032380238823F4816323F002031B048D
:10AF40001B0C43F4806323804FF4804323812388C8
:10AF500023F080031B041B0C238023889BB243F047
:10AF600001032380284B03EB4513012283F831238F
:10AF7000002283F8305383F8322305B0BDE8F08314
:10AF8000224B9C4209D103F5F0331A6A42F4800245
:10AF90001A621A6A22F4800297E71D4B9C4295D1EF
:10AFA00003F5EE331A6A42F400021A621A6A22F4B6
:10AFB00000028AE7124E95E7124E93E706EB46062B
:10AFC000B2FBF6F291B2C2F30B020AB941F00101F1
:10AFD00041F400424FF496714B434FF47A71B3FB46
:10AFE000F1F301339BB223849EE700BF00000020F1
:10AFF00000540040801A060000350C0040420F004B
:10B00000A0860100400D0300182A002000580040CF
:10B01000005C00402DE9F047B74D460105EB4019B3
:10B0200008F098F999F93023B44B8846D10003EB26
:10B03000C2020746D2F8604899F83223013A142A2E
:10B0400000F28380DFE812F0790089009F00B700EA
:10B05000C200CC00D500EA00F5000A011501640128
:10B060007D01A30106021702290232024302670290
:10B0700015005F184FF0090A97F8640806F0D8F831
:10B08000044697F8650806F0D3F8B5F89033013315
:10B090009BB207462046A5F8903306F056F838468E
:10B0A00006F053F81121204606F059F811213846D0
:10B0B00006F055F84FF0650803E00520002108F080
:10B0C00089F9204606F038F810B9B8F10108F4D132
:10B0D000204606F03FF80021052008F07BF92046C5
:10B0E00006F033F80520002108F074F9BAF1010ADE
:10B0F000E0D1204606F02EF80021052008F06AF97C
:10B10000384606F027F80021052008F063F92046AC
:10B1100006F01BF80520002108F05CF9384606F01F
:10B1200014F8AB1993F93003431C01D0FFF790FEDC
:10B13000AB19002283F8322307E0238813F400734D
:10B1400040F02381AA1982F83233AB1993F83233D5
:10B15000002B7FF465AFBDE8F087238823F40063FC
:10B160001B041B0C238023889BB243F48063238041
:10B1700023889BB243F480732380AB19C3E9CE7854
:10B18000032283F832235E492046FDF71EF8AB19EF
:10B19000002855D093F842235AB993F84323FF2A45
:10B1A00004D193F840230AB10A22C3E7AB19042261
:10B1B000C0E70F22BEE7AB1993F8412302F0FE026D
:10B1C0002282C3E9CE78052283F832234D492046F6
:10B1D000FCF7FBFF002800F07081AB190622A9E7FD
:10B1E000AB1993F843232282C3E9CE78072283F870
:10B1F000322345492046FCF7E8FF002800F05D8136
:10B20000AB19D3F844233AB9228892B242F40072BF
:10B210002280C3E9CE780EE108228BE723889BB217
:10B2200043F480732380AB19C3E9CE78092283F8F5
:10B23000322333492046FCF7C8FFAB190028B3D1AD
:10B24000D3E9CE0142F21072381A68EB0101904244
:10B2500071F10002FFF479AF15226BE7AB1993F897
:10B26000412342F001022282C3E9CE780B2283F807
:10B27000322326492046FCF7A8FF002800F01D8154
:10B28000AA19D2F84433012B1AD1238823F48063FE
:10B290001B041B0C2380EFF31181102383F312880E
:10B2A000238B23889BB243F400732380CBB283F3B8
:10B2B00011880C2382F83233AB19C3E9CE7844E706
:10B2C000022B15D123889BB243F400632380EFF354
:10B2D0001181102383F31288238B238823F4806346
:10B2E0001B041B0C2380CBB283F311880D23E1E7F1
:10B2F000238B0E23DEE700BF182A00200000002069
:10B300000100030082000700840007000200030020
:10B3100086492046FCF764FFAB19002890D0D3F88B
:10B320004823511CC3F84813218A1170D3F84423D1
:10B33000013AC3F844230122C3E9CE7883F84C23B1
:10B34000F8E67B492046FCF74BFFF0B1EFF31182A2
:10B35000102383F3128823889BB243F40073238065
:10B36000AB19D2B2D3F84813481CC3F84803208A5B
:10B37000087082F31188D3F84823511CC3F848138E
:10B38000218A11706FF00102D3E7AB1958E76849C1
:10B390002046FCF725FFAB1900283FF451AFD3F846
:10B3A0004423032A03F54E7130D1228822F48062AF
:10B3B0001204120C2280EFF31180102282F3128803
:10B3C000D3F8482302F1010CC3F848C3B4F810C005
:10B3D00082F800C0228892B242F400722280C2B287
:10B3E00082F31188D3F84823501CC3F84803208AFD
:10B3F0001070D3F84423023AC3F844230C2283F894
:10B400003223C3F83873C1F804809EE6022A14D8A8
:10B41000228822F480621204120C2280228892B2C6
:10B4200042F400722280228AC3F83873002283F823
:10B430004C23C1F8048001227CE6D3F84823501C39
:10B44000C3F84803208A1070D3F84423013AC3F8A4
:10B450004423D6E7238823F480631B041B0C23803A
:10B46000AB1993F8412302F0FE022282C3E9CE78A1
:10B47000102283F832232F492046FCF7A6FEE0B1C4
:10B48000AB1993F84323FF2A04D193F840230AB160
:10B4900013224FE6AB1911224CE6AB1993F8432364
:10B4A0002282C3E9CE78122283F832232249204631
:10B4B000FCF78BFE08B1AB19EAE720492046FCF700
:10B4C0008FFEAB1900283FF4BBAE142232E6AB1955
:10B4D00003F54E70D3F8442382B1D3F84813013AF0
:10B4E00011F801CBA4F810C0C3F84423C3F8387393
:10B4F000C3F84813C0F8048012221BE6228892B2D7
:10B5000042F4007222800122C3F8387383F84C237E
:10B51000C0F804800EE623889BB243F400732380B6
:10B520004FF6FF33A382AB1973E600BF4000001053
:10B5300004000010820007008400070000040010CF
:10B5400038B5114C04EB401494F83153D5B1C4F81C
:10B550004433049BC4F84833002384F84C3302235B
:10B56000490084F8432384F8323301229DF81430D3
:10B5700084F8411384F8422384F84033FFF74AFDEE
:10B5800094F84C53284638BD182A002038B5114C81
:10B5900004EB401494F83153CDB1C4F84433049B08
:10B5A000C4F848330223490084F8432384F8323333
:10B5B00000229DF8143084F8411384F8422384F863
:10B5C0004C2384F84033FFF725FD94F84C5328466C
:10B5D00038BD00BF182A0020F0B587B000230093C3
:10B5E0000193744B1A6842F480321A601A6802F4AC
:10B5F00000320192009A01320092019A1AB9009A1F
:10B60000B2F5A04FF2D11B6813F4003318BF012329
:10B610000193019B012B40F0B180664B66491A6C87
:10B6200042F080521A640A6842F440420A609A6802
:10B630009A609A689A609A6842F480529A605F4A67
:10B640005A601A6842F080721A601A689201FCD53A
:10B650005B4A40F2027111609A6822F003029A601C
:10B660009A6842F002029A60524A936803F00C030F
:10B67000082BFAD19368534C03F00C03042B7FD0B2
:10B68000082B7FD0504BC4F84C364A4B4F4D9A682C
:10B690004F48C2F303122244002692F87818D4F8D7
:10B6A0004C26CA40C4F84C264A4AEA605A6F4A4AB5
:10B6B000AA605A6B22F080025A635A6F42F080727D
:10B6C0005A67196B454A0A431A635A6B5A631A6CD4
:10B6D00042F0875242F4F61242F41F6242F00F0227
:10B6E0001A64596C3E4A0A435A6402A948F2FF732D
:10B6F000CDE902364FF6FF77FFF74CFA00F5806090
:10B700000297FFF747FA00F580600297FFF742FAC9
:10B7100000F58060FFF73EFA00F58060FFF73AFA27
:10B720000846FFF779FA029B2E4AB3FBF2F32E4A42
:10B73000C2F89433D5F8FC302C4A43F08073C5F836
:10B74000FC302B4BC3F8B02F5E601A6842F0010248
:10B750001A60D4F84C364FF47A72B3FBF2F3013B23
:10B76000B3F1807F08D24FF0E0225361F02385F8D7
:10B77000233007239661136107B0F0BD00BFFDE7DA
:10B780001C4B80E75368516813F4800F01F03F01B0
:10B79000536814BF174A0C4AB2FBF1F1054A5268CC
:10B7A000C2F30142C3F3881301324B435200B3FB8F
:10B7B000F2F368E7003802400070004008304004AF
:10B7C000003C0240000000200024F40000ED00E0F6
:10B7D000000002400003FA05000000081F90670007
:10B7E0003357070040420F00182A002055CEACC541
:10B7F000001000E000127A0082B000230193054B94
:10B800000193019B03EB80000190019B196002B042
:10B81000704700BF5028004082B000230193054BC1
:10B820000193019B03EB80000190019B186802B01B
:10B83000704700BF5028004010B51C2005F0F8FCF0
:10B840001121044605F08BFC204605F083FCC8203E
:10B8500007F05CFE2046BDE8104005F076BC436D65
:10B86000064A1A61C278012A06D100F2CC5058610A
:10B870001A684FF080221A60704700BF18000860F5
:10B8800038B5044600296FD190F81131022B2AD126
:10B89000D0F83821D0F824118A4232D9C378012B4C
:10B8A00004BFD0F828315B18A2EB010208BFC0F832
:10B8B00028314FF48071D0F82831C0F838210025A4
:10B8C00092B2A0F81C11C0F82C31C0F83451C0F865
:10B8D000302100F58E714DF007FF2B462A46294690
:10B8E00020464EF017F894F81631012B07D1244A60
:10B8F0002369D2F868225A60002384F816310020A8
:10B9000038BDD0F83C31B3FBF1F501FB1535A5B9D5
:10B91000994212D8D0F8402193420ED24FF480734E
:10B92000C0E94A55C0E94C55A0F81C3100F58E71AC
:10B930004DF0DAFEC4F84051CFE7D4F8E435DB68C7
:10B940002BB194F81221032A01D1204698470523F0
:10B9500084F81131002320461A4619464DF0DAFFCB
:10B960002046FFF77CFFBEE7D0F8E4355B69002B8B
:10B97000C5D090F81221032AC1D19847BFE700BF74
:10B98000182A002070477047704710B5114C94F882
:10B99000A233CBB14FF0E022D2F8103D23F00603E2
:10B9A000C2F8103DFEF748FC94F8A23363B1D4F816
:10B9B000A8339B68DB0707D5D4F8A424136823F0C9
:10B9C000030161F307031360034B4FF480225A61B4
:10B9D00010BD00BF182A0020003C01402DE9F04FA7
:10B9E000974CD4F8A4335A69D0078DB000F1A482E3
:10B9F0005A699B691340019300F09E82C3F3074389
:10BA00000293019B190311D5D4F8A833DFF83C92B7
:10BA10009E69DB6904F5667B1E40360C04F57B7776
:10BA20004FF00008DA46002E40F01681029B5A07BC
:10BA30000FD5D4F8A833834E9F69DB691F40BFB28E
:10BA4000A6F118054FF00009A6F56C78002F40F01C
:10BA50004881019B9DF80470980741BF784BD3F84B
:10BA6000A43302225A61019B002B1BDA744D95F816
:10BA7000A2333BB1D5F8A424136823F0030161F38A
:10BA800007031360D5F8A8236F48536823F0010318
:10BA900053606E4BD3F8A0389847D5F8A4334FF0D5
:10BAA00000425A61019B1905C3F3072631D5644D45
:10BAB00000238DF81F3095F8AA348DF81F30634BA2
:10BAC00005F56670D3F89C389847D5F8A423D5F8C7
:10BAD000A8334FF400619B68516195F8A223C2B16D
:10BAE000DA0716D595F8AD34012B12D19DF81F3029
:10BAF000032B0ED1D5F8A4341A6842F001021A6063
:10BB00001A6842F003021A60514A136943F00603AF
:10BB100013613B070AD54A4D4C4B05F56670D3F8C7
:10BB200094389847D5F8A43308225A61FD0615D5F4
:10BB3000434BD3F8A403826922F010028261026AA7
:10BB4000C2F34341022902F00F0500F08681062965
:10BB500000F0AA81836943F010038361F00637D5B2
:10BB6000374DD5F8A823D5F8A4035368002723F050
:10BB70000103536039464EF02DF9B84695F8990304
:10BB80003B4605F56C75FF218342C0F09B81D4F8DC
:10BB9000A8332D484FF0FF329A614FF00112DA615D
:10BBA0000B2262F3070762F307085F61C3F8108096
:10BBB0001A686FF30A121A60FFF751FED4F8A43323
:10BBC00021484FF480525A61204BD3F89838984757
:10BBD000B10640F193811A4CD4F8A833D4F8B003DD
:10BBE00099680268C1F34101022906BF032161F38C
:10BBF0000A026FF30A0202605A6842F480725A60C5
:10BC000008A8FFF709F8D4F8A413D4F8A803CB6860
:10BC1000099A6FF38D23CB6085680E48C5F3410503
:10BC2000284490F85C00032840F05381002284F8F7
:10BC30009A234FF40072A4F89C23092258E100BF14
:10BC4000182A0020C82D0020B02D00200000002060
:10BC500000ED00E0141D0608F2073BD55FFA88F1FD
:10BC600004EB8103D3F8EC339D68D4F8A8335B6907
:10BC70001D40EB0720D594F89B033B680125A842A3
:10BC80009D6007D11869DBF87C33C0F312001B1AE2
:10BC9000CBF88C33D9F888385046984794F89B33C2
:10BCA000012B09D1B8F1000F06D194F8A934052B66
:10BCB00002D15046FFF7D3FDA80742BF3B680225DB
:10BCC0009D60290706D5D9F89038504698473B68BB
:10BCD00008229A6008F10108760804370BF1280B56
:10BCE000A1E6FB0779D5D8F8A8335FFA89FA196974
:10BCF000586B08EB8A0220FA0AFBD2F8B0234FEA0D
:10BD0000CB1B92685FFA8BFB4BEA010B0BEA020B31
:10BD10001BF0010F1ED05A6BA8484FF0010B0BFA15
:10BD200009F122EA01025A633368C3F808B0A44B50
:10BD30005146D3F88C38984798F89B335B4509D126
:10BD4000B9F1000F06D198F8A934042B02D19B4811
:10BD5000FFF785FD1BF0080F1EBF33684FF0080B7F
:10BD6000C3F808B01BF0100F1EBF33684FF0100B64
:10BD7000C3F808B01BF0400F1EBF33684FF0400BF4
:10BD8000C3F808B01BF0020F1EBF33684FF0020B60
:10BD9000C3F808B01BF0800F1FD0D5E94C329B1AB6
:10BDA000D5F82421D6F800E098F89BB3DEF8180007
:10BDB000934228BF13460333D8F8A82303929B0865
:10BDC0000AF1320A049308EB8A0A049B80B2984273
:10BDD00003D9D5E94C03984205D809F101097F0838
:10BDE0000436283532E6C01AD5F82431984228BFE7
:10BDF0001846C31C9B080493BBF1000F1BD0D5F859
:10BE00002811D5F834210144C5F82811D5F830118E
:10BE100002448A42DEF81800C5F83421D5D1039BCC
:10BE200095F81C115A6B012303FA01F1039B22EAD6
:10BE300001025A63C9E782B2DAF8A013D5F828C123
:10BE40000332931005930A465946059B8B42D6D080
:10BE50005CF8213013600131F7E747F6F0711142C9
:10BE60003FF478AE282101FB0531C2F30A12D71C3A
:10BE7000D3F868E4D1F818C7BF1000218F420DD164
:10BE8000282101FB0533D3F818171144C3F81817FC
:10BE9000D3F824170A44C3F824275BE6DEF80080B1
:10BEA0004CF821800131E9E7D3F868140F68C3F832
:10BEB00064790968C3F86819282101FB0533C2F3C6
:10BEC0000A12E5E755F8042B9160AA6B01339160E3
:10BED0005AE6012084F89A034020A4F89C03A0F5B8
:10BEE0006400384CA0F562401044A04227D80E22CE
:10BEF00062F38D23CB604FF400534B61029BDA0653
:10BF00000BD5314C2E4B04F56670D3F8A438984706
:10BF1000D4F8A4334FF480125A61029B9B060BD5D0
:10BF2000294C274B04F56670D3F8A8389847D4F805
:10BF3000A4334FF400125A610DB0BDE8F08F234CCA
:10BF4000A2F57400A0F51050A04201D80D22CFE751
:10BF50001F48204C1044A04201D20C22C8E71E4CBE
:10BF6000A2F18C70A0F54340A04201D80B22BFE79C
:10BF70001A481B4C1044A04201D20A22B8E71948C3
:10BF8000194C1044A042FFF458AE184CA2F1B770FF
:10BF9000A0F55850A04201D20822A9E71448154C38
:10BFA0001044A04201D20722A2E713481044134ACA
:10BFB000904234BF062205229AE700BFB02D002030
:10BFC000000000203F420F00182A0020DFC81000A8
:10BFD0002013FBFE20D61300FF69180000D3CEFE0D
:10BFE00040771B00C05BB3FEC091210040AC27002E
:10BFF000C01D6AFE40E13300803C36FEE09C4100FB
:10C0000070B5124D124BC5F88C3940F20112002365
:10C0100085F8D532A0F84421C0F85C3105F68C12C1
:10C020000D23C0E95422044685F89819C0F8583108
:10C0300000F5A2714DF0D5FB05F52D7220461F23AA
:10C04000BDE8704001214DF065BC00BF182A0020FA
:10C050005553425310B5074B93F8C11204464DF0A7
:10C0600077FC002804DA20460121BDE81040C7E72C
:10C0700010BD00BF182A0020F8B50B7813F060053A
:10C0800006460C4638D0202D74D14A78FE2A05D0B9
:10C09000FF2A1CD04DF0A6FA02252BE04D88A5B949
:10C0A000CF88012F11D11A060FD5334CD4F8E032C6
:10C0B0009B699847C0B284F89C0930B13A4604F6AF
:10C0C0009C1130464DF062FB14E03046E2E74A88AE
:10C0D000002AFAD1CD88002DF7D11B06F5D4264AC7
:10C0E000012182F8D55282F8D4121F2302F52D7255
:10C0F0004DF010FC2846F8BD4B780A2B24D00B2BB2
:10C1000025D0012BF6D194F904308988C068002B22
:10C1100022DA01F07F014DF05DFE2179164F3046A5
:10C120004DF06EFA02232179402230464DF091FA0B
:10C1300097F8D432022B12D1812130464DF020FAEB
:10C14000002387F8D432D5E70C490122BAE70A4B1D
:10C150004A8883F89D29CDE74DF026FEDDE794F966
:10C160000420002AC6DA012BC4D001213046FFF793
:10C1700047FFBFE70025BDE7182A0020B5330020A0
:10C1800008B5084B93F8D532022B07D0033B012B9F
:10C1900002D80021FFF734FF002008BDFFF75AFF47
:10C1A000FAE700BF182A002070B52F4C94F8D5622A
:10C1B00005461EB1012E54D0002070BDD4F8B8320F
:10C1C000C4F89039D4F8BC32C4F89439B0F8B43318
:10C1D0001F2B0DD1D4F8B422244B9A4208D194F8E5
:10C1E000C112012904D894F8C232013B0F2B0AD99D
:10C1F000202105204AF04AFB022384F8D432284645
:10C20000FDF7F0FBD8E74DF0A3FB0028F7DB94F82F
:10C21000D532013B022BCFD9B4F89E19E9B1D4F83D
:10C22000BC3284F89869994228BF1946D4F89439E9
:10C230005B1AC4F89439042384F8D53240F2011310
:10C24000A5F844310A4BC5E95616C5E9543305F53E
:10C25000A27128464DF0C5FAAEE72846FFF7D0FE9A
:10C26000AAE7FFF7F7FEA7E7182A00205553424335
:10C2700094680020F0B59C0827010E46154600EB97
:10C280000414A04206F1100605F1100508D103F0D0
:10C29000030339443A4404EB83039C4223D1F0BDA9
:10C2A00084469CED006A16ED045AD0ED016A56ED05
:10C2B000037A90ED027A56ED025A26EE056A66EE92
:10C2C000A76AD0ED037A05ED046A16ED016A45ED23
:10C2D000036A27EE257A67EE867A103005ED027A3A
:10C2E00045ED017ACDE7F4EC017AB1EC017A67EE25
:10C2F000877AE2EC017AD0E74A09012301F01F01B5
:10C3000003FA01F150F82230194214BF0120002035
:10C3100070474A09012301F01F0103FA01F150F8A7
:10C3200022300B4340F8223070474A09012301F0C4
:10C330001F0103FA01F150F8223023EA010340F80B
:10C340002230704730B54D09024400EB8504A2420B
:10C350004FF0FF3323D901F01F018B4050F8251017
:10C360000B4093FAA3F3B3FA83F3DBB2202B02D092
:10C3700003EB451030BD211D91420C4602D34FF016
:10C38000FF30F7E72368043193FAA3F3B3FA83F39A
:10C39000DBB2202BF0D0201A03EBC000EAE71846EE
:10C3A000E8E780EA0120082341F2210210F4004F5F
:10C3B0004FEA400018BF5040013B80B2F6D17047B1
:10C3C00038B50C468D18AC4200D138BD14F8011BAD
:10C3D000FFF7E7FFF7E74840082310F0800F4FEA28
:10C3E000400018BF80F0D500013BC0B2F5D17047C6
:10C3F00010B50A440C46944200D110BD14F8011B3C
:10C40000FFF7E9FFF7E738B50A460568044600205C
:10C41000AA4203D36B1C2360287038BD12F8011B9D
:10C42000FFF7D9FFF4E7DFED0A7AC0ED020A20EE4C
:10C43000270AB7EE007AC7EE007A00230360C0ED4A
:10C44000017A70EEA77A80EEA77A80ED037A7047C2
:10C45000DB0FC94090ED017AD0ED007AC0ED020A01
:10C4600030EE877AC0EE876A30EE677AE6EE877A3A
:10C47000B0EE670AC0ED007A704701230370002315
:10C48000C3648364036503644364436583628365B3
:10C490007047DFED157A80ED010AF4EEE70AF1EE60
:10C4A00010FAC0ED020A80ED031AC0ED051A18DD7E
:10C4B000B4EEE70AF1EE10FA10DD81EE007AC0EE7C
:10C4C000207AF0EE006A77EE877A86EEA77A80ED22
:10C4D000047A80ED0F2AC0ED0E2ACEE70023036117
:10C4E000F7E700238360FAE7BD378635FDEEC07AB3
:10C4F00017EE903A2033402B43D8DFED237A9FED9F
:10C50000237AB4EEE70AF1EE10FA28DCDFED207AA8
:10C510009FED1E7AB4EEE70AF1EE10FA22D4DFEDB9
:10C520001D7AB4EEE70AF1EE10FA1EDD30EE670A6E
:10C5300037EEC00A60EE007ADFED176A9FED177ADA
:10C54000A7EEA67ADFED166AE7EE876A9FED157A09
:10C55000A7EEA67A20EE276AA6EE070A704730EE0D
:10C56000470ACEE730EE070AD4E79FED0F7AB4EE24
:10C57000C70AF1EE10FA44BF30EE270A37EE400A40
:10C58000D8E79FED0A0A7047DB0F4940DB0FC9402F
:10C59000DB0F49C0DB0FC93F9A7C2E36FAAF4FB98B
:10C5A0003587083CA4AA2ABEDB0FC9BF00000000E3
:10C5B000DFED027A30EE270A98E700BFDB0FC93FB4
:10C5C00038B51D46304BB3FBF2F39942B0EE405AFA
:10C5D000F7EE005A4FF000044FD207EE901A9FED8D
:10C5E0002B7ADFED2B6AF8EE677A67EE877A07EE33
:10C5F000102AB8EE477A27EE267AC5EE876A87EECC
:10C60000A64AB0EE440AFFF771FFF0EE404AB0EEE2
:10C61000440AFFF7CDFF35EE055A012D84EE854A19
:10C62000F0EE407A1CBF35EEE76AF6EE006AB8EE2F
:10C63000000A34EE257A12BF66EE266A27EE806A7B
:10C64000F0EE656A86EE875AC6EE076A67EE807A74
:10C6500075EEC45AC0ED016AC7EE876AC5EE877AE7
:10C6600080ED005A80ED025AC0ED036AC0ED047AF5
:10C67000846144610462C46138BDC0ED005A446005
:10C680008460C4600461F3E720A10700DB0FC940A8
:10C69000BD3786359FED010A002391E7F304353F4E
:10C6A0002DE9F041FCEEC07A13460A4617EE901AC7
:10C6B000D0F814808769C669056AB0EE600A89B24D
:10C6C000FFF77EFFC0F814808761C6610562BDE890
:10C6D000F081F0EEE06AB0EEC07AF4EEC76AF1EEF7
:10C6E00010FAD4BFB0EE476AB0EE666AB5EE406AA3
:10C6F000F1EE10FAF0EE405A46D0F4EEC76AF1EED1
:10C7000010FA54BFB0EE475AB0EE665AC5EE067A3C
:10C710009FED1F6A9FED1F5ADFED1F4AA7EE865A55
:10C720009FED1E6AA5EE276A9FED1D5AA6EE275AB9
:10C730009FED1C6AA5EE276A9FED1B5AE7EE854A1E
:10C74000B7EE005AA4EEA75AF1EE467A87EE850AB4
:10C75000F4EEC76AF1EE10FA48BFDFED147AF5EE99
:10C76000C00A48BF37EEC00AF1EE10FA48BFDFED4D
:10C77000107AF5EEC05A48BF37EEC00AF1EE10FA53
:10C7800048BFB1EE400A7047DFED0A7AC0E700BF4C
:10C7900039094E3DE3B59EBE69A2163E88FA16BE23
:10C7A00045FE7FBFA7DFA8B499FB243FDB0FC93F3D
:10C7B000DB0F49400000000044F25063984203DD63
:10C7C000A0F50C40A0387047034B9842BCBF00F561
:10C7D0000C40A030704700BFB0B9FFFF48F69F4340
:10C7E000984203DDA0F50C40A03870470028BCBF7C
:10C7F00000F50C40A030704791ED005A08B5B0EE3E
:10C80000450AFFF7D5FEF0EE405AB0EE450AFFF7B5
:10C810006DFE91ED015AF0EE404AB0EE450AFFF789
:10C82000C7FEF0EE403AB0EE450AFFF75FFE91ED2D
:10C83000023AB0EE405AB0EE430AFFF7B9FEB0EE4E
:10C84000404AB0EE430AFFF751FE25EE806A63EEE0
:10C85000C07A24EE847AC0ED017AF0EE467AE5EEF5
:10C86000077A25EE843A64EE806AC0ED037AF0EE32
:10C87000437AE5EE667AA5EE067AE5EE436A23EEA4
:10C88000844A64EEE34A65EEA35A80ED004A80EDE7
:10C89000025AC0ED047AC0ED054AC0ED066A80ED8B
:10C8A000077AC0ED085A08BD034600F14001002296
:10C8B0001A615A619A61DA6110339942F8D11022F3
:10C8C000002154F007BA91ED007AD0ED047AE7EE3A
:10C8D000077AC0ED047AD1ED006A91ED017AD0EDCE
:10C8E000057AE6EE877AC0ED057AD1ED006A91ED22
:10C8F000027AD0ED067AE6EE877AC0ED067A91EDFF
:10C90000007AD0ED077A77EE877AC0ED077AD1ED1D
:10C91000016A91ED007AD0ED087AE6EE877AC0EDF3
:10C92000087A91ED017AD0ED097AE7EE077AC0ED49
:10C93000097AD1ED016A91ED027AD0ED0A7AE6EE3C
:10C94000877AC0ED0A7A91ED017AD0ED0B7A77EE15
:10C95000877AC0ED0B7A91ED007AD1ED026AD0EDC5
:10C960000C7AE6EE877AC0ED0C7AD1ED026A91ED91
:10C97000017AD0ED0D7AE6EE877AC0ED0D7A91ED71
:10C98000027AD0ED0E7AE7EE077AC0ED0E7A91EDDD
:10C99000027AD0ED0F7A77EE877AC0ED0F7A91EDBB
:10C9A000007AD0ED107A77EE877AC0ED107A91EDAB
:10C9B000017AD0ED117A77EE877AC0ED117A91ED98
:10C9C000027AD0ED127A77EE877AB7EE007AC0ED70
:10C9D000127AD0ED137A77EE877AC0ED137AD1ED23
:10C9E000017AD1ED006A91ED027A67EEA77AE6EE60
:10C9F000A67AE7EE077A90ED007AA6EEA77A80EDA8
:10CA0000007AD1ED016A90ED017AA6EEA77A80ED69
:10CA1000017AD1ED026A90ED027AA6EEA77A80ED56
:10CA2000027A90ED037A77EE277AC0ED037A7047A9
:10CA30002DE9F043034685B000F1100705460026B6
:10CA40001C46AC4612E0F8EC016A1EED047AD4ED07
:10CA5000007AE6EEC77AC4ED007A98450EF1100E22
:10CA6000F1D10434BC420CF1040C03D0A7F110083E
:10CA7000E646F2E701361C46B646BEF1040F1FD06B
:10CA800000EB0E1CA84604F1100909E0FCEC016A59
:10CA900018ED047AD4ED047AE6EEC77AC4ED047A90
:10CAA000CC4508F11008F1D1D4ED046A93ED007A79
:10CAB000C6EE877A0EF1010EC4ED047A6446DCE717
:10CAC000042E03F1140305F1040507F11007B7D193
:10CAD000002300930193029303936C4600231427D1
:10CAE00052F8045B44F8045B07FB030C00EB0315EE
:10CAF0006E4665451FD10133042BF1D104AD1031D1
:10CB000000F1400255F8044D0E4600EB031741F8C2
:10CB1000044D1446A742D1ED007A17D152ED016AB7
:10CB200087EEA67A013BA2F1140281ED007AE9D1E9
:10CB300005B0BDE8F083B6EC017A54ED017AF5EC6E
:10CB4000016AE6EEC77A44ED017AD2E7F4EC016AB5
:10CB5000B6EC017AE6EEC77AC1ED007ADAE79FED2E
:10CB60000C7A00F10C03F0EC017AF4EE677AF1EE46
:10CB700010FA06D7F0EEE77AF4EE477AF1EE10FA03
:10CB800003DC9842EFD1012070470020704700BFBE
:10CB9000FFFF7F7F1FB50C46024669461030FFF746
:10CBA00047FFDDED007AB6EE007A67EE877A204621
:10CBB000C4ED007ADDED017A67EE877AC4ED017A83
:10CBC000DDED027A67EE877AC4ED027AFFF7C7FFE0
:10CBD00004B010BDB5EEC00AF1EE10FA08B506DBE0
:10CBE0004FF04AFAB4EE400AF1EE10FA01D79FED89
:10CBF000010A08BD00000000F8B52DED028B0446C7
:10CC000025461C3004F1640250ED017AB1EC010AB2
:10CC100077EE807A40ED017AFBF79EFD1830904266
:10CC2000F2D123692D4E626801332361D6F8583260
:10CC30009B1AA26893422DD99FED298A04F13007EF
:10CC4000EB6A012BC1BF03F1FF3307EE903A95ED7C
:10CC50000A7AF8EEE77AD4BFB0EE480A87EE270AE0
:10CC6000FFF7B8FFBD42D4ED057A16D0F4EEC07AD6
:10CC7000F1EE10FA05F11805E2D5237B53BBD6F887
:10CC80005822626000222361A261E362226363642E
:10CC9000A264E365BDEC028BF8BDF4EEC07AF1EE60
:10CCA00010FAEAD4D4ED047AD4ED066AF8EE677A85
:10CCB000022386EEA77AD4ED0C6A84ED067A86EE1E
:10CCC000A77AD4ED126A84ED0C7A86EEA77A84ED09
:10CCD000127A00E003232370DCE700BF182A00204B
:10CCE0000000000038B50378012B04463CD10369ED
:10CCF000254D23B9426812B9D5F858224260D4EDC7
:10CD0000067A77EE807A01332361C4ED067A04F166
:10CD10001C00FBF721FD6268D5F858329B1AA26807
:10CD2000934221D9E36A012BC3BF03F1FF3307EE1E
:10CD3000903A94ED0A7A9FED150AC4BFF8EEE77AAF
:10CD400087EE270AFFF746FFD4ED057AF4EEC07AA6
:10CD5000F1EE10FA0CD5237B3BB9D5F8582262606E
:10CD600000222361A261E36238BD03232370FBE745
:10CD7000D4ED047AD4ED066AF8EE677A022386EEE3
:10CD8000A77A84ED067AF1E7182A00200000000057
:10CD900008B52DED028BF0EEC08AB0EE408AB7EEFA
:10CDA000000A30EE680AFFF715FF9FED0E7ADFEDFF
:10CDB0000E7AE8EE877A9FED0D7AA7EEA87ADFED7E
:10CDC0000C7AE7EE287AB5EEC08ABDEC028BF1EE64
:10CDD00010FA20EE270A44BFDFED067A37EEC00ACC
:10CDE00008BD00BF306E99BC2716983D843459BEEB
:10CDF000A40DC93FDB0F494060EEA00AE0EE000A37
:10CE0000B0EE600AE6E660EEA00AE0EE000AE1EEAF
:10CE1000010AB0EE600ADDE62DE9F74F90469DF875
:10CE20003020002A14BF4FF030094FF020090D9A2E
:10CE30001C1E05460F46BABF64420123002312F8A8
:10CE4000011B01B12CB9A24663B100240D9EA41BA5
:10CE500012E0013CF3E7BD4204D249462846019363
:10CE6000C047019BBAF1010AF5D2EFE7BD4203D2F8
:10CE700028460193C047019B06EB040B16F8011BE3
:10CE80000029F3D133B15446002C07DCBAF1000F6E
:10CE9000A8BFD344584603B0BDE8F08FBD4202D2CC
:10CEA00049462846C047013CEEE70FB437B50C4D64
:10CEB00006ABD5F8381B53F8042BD5F8340B019387
:10CEC0004DF0EFF90446D5F8E40206F0C6F8002864
:10CED000F9D0204603B0BDE8304004B0704700BF31
:10CEE000182A00200EB403B503AB084953F8042BED
:10CEF000CDE9003001A84DF0D4F9019B00221A7051
:10CF000002B05DF804EB03B0704700BFA7870008CC
:10CF10000CB430B52C4CD4F83C3BA5B01BB9D4F8BC
:10CF2000403B002B39D094F8443B994206D9012369
:10CF300003FA00F0D4F8483B18422ED0D4F8581227
:10CF40004FF47A7304A8B1FBF3F203FB12131F49E9
:10CF5000FFF7C8FF04AB0344289A1D490393054615
:10CF600029AB03A802934DF09CF9039B591C039134
:10CF70000A211970039B0246591CD4F83C0B0391FB
:10CF80000021197090B103681B6A03B19847D4F867
:10CF90003C5B04AC14F8011B21B925B0BDE830405E
:10CFA00002B07047284605F0F3FFF3E7D4F8403BA2
:10CFB000002BF2D002212A4400910A44FD2004A94A
:10CFC00028F038FCE9E700BF182A002099C90608B4
:10CFD0004F87000810B54FF4004086B026F0FCFCE7
:10CFE000044690B34FF4004126F058FE02281AD1AF
:10CFF000226848F201039A4227D14FF4004048F0DA
:10D0000083FF10B31F4BD3F84C2B82421FD0D3F8B1
:10D01000282C904230D0D3F8042D90422FD00022FB
:10D02000C3F8402B11E00023022294F90400CDE95B
:10D0300001234FF4612200924FF400411A4626F07A
:10D040007DFE104BC3F83C0B28B906B010BD03F6AB
:10D050004C32C3F8402B0C4B04930C4B03930C4BFA
:10D0600002930C4B01930C4B00930C4A0C4B022186
:10D070000020FFF74DFFE8E703F62842E9E703F653
:10D080000452E6E7182A0020A5C90608AEC906081A
:10D09000B7C90608C3C90608ECC806085DDA060861
:10D0A000F7C80608184A38B5D2F8E04D033004EB4B
:10D0B0009003B3F5007F19D802F6E455C2F8E03DBD
:10D0C000124A02EB810120F00300D1F8EC24C3F5F1
:10D0D00000731044C1F8EC040D4A9B0004210020A9
:10D0E00005EB8404FFF714FF204638BD0021094AF0
:10D0F0000846FFF70DFF084AD2F8983043F0007356
:10D10000C2F898300024EFE7182A0020103B0020D6
:10D11000C9C90608EDC90608B86801202DE9F84F0D
:10D120000268DFF8A4800646002358F833108A42CC
:10D130000BD1DDB20D2D0CD9204A00210520FFF7BF
:10D14000E7FE00242046BDE8F88F01330E2BECD11A
:10D15000F2E71B4F07EB850A4FEA8509DAF8F8B2C8
:10D16000BBF1000F1AD107216420FFF79BFF044693
:10D17000CAF8F80228B90146124A0520FFF7C8FE8E
:10D18000E0E76422594653F0A5FDDAF8F83208EBDF
:10D19000C505C3E90053DB615B63DB644F44717910
:10D1A000D7F8F842182000FB014300221C46C3E9CF
:10D1B00003229E601A750434C4E700BFFBC9060849
:10D1C000182A002020CA0608841D06082DE9F0430D
:10D1D000062592F9007087B06B43144612F805805B
:10D1E000A0EB080EA0EB070CBEF1000FB8BFCEF10C
:10D1F000000EBCF1000FB8BFCCF1000CE64502EB0D
:10D20000050905F10605BCBF4FFA88F74C46AB424D
:10D210001646E3D11A443378BB420CD16588738833
:10D220004D1BCB1A002DB8BF6D42002BB8BF5B421F
:10D230009D42C8BF34460636B242ECD163790493AE
:10D2400023790393638802932378064ACDE9001378
:10D25000034603210120FFF75BFE204607B0BDE82F
:10D26000F08300BF3ACA06084B1EDBB2062B98BFFC
:10D270001E4AF0B598BF9B181D4C98BF93F8E0204C
:10D2800004F1580388BF4FF48072002808BF1C4681
:10D29000234687B013F9087B1888C8B9154B93F853
:10D2A0007405A3790593A3880493A3780393238833
:10D2B0000091CDE90123104A104B0321002808BF3B
:10D2C00013460F4A0120FFF723FE204607B0F0BDAA
:10D2D000161AD51B002EB8BF7642002DB8BF6D427E
:10D2E000AE42BCBF1C4647B20833D5E7141D060842
:10D2F00008100020103B0020D00507087EE3060838
:10D3000073CA060803685A1C026019700368090A88
:10D310005A1C02601970704703685A1C0260197029
:10D3200003685A1C02600A0A1A7003685A1C0260D9
:10D330000A0C1A700368090E5A1C026019707047B3
:10D3400003685A1C02600A0A1A7003685A1C0260B9
:10D350001970704738B504460068154653F0BAFC9A
:10D3600023682B44236038BD38B504460068154651
:10D3700051F010FB23682B44236038BD03685A1C0E
:10D3800002601878704703685A1C02601A4612F847
:10D39000021B0260587841EA0020704710B502680D
:10D3A0001146531C036011F8024B0160D31C5178E5
:10D3B000036093781B0443EA0123111D0160D078B8
:10D3C000234343EA006010BDD1E900329A4206D0FF
:10D3D0005A1C0A6008B11B780370012070470020B6
:10D3E0007047D1E900239B1A012B10B5044608466B
:10D3F00004DDFFF7C8FF2080012010BD0020FCE7FE
:10D4000030B50A440446914201D1002011E014F8DD
:10D41000013BA3F14100192811F8010BA0F14105CE
:10D4200098BF2033192D98BF20301B1A02D1002835
:10D43000E9D130BD1846FCE76FF00042E0E710B5D7
:10D440000288C378A2F5FA62910840F2B554013B14
:10D4500004FB013381780C24013902F0030204FB40
:10D4600002120D49847901EB42021821B2F8E8203A
:10D470001344027901FB0322437900893C2101FB1B
:10D480000233064A224401FB03224FF47A7300213F
:10D49000C2FB030110BD00BF141D060880436D3898
:10D4A0002DE9F04190461F4605464FF47A7200235D
:10D4B000404639464DF0DEFE284B3C21034493FBA9
:10D4C000F1F201FB1233AB7192FBF1F301FB13227A
:10D4D0006A7140F2B551182293FBF2F402FB143347
:10D4E00094FBF1F201FB1244B4F5896F2B714FEA02
:10D4F00082032EDA40F2DA2294422CDCB4F5B77FB4
:10D50000B4BF00210121164A182000FB01220B267E
:10D5100032F81600A04201DD013EF9D103F5FA63AD
:10D520000B442B80731CAB700C2303FB01660D4B6B
:10D5300003EB46060134B6F8E830E41AEC704FF419
:10D540007A720023404639464DF094FE2A81BDE8A8
:10D55000F0810321D7E70221D5E700BF80BC92C745
:10D56000FC1D0608141D0608F0B5274D06460F469B
:10D570000FCD8DB06C460FC40FCD0FC495E80F00D2
:10D5800084E80F0016F003033AD1642196FBF1F210
:10D5900001FB126242B94FF4C87296FBF2F302FB30
:10D5A0001363003B18BF0123721EC3F11D03002A41
:10D5B000019340F26D13104606FB03F3B8BFB01C95
:10D5C00003EBA0006FF0630392FBF3F318444FF4F6
:10D5D000C87392FBF3F21044063069460024072515
:10D5E000013F51F8042BA74202EB000393FBF5F037
:10D5F000C0EBC000A3EB000004D1101A0DB0F0BDC9
:10D600000123D1E70134ECE75C1E0608084B53E91F
:10D61000021251EA020309D0064BD3F858325B18C4
:10D6200042F10002C0E9003201207047002070473B
:10D6300090400020182A002037B505466846FFF7BD
:10D64000E5FF044638B1DDE900232846FFF728FF4F
:10D65000204603B030BD40F2011328806B80A880C3
:10D66000A8712881F4E71FB50190FFF7E5FF019944
:10D67000044648B1064B0DF10E02B3F88035ADF803
:10D680000E30084647F024FF204604B010BD00BF0E
:10D69000103B0020F0B50124B0FBF4F58D4203D21D
:10D6A00000261CB91C70F0BD4C43F5E7B0FBF4F547
:10D6B000B4FBF1F704FB15002EB9002D03DC8C42FE
:10D6C0000CD33C46EDE7092D08DD002A14BF3724B2
:10D6D00057242C4403F8014B0136F2E73024F8E7D5
:10D6E000A0F13003DAB2092A01D818467047A0F138
:10D6F0006103052B01D857387047A0F14103052B72
:10D7000094BF37384FF0FF30704770B504469442ED
:10D7100008461546B4FBF2F602D33046FFF7F5FF94
:10D7200005FB1644024B1B5D00F8013B70BD00BFBA
:10D73000BDCA0608B5EEC00ADFED2D7AF1EE10FA8B
:10D74000CCBF30EE270A30EE670ADFED2A7A20EEF2
:10D75000270A30B5FDEEC07A87B017EE904A05462D
:10D7600084EAE470002303A9A0EBE470CDE9003360
:10D77000029349F0A9FA002CACBF20232D2303A863
:10D780008DF800304CF04EFF012822D130238DF867
:10D7900001308DF802308DF8033003A9684654F04B
:10D7A000E9F968464CF03EFF0338C4B222466946A8
:10D7B000284651F0EFF800232B550F49284654F026
:10D7C000D9F90DEB0401284654F0D4F9284607B0E6
:10D7D00030BD022805D130238DF801308DF802309C
