:020000040800F2
:1000000000000220D1D9050879980008D5780208A7
:1000100081DA050881DA050881DA050800000000A8
:100020000000000000000000000000006DB10008AA
:100030006FB100080000000071B1000825580108E8
:1000400081DA050881DA050881DA050881DA050810
:1000500081DA050881DA0508AF0B0108B30B010846
:1000600081DA0508B70B0108BB0B01082DA10008B8
:1000700041A1000855A1000869A100087DA1000860
:1000800091A10008A5A1000881DA05080000000080
:10009000000000000000000000000000BF0B01088D
:1000A00065A000088DA00008B5A000084FA00008BA
:1000B000DDA00008F1A0000805A1000881DA05080C
:1000C00081DA050881DA050881DA050881DA050890
:1000D00081DA0508019B00080D9B00080000000064
:1000E000C30B010881DA050873B1000800000000A5
:1000F000000000000000000000000000B9A100089E
:100100000000000081DA050819A1000881DA05085D
:1001100000000000000000000000000000000000DF
:10012000CDA10008E1A10008F5A1000809A200087E
:100130001DA20008000000000000000000000000F8
:10014000000000000000000000000000C5B1000831
:1001500031A2000845A2000859A2000881DA05086A
:1001600081DA050881DA05080000000000000000BF
:10017000000000000000000000000000000000007F
:100180000000000081DA0508000000000000000007
:0801900081DA050881DA050897
:0801980064D505000100000020
:1001A000D07A01200202000001012C00F07A012027
:1001B000020A000001012C00107B01200206000051
:1001C00001012C00307B01200207000001012C00FE
:1001D000507B01200203000001012C00707B0120F4
:1001E0000208000001012C00907B0120010B00009F
:1001F00000007700B07B0120010C000000007600B9
:10020000D07B01200111000000007600F07B01206E
:100210000110000000007600107C0120010E01009A
:1002200000007700307C0120010D01000000770004
:10023000507C01200112000000007600707C01203B
:100240000114000000001E00907C0120011A000033
:1002500000000D00B07C01200115000000000C0022
:10026000D07C01200116000000000C00F07C012071
:10027000011B000000000E00107D0120011C000089
:1002800000001E00307D01200117000000000C005E
:10029000507D01200118000000000E00707D01203B
:1002A0000119000000000C00907D0120011E0000DB
:1002B00000000C00B07D0120011F000000000C00B8
:1002C000D07D01200229050000013E00F07D0120C3
:1002D0000231000000011400107E012002340400ED
:1002E00000001400307E01200133000000003C00BB
:0C02F000507E01200136000000002000BC
:10800000D0E907239A422FBFD01AC0688018C01A3F
:108010007047D0E9092300699A4238BF1218D31A71
:108020000138C01A7047D0E90902131A5842584162
:108030007047036A41690246C85CD16801338B42CC
:1080400028BF002313627047436A8269D154436A90
:1080500002690133934228BF0023426B4362D36815
:1080600043F08003D3607047436B188810F0100012
:108070001EBF1A889B8801207047436B99891A8814
:10808000890610B592B2044607D5900605D5E26A76
:1080900022B39888216B80B29047636B99891A88C4
:1080A000090692B20FD510060DD5D4E909128A42FD
:1080B00022D0A169895C998021690132B2FBF1F07B
:1080C00001FB1022A262998A1A88C90592B204D5CE
:1080D000D20744BF4FF6F7721A8010BD9B88E26941
:1080E0006169DBB28B54E369E2680133B3FBF2F1FF
:1080F00002FB1133E361D0E7DA6822F08002DA6034
:10810000E1E77047036941681F2B30B54FF020024B
:1081100085BFA3F120054C680C68AA4098BF9A401F
:1081200022421ED0826900201074D06884682068C2
:1081300020F001002060546820686579094C82892C
:1081400034F8154092B21F2B22EA0402828188BFC4
:10815000203B4FF020028BBF9A4002FA03F3CA6023
:108160008B6030BDCC4306080E4BDA68D20310D4C6
:10817000DA68D1060FD4DA68D2050ED4DA6812F0C4
:10818000E00F0CD1DB6813F0020F14BF08200920A8
:108190007047012070470620704702207047072073
:1081A000704700BF003C024007B509238DF8073037
:1081B000FFF7DAFF8DF807009DF80730012BF7D0A5
:1081C0009DF8070003B05DF804FB838A028B9BB225
:1081D00043EA024331EA03030CBF01200020704749
:1081E00082B0002301930093012300900193019B2F
:1081F00063B1009A21F07F4314320092009A126812
:108200001A4214BF0120002002B07047009A1832B1
:10821000F3E77047704701207047034BD3E9000331
:10822000C01AC0F30A00704788190020054AD2E935
:1082300000138B42FDD0D1180133C3F30A03087A2F
:108240005360704788190020044BD3F8080820B108
:10825000D3F80808431F5842584170478819002036
:10826000012380F849307047044BD3E90003C01A5A
:10827000C0F30A00C0F50060704700BF88190020F5
:1082800010B5D0F8E83504461B699847032384F8F5
:108290001231002010BD08B590F8123180F813316A
:1082A000042380F81231D0F8E835DB6898470020C5
:1082B00008BD08B5D0F8E435DB6903B19847002064
:1082C00008BD08B5D0F8E4351B6A9847002008BD02
:1082D00008B5D0F8E4355B6A9847002008BD30B592
:1082E0000138002423460134055D002DFAD1DBB2AC
:1082F00001335B0013800B7003234B70022310F8D3
:10830000014F04B930BD5A1CD2B2CC5402338D5443
:10831000DBB2F4E710B5074C2068FF2808D0064907
:10832000D1F80C2801F5016100F070F8FF232360FB
:10833000002010BD000000208819002043230148C0
:108340000B80704704000020122301480B80704707
:1083500047000020042301480B807047590000208B
:1083600008B50A4602490348FFF7B9FF084608BDA9
:10837000A0210020DDEF060808B50A46024903489F
:10838000FFF7ADFF084608BDA0210020EBEF06086F
:1083900008B50A4602490348FFF7A1FF084608BD91
:1083A000A0210020F0EF060808B50A46024903485C
:1083B000FFF795FF084608BDA0210020FAEF060848
:1083C00008B50A4602490348FFF789FF084608BD79
:1083D000A021002005F006087047704770477047DD
:1083E00070477047044B00200522C3F80828C3F8E3
:1083F0001809C3F81C09704788190020024B002097
:10840000C3F80808704700BF88190020212838B534
:108410000C461BD022282BD0202815D1A1B1072A29
:1084200012D11A4DD5F81C3913B1096800209847AC
:108430002368C5F82039237985F82439637985F8CC
:108440002539A37985F82639002038BD0029FBD0CD
:10845000072AF9D10D4BD3F820290A6093F8242973
:108460000A7193F825294A7193F826398B71EBE745
:108470000029E9D0022AE7D1044BD3F81839002BA0
:10848000E2D0098800209847DEE700BF8819002065
:1084900030B50E4CD4E900329A1AC2F30A020A44EB
:1084A000B2F5006F10D801440022814203D102B11D
:1084B0002360002030BDE21810F8015B1572013313
:1084C000C3F30A030122F0E70220F3E78819002032
:1084D000034B93F84C09003818BF0120704700BFC8
:1084E00088190020034B93F84C09032894BF0020FF
:1084F000012070478819002000487047D8220020CA
:10850000837B042B0DD0074BD3F898200132C3F89E
:108510009820426004228273D3F89C200132C3F871
:108520009C207047C4770020202301480B807047AF
:108530005D000020122301480B8070477D00002061
:10854000042301480B8070478F0000200A4608B5BD
:10855000044920B90448FFF7C2FE024808BD034899
:10856000F9E700BF0823002013F006082BF00608E7
:1085700008B50A4602490348FFF7B1FE084608BDA0
:108580000823002043F0060808B50A4602490348BC
:10859000FFF7A5FE084608BD0823002056F0060890
:1085A00008B50A4602490348FFF799FE084608BD88
:1085B0000823002061F00608002370B54D1C1E46FC
:1085C000040FB0F1204F34BF3034373401F813407A
:1085D00005F813600133DCB2A2424FEA0010EFD875
:1085E00070BD1A2310B50B80094BD3F8E807D3F8F8
:1085F000EC2780180AD0D3F8EA4706490822FFF78B
:10860000DBFF042210312046FFF7D6FF024810BDE1
:1086100000F0FF1F95000020930000204FF400732E
:108620001360034BD3F8883A0B600020704700BFFB
:1086300088190020002070470120704701207047F2
:108640000020704730B414461A69A24209D30D19AC
:10865000AA429B6938BF111B0A46E11830BC58F08A
:10866000F5BC30BC704700207047002070472DE9F2
:10867000F347038A8689B6B205460C461E404FF082
:10868000004901F14C0701F1340816B902B0BDE808
:10869000F087B6FA86F329FA03F2D24391B229821F
:1086A00016401B3B002C40D0042BEED8DFE803F033
:1086B00039342E280300E368D5F82CA02BB19B6831
:1086C0001BB11FFA8AF1201D9847636A33B19B687A
:1086D00023B11FFA8AF104F11C009847E36B2BB118
:1086E0009B681BB11FFA8AF140469847636D002BC7
:1086F000CBD09B68002BC8D01FFA8AF1384603E024
:10870000E368696B5B68201D9847BEE7636AA96BE5
:108710005B6804F11C00F7E7E36BE96B5B684046BC
:10872000F2E7636D296C5B68E8E7042B06D8DFE8A5
:1087300003F00D0B09070300EB6A0193019BA4E70B
:108740006B6BFAE7AB6BF8E7EB6BF6E72B6CF4E7D8
:1087500090F84820531C0244DBB280F8483082F87D
:10876000341090F849200AB1132B01D953F0B0BF4F
:108770007047002280F8492053F0AABF70B5134D0E
:1087800095F8B83A002BFBD104464618B44204D100
:10879000002070BD01200DF0E0F8D5F8BC3AD5F806
:1087A000C02A0133C3F30A039342F3D0D5F8BC3A8D
:1087B00014F8012B2B4483F8C42AD5F8BC3A0133B2
:1087C000C3F30A03C5F8BC3AE0E700BF88190020EC
:1087D00038B50C461146FFF737FD48B1054D002A64
:1087E000D5F8CC3104DD2046FFF7C8FFD5F8CC31F1
:1087F00038BD00BF802A0020F0B590F8CF5590F822
:10880000CE1590F8D12590F8D03590F8CC7590F829
:10881000CDC501EB05218DB203EB022390F8D315F2
:1088200090F8D22585B002EB012207F01F06012146
:1088300092B29BB28E4204468DF808708DF809C042
:10884000ADF80A50ADF80C30ADF80E20C0F840215C
:1088500080F8111100F00C81022E00F01D81002E15
:1088600040F09B81BCF1090F5ED8DFE81CF0B60038
:10887000F4005D00C8005D0057000A005D00A9001B
:1088800076002E0A022EADF806200BD0032E25D03E
:10889000012E49D1D0F8EC351B68A0780DF1060106
:1088A000984709E0D0F8E43580789B6A0DF106011D
:1088B00098474670C4F8F005BDF80620002A47D056
:1088C000BDF80E30002B43D09A4228BF1A46ADF8AF
:1088D00006200146204653F0E9FD39E0E9B20529BA
:1088E00022D8DFE801F003070B0F1317D0F8EC359F
:1088F0005B68D2E7D0F8EC359B68CEE7D0F8EC3572
:10890000DB68CAE7D0F8EC351B69C6E7D0F8EC3570
:108910005B69C2E7D0F8EC359B69BEE71A4303D127
:1089200090F81231032B03D1204650F041FF0FE0A5
:10893000016905F07F0680F814610B6865F30A127F
:108940001A430A6053F0C6FD2EB1022384F8123197
:10895000002005B0F0BD0123F8E7E9B2904D0129F0
:1089600085F8D011E0D890F81231022B0FD0032BEC
:10897000DAD1C1B9022380F81231D0F8E43580F899
:1089800010115B689847204653F0A4FDE0E70029EA
:10899000F9D00121032380F8101180F8123120460C
:1089A00053F080FCEFE790F810110129EBD0D0F8DC
:1089B000E4355B68984795F8D01184F81011EEE71C
:1089C000012AB1D190F81231022B04D0032BABD184
:1089D00000F588717EE773497CE790F81231023B1D
:1089E000012BA1D86E4B0022C3F8D821D0F8182152
:1089F00012B10222C3F8D8216B4902226AE7012D85
:108A000008D1C0F81851D4F8E43502A99B68204673
:108A10009847B8E7022D9BD1DAB2002A98D10269B3
:108A20001B0A023B5268032B03D8DFE803F00C0E4D
:108A30001012012363F30612594BC3F8DC21012302
:108A400084F816319FE70223F4E70323F2E70423B7
:108A5000F0E70523EEE790F81231023B012B3FF6D9
:108A600063AF012D7FF474AF0023C0F81831CAE75B
:108A700090F81221032A7FF457AFDBB2012B3FF6A7
:108A800053AFD0F8E43502A99B689847BDF80E3083
:108A9000002B7FF45DAF76E707F06007202FD9B297
:108AA00005D1D0F8E43502A99B68984750E7BCF19E
:108AB000010F31D0BCF1030F1ED0BCF1000F7FF4C9
:108AC00047AF90F81221022A5AD0032A7FF42CAF24
:108AD00013F0800F4FF02802314B59D001F07F0185
:108AE00002FB010191F81E21002A4FD00122C3F898
:108AF000E0212E490222EDE690F81231022B3FD000
:108B0000032B7FF411AF002D7FF47DAF4A063FF4B5
:108B10007AAF53F0D3FB76E790F81221022A2FD0D8
:108B2000032A7FF401AF002D7FF412AF11F07F0014
:108B30003FF429AF5BB2002B4FF02802B5BF02FB18
:108B4000004102FB014101F58E7101F55D710022CA
:108B5000DB0F08708A704B7004EB8000C9786BB132
:108B60008269136802396FF3555301298CBFC3F32F
:108B70000071012161F31C73136044E7426DF0E75B
:108B80004B063FF4E5AE53F099FBE1E60022AEE779
:108B900002FB010191F87623A6E707F08001F2E7D6
:108BA000802A0020542C0020582C0020602C00200B
:108BB00010B5044671BB90F81131032B1BD1D0F8CE
:108BC0009023D0F87C339A4217D9C178012908BF85
:108BD000D0F88013A2EB030204BFC918C0F88013B9
:108BE000934228BF1346C0F890239BB2D0F880234D
:108BF000002153F01FFD002010BDD0F8E4351B69A3
:108C000023B190F81221032A00D19847204653F04F
:108C100061FCF0E7D0F8E4359B69002BEBD090F8CD
:108C20001221032AE7D19847E5E770B50A7812F0D8
:108C3000600406460D462AD0202C2FD1CC884B78D4
:108C4000FCB112060CD51F4922461846FFF7DEFB81
:108C5000EA881C49304653F029FC0024204670BDA8
:108C6000194A1360194A0323C2F80C4880F81131DD
:108C7000C0E9E444234602F50162002153F0DAFC26
:108C8000EBE7022211441846FFF7C0FBE6E74B78FA
:108C90000A2B08D00B2B0BD0062BDFD1304650F01F
:108CA00087FD0224DAE70A49012253F0FFFBD5E7EA
:108CB0008B781BB9074BC3F8E441CFE750F078FD40
:108CC000CCE700BF98210020000000208819002078
:108CD000642C0020802A002010B5282303FB01010A
:108CE000074AB1F88C1304461046FFF7D1FB204623
:108CF000034A4023012153F09DFC002010BD00BF1A
:108D0000682C002070B50F4DD5F83032044643B1C1
:108D100095F8342295F84832134302D1012153F0DB
:108D2000CDFA8121204653F0C9FA95F84832022B3A
:108D300007D12046044ABDE870401F23012153F0AB
:108D400079BC70BD802A0020A82C0020002310B51B
:108D500019460446402253F00CFB40228021204655
:108D6000002353F006FB012384F81231D4F8E835D0
:108D7000A0785B689847002010BD38B540220446B3
:108D80000223812153F0F5FA2046022340220121DB
:108D900053F0EFFA204603230822822153F0E9FA28
:108DA000084B0222002583F84B2083F84C50FFF734
:108DB00019FB01212046044A402353F03BFC28467E
:108DC00038BD00BF00000020682C002010B58121B4
:108DD000044653F0A5FA2046012153F0A1FA20469B
:108DE000822153F09DFAFFF709FB002010BD10B55A
:108DF0008121044653F094FA2046012153F090FA61
:108E0000024B002083F8490210BD00BF802A0020D9
:108E100070B5234D95F8B82A012A03462FD1214E6B
:108E2000D6F84C4214B985F8B84A24E0402C24D82E
:108E30000ABF0222A4B285F8B82AD5F8C01A1A4A85
:108E40000A44C3E9542240F201110022A3F844115C
:108E5000C3E9564203F5A271184653F052FBD5F808
:108E6000C03A2344C3F30A03C5F8C03AD6F84C32DB
:108E70001B1BC6F84C32002070BD4024DDE7022ADF
:108E8000F9D1002440F20112C0E95444C0E956442B
:108E9000A0F8442100F5A27153F033FBC3E700BFF3
:108EA00088190020802A00204C24002070B52B4E09
:108EB000D6F850320F2B03F1010203D0C6F850222E
:108EC000002070BD264D0023C6F8503295F8B83A00
:108ED000002BF5D1D5F8C02AD5F8BC3A9A42EFD08C
:108EE000D5F8C02AD5F8BC3A9A4295BFD5F8BC4A05
:108EF000D5F8C04AD5F8C03AC4F5006498BFE41A62
:108F0000402CC6F84C4221D9012385F8B83A4024B8
:108F1000D5F8C02A134B1344C0E9543340F2011270
:108F20000023C0E95643A0F8442100F5A27153F094
:108F3000E8FAD5F8C03A2344C3F30A03C5F8C03AA7
:108F4000D6F84C321B1BC6F84C32B9E70EBF0223D1
:108F50000123A4B285F8B83ADAE700BF802A0020DE
:108F6000881900204C240020064BD3F87C391A794C
:108F7000022A05D19A68920702D5586952F0DEBEDE
:108F8000704700BF8819002010B50A4CD4F87C093E
:108F900007F0E8FC58B9D4F87C090379022B08D112
:108FA00083689B0705D5BDE8104007F07DBE00BF74
:108FB000ECE710BD8819002073B50A4E441C00254B
:108FC000D6F87C09012300220DF1070153F0F6FBCE
:108FD0009DF80700FF2802D10135A542F0D102B06B
:108FE00070BD00BF8819002037B5044608200191E4
:108FF000FFF7E2FFFF2813D0FE2813D10A4D019B93
:10900000D5F87C090022214653F0D8FB0022D5F880
:109010007C090223114653F0D1FB002003B030BD80
:109020000120FBE70220F9E78819002037B5124D2F
:109030004FF6FF530024D5F87C09ADF8043001AA9F
:1090400002232146C5F8484953F0B8FB0120FFF739
:10905000B3FFFF2805D1042385F84C39022003B063
:1090600030BD092385F84C39044BD3F8CC31C5F811
:109070003C392046F3E700BF88190020802A0020F1
:1090800013B540F040038DF800300B0E8DF8013021
:109090000B0C8DF802300B0A8DF803309523044633
:1090A0008DF804108DF8053050F06AFB00B964B9F2
:1090B00007480623D0F87C096A46002153F07EFB5E
:1090C0000820FFF779FF02B010BDFF20FBE700BFCB
:1090D000881900202DE9F041194C1E4694F84C39AE
:1090E000042B0546884617461CD1FFF73DFF94F830
:1090F000423903BB69021120FFF7C2FFE8B905231B
:1091000084F84C390F4BC4F82889D3F8CC31C4F813
:109110002C59C4F83479C4F83869C4F83C390120B2
:10912000BDE8F081082B01D00020F9E7FFF77EFFB2
:109130000228F9D1D9E72946DDE7FFF725FFF3E754
:1091400088190020802A002038B500220D23342100
:10915000022009F01FFE234CC4F87C0910B984F8E2
:109160004C0938BD002107F035FA01200CF0F5FB61
:10917000D4F87C391C4D586907F091FDD4F87C393E
:109180001A4893F91030142202FB03000022D0F891
:10919000B0000A23114653F0C1FAD4F87C0907F055
:1091A000E1FB50B9124B84F84009D3F8CC31C4F834
:1091B0003C39012384F84C39D3E7013DEDD1D4F893
:1091C0007C09022107F006FAD4F87C0907F0D6F9E9
:1091D00094F84039C4F87C59013384F84C5984F828
:1091E0004039BEE788190020A18601000000002058
:1091F000802A002038B5134C0023A07BE0B12568FD
:109200008D4219D1104C03F581751AB904EB051480
:10921000A27138BD04F1180101EB43239A4209D130
:10922000831E5842584104EB051452F049FF0123B4
:10923000A371EEE70020F6E70133082B04F11004D8
:10924000DBD1E6E7DC770020C4670020174838B59B
:10925000002380F8A03000F1180425688D421ED14B
:10926000A57B032D1BD1124C03F581754AB904EB84
:1092700005140423A371D0F89C300133C0F89C304E
:1092800038BD04F1180000EB4320131A584258412E
:1092900004EB051452F014FF0123A371F0E701332E
:1092A000082B04F11004D8D1EAE700BFC4770020EE
:1092B000C467002070B50446144EFFF798FD2046A1
:1092C00002234022812153F054F8402201212046FC
:1092D000022353F04EF80025D6F8543286F849524E
:1092E0001B6886F8485228469847E06853F0C0F952
:1092F000E068012153F0D2F920461F2306F50A72D7
:10930000012153F097F9284670BD00BF802A002044
:1093100008B5002050F078FD002008BD2DE9F84385
:10932000089D0E46174600212022044698465AF012
:109330002DF84DB12B68E3811A0C6B682282E38211
:109340001A0C6B8922836382304653F033FBFB0691
:1093500004D400F1FF39B9F1FF3F41D1082802469A
:109360004FF0FF39A8BF082200254FF020332360BB
:1093700063603146204657F069FE234A228104F19A
:10938000080309F10101A27218462A46314457F038
:109390005DFE621E0346E01D12F8011FA1F161058A
:1093A000192D9CBF203911708242F5D1184604F165
:1093B0000B0210F8013BA3F1610119299CBF203B6E
:1093C00000F8013C9042F4D1182323734FEA18436C
:1093D000A382099BE772A4F81A80E361BDE8F883D1
:1093E00016F809302E2B02D009F1FF39B3E74A46AF
:1093F000A0EB0905082A05F1FF35A8BF0822032DB7
:10940000A8BF0325B1E700BF202020002DE9F04FC1
:10941000012085B00D461646994650F0F5FCB64F32
:1094200004352C1FB9F1000F06D1484650F0ECFC72
:10943000484605B0BDE8F08FD7F8A02AB24200F246
:10944000B780D7F8B0AAA6EB02084FEAD803DAF83B
:1094500030200233934208F0070803D3DAF83820AB
:10946000934218D95146184603934FF0F9FD039BD8
:10947000824670B9A5F1080305F5FC729F4943F8CF
:10948000041F9342FAD109F1FF39013605F5007541
:10949000C7E7C7F8B00A9AF80420002A6DD04FF445
:1094A00000720021204659F071FFDAF84030B8F11F
:1094B000000F47D1CDE9008805F11C0B43BB4346A3
:1094C0002046D7F88C1A0822FFF728FF5C464FF495
:1094D000F073DAF8448004EB030AB8F1000FD2D03D
:1094E0005445D0D098F80420D8F80010D8F830307F
:1094F00004F1200B08F11C00B2B30022CDE90002F8
:1095000011222046FFF70AFF5C46D8F84880E4E7BE
:10951000DAF830307A4911222046FFF7FFFEDAF8F8
:1095200040301A6C05F13C04CDE9008842B943464D
:10953000744911225846FFF7F1FE4FF4E073C8E773
:109540001B6BF5E7002B0CBF01220222C2EB0812B5
:10955000DAF84480B8F1000F03D0013AD8F8488017
:10956000F8D14FF40073B6E798F805C0D8F810208A
:10957000CDE900024CF02102C3E7DAF828B0BBF1D4
:10958000000F06D14FF400720021204659F0FEFE74
:1095900079E7DAF830209B1ADAF80C2008EBC308D8
:1095A00002EB482253464FF400712046D8476AE741
:1095B000002E64D14FF400723146204659F0E6FE89
:1095C000802385F8BA310C2385F8BE31D7F8902A6C
:1095D0004D49D7F8883AC4F8C6218A42C4F8CA313E
:1095E00018DDFF2285F8BB2185F8BD2185F8BC2157
:1095F000454A013B934228DDFF2385F8BF3185F8BA
:10960000C13185F8C031552385F8FA31AA2385F890
:10961000FB3138E73F2192FBF1F1C1EB811C43F6AE
:10962000C16492FBF4F4A2EB0C02A01020F03F0006
:109630000132024385F8BC21FF2291FBF2F2114472
:1096400085F8BD4185F8BB11D2E73F2293FBF2F2CA
:10965000C2EB821443F6C16093FBF0F01B1B811038
:1096600021F03F0101330B4385F8C031FF2392FB0A
:10967000F3F31A4485F8C10185F8BF21C3E7D7F891
:10968000943A9E4242D15223237063706123A370A7
:1096900084F8E731D7F8A83AC4F8E8314FF0000869
:1096A0004FF0FF3341227221E27084F8E41184F814
:1096B000E51184F8E62184F8EC3184F8ED3184F882
:1096C000EE3184F8EF314FF4F0724146284659F0FC
:1096D0005DFE5523C5F8EC81C5F8F081C5F8F4812D
:1096E00084F8FE316FF0550384F8FC8184F8FD8125
:1096F00084F8FF31C7E600BF88190020DEADBEEF59
:10970000C4250708C3250708FF03FB00D7F8903AD4
:109710009E426DD14FF400720021204659F036FE72
:10972000EB2305F8043C3B4A582305F8033C9023FF
:1097300005F8023C136845F8013C5368C5F803304E
:10974000022200234FF0080CF821E372227385F8FF
:1097500009C0A273E37369743F212A7321764FF025
:10976000FF31A1763E21D7F8900A2177D7F8881AE1
:1097700084F82C20091A2162D7F8980AD7F89C1A85
:1097800063760122091AE3766377A377E37784F897
:109790002D3084F82E3084F82F30616284F8302028
:1097A00084F83130802385F83C30292385F83E3019
:1097B000942385F83F300E2385F840300D2385F83B
:1097C0004130154B85F842C01A68C5F843205A68E5
:1097D000C5F847201A89A5F84B20104A9B7A85F8CE
:1097E0004D301368C5F84E305368C5F852300AE75B
:1097F000D7F8981AD7F89C3A8E4206D39E4207D2E1
:10980000711A20464FF050FC3DE69E42FFF4BAAE7E
:10981000F11AF6E76FF0060878F0060884F00608FB
:1098200013460A46014618463AF0E8B80E49D1F800
:10983000883043F47003C1F888300C4B1A6800205C
:1098400042F001021A6098601A6822F0847222F4D1
:1098500080321A60064A5A601A6822F480221A601E
:10986000D860044B8B60704700ED00E00038024088
:10987000103000240000000870472DE9F0414769CE
:1098800006468846002F59D10368C3F30D0515B36A
:10989000D8F800803568FEF787FC092840F08780FB
:1098A000444C236923F440732361236943F4007318
:1098B0002361236943F001032361C5F80080FEF7AB
:1098C00073FC2369092823F0010323616FD13368F6
:1098D0000433336032E0384A934229D302F58042A0
:1098E000934224D302F5804293422AD3334A9342CF
:1098F00029D902F58032934227D902F500329342EA
:1099000025D902F50032934223D902F50032934261
:1099100021D902F5003293421FD902F580229342E9
:109920001DD9B3F1016F1CD305200CF02BF80825CD
:10993000FEF73AFC092816D04FF0FF373846BDE84D
:10994000F0811025F4E71825F2E72025F0E7282517
:10995000EEE73025ECE73825EAE74025E8E748253B
:10996000E6E75825E4E7134C236923F440732361A9
:10997000236943F400732361236923F0F80323610F
:1099800023691D4345F002052561236943F48033B3
:109990002361FEF709FC236923F002032361236995
:1099A000092823F0F80323613FF472AFC4E76FF096
:1099B0000107C3E7003C024000400008FFFF000829
:1099C0000028ACBF00F16040064B4FEA0111ACBF6C
:1099D00000F5614000F00F00C9B2B4BF195480F81F
:1099E0000013704714ED00E02DE9F0479846414B15
:1099F000914603EB800205469468002C78D028330A
:109A0000636004F13E03A36104F59F73E3614FF4C7
:109A10008073C4E90433236894F83D00E160A363D4
:109A200009F017F8064694F8440294F83CA0271D64
:109A300008B150F07BFB94F8450208B150F076FB7A
:109A4000D4F840321BB12C4A116B0B43136318F04E
:109A5000080F2CD00135EDB21EB140F20673F38031
:109A6000357218F0100F94F846221AD002213046B1
:109A700008F0C4FED4F8481294F94702FFF7A0FF9B
:109A800094F9473294F84722002B07DB02F01F01BC
:109A900001228A405B09194941F823203846BDE874
:109AA000F08718F0200F14BF12213221DFE719F0E0
:109AB000020F0CD06B1CDBB21EB140F20652F280DA
:109AC000337294F846220221304608F097FE19F0CE
:109AD000010FCFD0504608F0BCFF0135EDB218B1F0
:109AE00040F20663C380057294F846220221BFE764
:109AF0002746D3E7CC4306080038024000E100E0E7
:109B00000148FEF7BABA00BF040100200148FEF781
:109B1000B4BA00BF500300202DE9F84F0268DFF807
:109B2000A4800646002358F833108A420BD1DDB2D8
:109B30000D2D0CD9204A0021052005F01DFE002422
:109B40002046BDE8F88F01330E2BECD1F2E71B4F16
:109B500007EB850A4FEA8509DAF858B2BBF1000F26
:109B60001AD10721642005F0D3FE0446CAF8580232
:109B700028B90146124A052005F0FEFDE0E76422FF
:109B8000594659F003FCDAF8583208EBC505C3E929
:109B90000053DB615B63DB644F447179D7F8584253
:109BA000182000FB014300221C46C3E903229E60EB
:109BB0001A750434C4E700BF8DF00608802A00201F
:109BC000B2F0060824440608704770B5002828D073
:109BD0004C684CB9426815685679AB8902229BB231
:109BE000B24023EA0203AB818A683AB943681D6830
:109BF000AB8923F001031B041B0CAB81816044B1D2
:109C00004468216864798D890223A3402B439BB269
:109C10008B8132B143681A6893899BB243F0010388
:109C2000938170BD0B4B30B51A4600241D798542D7
:109C300008D1DD68294203D0142000FB042030BD88
:109C40000029F9D001340D2C03F11403EED10020CA
:109C5000F5E700BF9805002038B503681B681C684D
:109C6000254B03F29C6393ED007A07EE902AB8EE41
:109C7000477AF8EE677A013987EE270A8DB2DFED71
:109C80001F7A30EE270A54F0CDFB1D4A2388013895
:109C9000944280B29BB212D002F5806294420ED000
:109CA000B4F1804F0BD0A2F58032944207D002F578
:109CB0008062944203D002F58062944202D123F084
:109CC00070039BB20F4A944206D002F58062944220
:109CD0001CBF23F440739BB22380094BE5629C4276
:109CE000208503D003F580639C4201D100232386A5
:109CF0000123A38238BD00BF000000200AD7233C07
:109D000000000140001000402DE9F0434568A879AB
:109D100010F0040300F002020BD00020174680462A
:109D2000042406466B79032B49D8DFE803F0094A7F
:109D300089C990464FF480701F461C460126F1E702
:109D40002D682B8C23F001031B041B0C2B84B5F80E
:109D500020C0B5F804902B8B23F073031B041B0C5D
:109D600043F0600E2CF0020C6E4B4FEA0C4C4FEAA5
:109D70001C4C48EA06069D421FFA89F94CEA060C7B
:109D800003D003F580639D420AD14FF6F3730CEACA
:109D900003033B4329F4407943EA040C40EA0909F0
:109DA000A5F80490A5F818E06963A5F820C02B8BEE
:109DB00023F008031B041B0C43F008032B83BDE8AE
:109DC000F0832D682B8C23F010031B041B0C2B84B9
:109DD0002A8CB5F804E0B5F818C0524B2CF4E64CC8
:109DE00022F020024FEA0C4C12044FEA1C4C120CD9
:109DF00048EA06069D421FFA8EFE4CF4C04C42EA29
:109E0000061203D003F580639D420BD122F080023D
:109E100042EA071222F040022EF4406E42EA041297
:109E20004EEA800EA5F804E0A5F818C0A9632A84BC
:109E30002B8B23F400631B041B0C43F40063BDE76E
:109E40002D682B8C23F480731B041B0C2B842A8C11
:109E5000B5F804E0B5F81CC022F400732CF0730CC4
:109E6000304A4FEA0C4C1B044FEA1C4C1B0C48EACE
:109E7000060695421FFA8EFE4CF0600C43EA06235C
:109E800003D002F5806295420BD123F4006343EACC
:109E9000072323F480632EF4405E43EA04234EEA52
:109EA000001EA5F804E0A5F81CC0E9632B84AB8B69
:109EB00023F008031B041B0C43F00803AB837EE76D
:109EC0002C68238C23F480531B041B0C2384258CC7
:109ED000A288A38B25F400552D0448EA06062D0C14
:109EE00023F4E64345EA06350E4E1B041B0CB44230
:109EF00092B243F4C04303D006F58066B44203D166
:109F000022F4804242EA8012A280A3832164258445
:109F1000A38B23F400631B041B0C43F40063A38393
:109F20004DE700BF0000014043685A79032A0FD86B
:109F3000DFE802F00205080B186834307047186833
:109F40003830704718683C307047186840307047A8
:109F50000020704710B543681A685879084B0344CD
:109F6000012093F8C840138CA0409BB223EA000361
:109F70001384138CA140194389B2118410BD00BF12
:109F8000CC430608F0B5EFF31184102383F3128855
:109F9000C5684668AA68136823F001031360326835
:109FA0007779104E938936F817609BB223EA06033F
:109FB00093812A696D681F2A4FF0200385BF203ADC
:109FC00093409340EB6098BFAB60E3B283F311889A
:109FD000C3689B6859601A6842F001021A60012345
:109FE0000374F0BDCC4306080268137D012B04BF47
:109FF0000223137592F82C100CBF4FF4007300234A
:10A00000012904BF022182F82C1092F8441008BFE5
:10A0100043F48063012904BF022182F8441092F8BE
:10A020005C1008BF43F4006301290DD1022182F8BE
:10A030005C1043F480534268116800224A628A89A6
:10A0400092B213438B8101E0002BF4D17047034B94
:10A050000348D3F85812FEF70ABB00BF802A00203D
:10A060000000014010B5064C0648D4F85812FEF71F
:10A07000FEFAD4F878120448BDE81040FEF7F7BAAB
:10A08000802A0020000001400040014010B5064C2D
:10A090000648D4F85812FEF7EAFAD4F87C120448BD
:10A0A000BDE81040FEF7E3BA802A0020000001401E
:10A0B0000044014010B5064C0648D4F85812FEF78B
:10A0C000D6FAD4F880120448BDE81040FEF7CFBAA3
:10A0D000802A00200000014000480140034B4FF05F
:10A0E0008040D3F85C12FEF7C2BA00BF802A00207D
:10A0F000024B0348D3F86012FEF7B9BA802A002059
:10A1000000040040024B0348D3F86412FEF7AFBAD4
:10A11000802A002000080040024B0348D3F8681250
:10A12000FEF7A5BA802A0020000C00400348D0F8B2
:10A13000AC3613B100F5D46018477047000000201A
:10A140000348D0F8CC3613B100F5D86018477047F3
:10A15000000000200348D0F8EC3613B100F5DC60B5
:10A1600018477047000000200348D0F80C3713B19F
:10A1700000F5E06018477047000000200348D0F861
:10A180002C3713B100F5E460184770470000002039
:10A190000348D0F84C3713B100F5E8601847704712
:10A1A000000000200348D0F86C3713B100F5EC60D4
:10A1B00018477047000000200348D0F88C3713B1CF
:10A1C00000F5F06018477047000000200348D0F801
:10A1D000AC3713B100F5F460184770470000002059
:10A1E0000348D0F8CC3713B100F5F8601847704732
:10A1F000000000200348D0F8EC3713B100F5FC60F4
:10A2000018477047000000200348D0F80C3813B1FD
:10A2100000F5006018477047000000200348D0F8A0
:10A220002C3813B100F50260184770470000002079
:10A230000348D0F84C3813B100F504601847704754
:10A24000000000200348D0F86C3813B100F5066018
:10A2500018477047000000200348D0F88C3813B12D
:10A2600000F508601847704700000020036823F0DD
:10A27000010303600023036043608360C3600361E4
:10A28000212343612A4B984203D13D2243F8082CF5
:10A290007047284B984204D14FF4746243F8202C45
:10A2A0007047254B984204D14FF4741243F8382C70
:10A2B0007047224B984204D14FF0746243F8502CFF
:10A2C00070471F4B984203D11E4A43F8642C7047D5
:10A2D0001D4B984203D11D4A43F87C2C70471C4B00
:10A2E000984203D11B4A43F8942C70471A4B98426A
:10A2F00004D14FF03D5243F8AC2C17E0174B984275
:10A30000C3D0174B9842C7D0164B9842CCD0164BAF
:10A310009842D1D0154B9842D6D0154B9842DAD0FE
:10A32000144B9842DED0144B9842E2D0704700BFE5
:10A3300010600240286002404060024058600240C5
:10A34000706002403D00002088600240400F002005
:10A35000A060024000003D20B8600240106402404E
:10A360002864024040640240586402407064024025
:10A3700088640240A0640240B86402402DE9F041C4
:10A380000022012603250B6806FA02FC3CEA0303BF
:10A3900031D10368540005FA04FE23EA0E0303607A
:10A3A0000B79D0F800806FEA0E0703FA04FE013B38
:10A3B0004EEA080E012BC0F800E011D883681F4058
:10A3C00087604B798768A3403B438360436823EAF7
:10A3D0000C0343608B79476893409BB23B434360D7
:10A3E000C36805FA04F723EA0703C360CB79C7689B
:10A3F000A3403B43C3600132102AC4D1BDE8F081C1
:10A40000204A936803F00C03042B10B520D0082BCE
:10A4100020D01D4B1B4C0360A3681C4AC3F30313DD
:10A42000134493F8A0180368CB404360A168C1F3BC
:10A430008221114491F8A01823FA01F18160A168EA
:10A44000C1F342310A4492F8A028D340C36010BD42
:10A450000F4BDFE75368516813F4800F01F03F01A1
:10A46000536814BF0A4A084AB2FBF1F1054A526820
:10A47000C2F30142C3F3881301324B435200B3FBD2
:10A48000F2F3C7E7003802400024F4000000002087
:10A4900040787D01F0B5446B8668A38923F40053AE
:10A4A0001B041B0CA3818279278A0546BFB21003C7
:10A4B00012F0040F4FEA022100F400506A7927F4E9
:10A4C000405740EA0700208214BF4FF4805C4FF0F1
:10A4D000000C12F0010F0CBF002304239207A28985
:10A4E00022F4B05201F4806122F00C0248BF43F024
:10A4F000080341EA0C0112040B43120C1A43A28117
:10A50000A38A23F440731B041B0C85B0A382684606
:10A51000FFF776FF214B9C4203D003F580639C42FA
:10A520003AD1039BA2891921170401FB03F34FF0D1
:10A5300064014CBF7600B600B3FBF6F3B3FBF1F059
:10A5400001FB10330201A08900044BBFDB001B019B
:10A55000323332334BBFB3FBF1F3B3FBF1F303F010
:10A56000070303F00F0313439BB223816A6BAB799C
:10A5700013F0080F938A0BBF23F008039BB21B0450
:10A5800043F0080308BF1B0C938293899BB243F4EA
:10A590000053938105B0F0BD029BC3E7001001405A
:10A5A0002DE9F8431E46204B9DF820509DF824705D
:10A5B0009842894690462CD13B462A463146002097
:10A5C000FFF712FA04460020C4E90700C4E90900B5
:10A5D000C4E90B986571A660A7712046FFF75AFF82
:10A5E000EA0707D5636B4FF6DF721A80DA6842F02C
:10A5F0002002DA60626BAB0742BFD36843F080038E
:10A60000D36093899BB243F4005393812046BDE805
:10A61000F883064B984204D13B462A463146012036
:10A62000CEE70024F2E700BF0010014000440040E4
:10A6300081602FE741712DE72DE9F043654F07EB6E
:10A64000C00985B005464FEAC00899F8B40808F07B
:10A6500000FA064699F8B50808F0FBF9044699F89F
:10A66000B6084FF063FD6B1CDBB21EB140F60C1256
:10A67000F28033721CB140F60C22E2802372042275
:10A680003A21304608F0BAF8204604223A2108F070
:10A69000B5F807EB0803D3F8B0484F4B9C4263D1A1
:10A6A00003F5F2331A6A42F400121A621A6A22F4AB
:10A6B00000121A62474497F8B738022B6ED0032B6A
:10A6C0006ED0464E464A012B08BF1646A78827F093
:10A6D0003F0768463F04FFF793FE3F0C029A414B49
:10A6E000B2FBF3F398B20743A780218821F0010160
:10A6F0000904090C21803C498E4253D13B4BB2FBEB
:10A70000F3F2013092B2042A80B238BF04222084CE
:10A71000A28323889BB243F001032380238823F480
:10A72000816323F002031B041B0C43F4806323802A
:10A730004FF480432381238823F080031B041B0CE8
:10A74000238023889BB243F001032380284B03EB33
:10A750004513012283F89122002283F8905283F856
:10A76000922205B0BDE8F083224B9C4209D103F54B
:10A77000F0331A6A42F480021A621A6A22F48002E2
:10A7800097E71D4B9C4295D103F5EE331A6A42F4CC
:10A7900000021A621A6A22F400028AE7124E95E752
:10A7A000124E93E706EB4606B2FBF6F291B2C2F305
:10A7B0000B020AB941F0010141F400424FF49671D5
:10A7C0004B434FF47A71B3FBF1F301339BB2238413
:10A7D0009EE700BF0000002000540040801A0600E1
:10A7E00000350C0040420F00A0860100400D030020
:10A7F000802A002000580040005C00402DE9F0470E
:10A80000B74D460105EB40190BF068F899F9902215
:10A81000B44B8846D10003EBC2020746D2F8B048D9
:10A8200099F89222013A142A00F28380DFE812F0AC
:10A83000790089009F00B700C200CC00D500EA0073
:10A84000F5000A01150164017D01A301060217024A
:10A85000290232024302670215005F184FF0090A0D
:10A8600097F8B40808F0F5F8044697F8B50808F02A
:10A87000F0F8B5F8F03201339BB207462046A5F850
:10A88000F03206F00CFA384606F009FA112120469B
:10A8900007F08AFF1121384607F086FF4FF0650860
:10A8A00003E0052000210BF047F8204606F0EEF902
:10A8B00010B9B8F10108F4D1204607F0B5FE002127
:10A8C00005200BF039F8204606F0E9F905200021B3
:10A8D0000BF032F8BAF1010AE0D1204607F0A4FEED
:10A8E000002105200BF028F8384607F09DFE0021D6
:10A8F00005200BF021F8204606F0D1F905200021B3
:10A900000BF01AF8384606F0CAF9AB1993F9900221
:10A91000431C01D0FFF790FEAB19002283F892226E
:10A9200007E0238813F4007340F02381AA1982F80A
:10A930009232AB1993F89232002B7FF465AFBDE8E9
:10A94000F087238823F400631B041B0C23802388D7
:10A950009BB243F48063238023889BB243F48073CB
:10A960002380AB19C3E9A678032283F892225E49BB
:10A970002046FDF72AFCAB19002855D093F8A222F7
:10A980005AB993F8A322FF2A04D193F8A0220AB15E
:10A990000A22C3E7AB190422C0E70F22BEE7AB19B6
:10A9A00093F8A12202F0FE022282C3E9A6780522D2
:10A9B00083F892224D492046FDF707FC002800F05D
:10A9C0007081AB190622A9E7AB1993F8A322228262
:10A9D000C3E9A678072283F8922245492046FDF76D
:10A9E000F4FB002800F05D81AB19D3F8A4223AB93A
:10A9F000228892B242F400722280C3E9A6780EE166
:10AA000008228BE723889BB243F480732380AB1921
:10AA1000C3E9A678092283F8922233492046FDF73C
:10AA2000D4FBAB190028B3D1D3E9A60142F21072CE
:10AA3000381A68EB0101904271F10002FFF479AF1E
:10AA400015226BE7AB1993F8A12242F00102228292
:10AA5000C3E9A6780B2283F8922226492046FDF707
:10AA6000B4FB002800F01D81AA19D2F8A432012BF2
:10AA70001AD1238823F480631B041B0C2380EFF37B
:10AA80001181102383F31288238B23889BB243F414
:10AA900000732380CBB283F311880C2382F89232A7
:10AAA000AB19C3E9A67844E7022B15D123889BB2E2
:10AAB00043F400632380EFF31181102383F31288A2
:10AAC000238B238823F480631B041B0C2380CBB2CD
:10AAD00083F311880D23E1E7238B0E23DEE700BF0C
:10AAE000802A0020000000200100030082000700EF
:10AAF000840007000200030086492046FDF770FB32
:10AB0000AB19002890D0D3F8A822511CC3F8A81282
:10AB1000218A1170D3F8A422013AC3F8A422012299
:10AB2000C3E9A67883F8AC22F8E67B492046FDF716
:10AB300057FBF0B1EFF31182102383F312882388BF
:10AB40009BB243F400732380AB19D2B2D3F8A8129E
:10AB5000481CC3F8A802208A087082F31188D3F831
:10AB6000A822511CC3F8A812218A11706FF00102AB
:10AB7000D3E7AB1958E768492046FDF731FBAB191D
:10AB800000283FF451AFD3F8A422032A03F526711D
:10AB900030D1228822F480621204120C2280EFF35A
:10ABA0001180102282F31288D3F8A82202F1010C3E
:10ABB000C3F8A8C2B4F810C082F800C0228892B2CC
:10ABC00042F400722280C2B282F31188D3F8A82224
:10ABD000501CC3F8A802208A1070D3F8A422023AAD
:10ABE000C3F8A4220C2283F89222C3F89872C1F809
:10ABF00004809EE6022A14D8228822F4806212047D
:10AC0000120C2280228892B242F400722280228AA0
:10AC1000C3F89872002283F8AC22C1F804800122A4
:10AC20007CE6D3F8A822501CC3F8A802208A107032
:10AC3000D3F8A422013AC3F8A422D6E7238823F448
:10AC400080631B041B0C2380AB1993F8A12202F034
:10AC5000FE022282C3E9A678102283F892222F49AD
:10AC60002046FDF7B2FAE0B1AB1993F8A322FF2A10
:10AC700004D193F8A0220AB113224FE6AB19112296
:10AC80004CE6AB1993F8A3222282C3E9A6781222DC
:10AC900083F8922222492046FDF797FA08B1AB19B2
:10ACA000EAE720492046FDF79BFAAB1900283FF45C
:10ACB000BBAE142232E6AB1903F52670D3F8A422FA
:10ACC00082B1D3F8A812013A11F801CBA4F810C050
:10ACD000C3F8A422C3F89872C3F8A812C0F804807D
:10ACE00012221BE6228892B242F4007222800122D4
:10ACF000C3F8987283F8AC22C0F804800EE623886B
:10AD00009BB243F4007323804FF6FF33A382AB1949
:10AD100073E600BF4000001004000010820007002E
:10AD2000840007000004001038B5114C04EB4014F7
:10AD300094F89152D5B1C4F8A432049BC4F8A83257
:10AD4000002384F8AC320223490084F8A32284F85B
:10AD5000923201229DF8143084F8A11284F8A222C4
:10AD600084F8A032FFF74AFD94F8AC52284638BD6B
:10AD7000802A002038B5114C04EB401494F891520D
:10AD8000CDB1C4F8A432049BC4F8A8320223490010
:10AD900084F8A32284F8923200229DF8143084F8BB
:10ADA000A11284F8A22284F8AC2284F8A032FFF722
:10ADB00025FD94F8AC52284638BD00BF802A0020FB
:10ADC000F0B587B0002300930193744B1A6842F4E6
:10ADD00080321A601A6802F400320192009A01323D
:10ADE0000092019A1AB9009AB2F5A04FF2D11B68ED
:10ADF00013F4003318BF01230193019B012B40F092
:10AE0000B180664B66491A6C42F080521A640A6837
:10AE100042F440420A609A689A609A689A609A6816
:10AE200042F480529A605F4A5A601A6842F0807217
:10AE30001A601A689201FCD55B4A40F202711160F7
:10AE40009A6822F003029A609A6842F002029A60BD
:10AE5000524A936803F00C03082BFAD19368534CC1
:10AE600003F00C03042B7FD0082B7FD0504BC4F889
:10AE70009C364A4B4F4D9A684F48C2F30312224406
:10AE8000002692F8C818D4F89C26CA40C4F89C261C
:10AE90004A4AEA605A6F4A4AAA605A6B22F0800214
:10AEA0005A635A6F42F080725A67196B454A0A43D7
:10AEB0001A635A6B5A631A6C42F0875242F4F612C4
:10AEC00042F41F6242F00F021A64596C3E4A0A4370
:10AED0005A6402A948F2FF73CDE902364FF6FF77B4
:10AEE000FFF74CFA00F580600297FFF747FA00F58C
:10AEF00080600297FFF742FA00F58060FFF73EFAA4
:10AF000000F58060FFF73AFA0846FFF779FA029BEE
:10AF10002E4AB3FBF2F32E4AC2F8F432D5F8FC30D5
:10AF20002C4A43F08073C5F8FC302B4BC3F8B02F8C
:10AF30005E601A6842F001021A60D4F89C364FF441
:10AF40007A72B3FBF2F3013BB3F1807F08D24FF08A
:10AF5000E0225361F02385F82330072396611361C3
:10AF600007B0F0BD00BFFDE71C4B80E75368516898
:10AF700013F4800F01F03F01536814BF174A0C4AC5
:10AF8000B2FBF1F1054A5268C2F30142C3F38813E0
:10AF900001324B435200B3FBF2F368E70038024042
:10AFA0000070004019304004003C024000000020C6
:10AFB0000024F40000ED00E0000002400003FA0568
:10AFC000000000081F9067003357070040420F0041
:10AFD000802A002055CEACC5001000E040787D01ED
:10AFE00082B000230193054B0193019B03EB80008A
:10AFF0000190019B196002B0704700BF50280040CB
:10B0000082B000230193054B0193019B03EB800069
:10B010000190019B186802B0704700BF50280040A3
:10B0200010B51C2007F015FD1121044607F0BCFBEC
:10B03000204607F0F9FAC8200AF08FFC2046BDE848
:10B04000104005F02CBE436D064A1A61C278012AF1
:10B0500006D100F2CC5058611A684FF080221A6075
:10B06000704700BF1800086038B5044600296FD14A
:10B0700090F81131022B2AD1D0F83821D0F82411C0
:10B080008A4232D9C378012B04BFD0F828315B182B
:10B09000A2EB010208BFC0F828314FF48071D0F84C
:10B0A0002831C0F83821002592B2A0F81C11C0F850
:10B0B0002C31C0F83451C0F8302100F58E7151F0B8
:10B0C000A3F92B462A462946204651F0B3FA94F8B4
:10B0D0001631012B07D1244A2369D2F8DC215A60AA
:10B0E000002384F81631002038BDD0F83C31B3FB82
:10B0F000F1F501FB1535A5B9994212D8D0F84021D8
:10B1000093420ED24FF48073C0E94A55C0E94C55C2
:10B11000A0F81C3100F58E7151F076F9C4F8405159
:10B12000CFE7D4F8E435DB682BB194F81221032A79
:10B1300001D120469847052384F811310023204689
:10B140001A46194651F076FA2046FFF77CFFBEE713
:10B15000D0F8E4355B69002BC5D090F81221032AA2
:10B16000C1D19847BFE700BF802A002070477047D1
:10B17000704710B5114C94F80233CBB14FF0E02278
:10B18000D2F8103D23F00603C2F8103DFEF74EFB47
:10B1900094F8023363B1D4F808339B68DB0707D512
:10B1A000D4F80424136823F0030161F30703136048
:10B1B000034B4FF480225A6110BD00BF802A00204B
:10B1C000003C01402DE9F04F974CD4F804335A6904
:10B1D000D0078DB000F1A4825A699B691340019396
:10B1E00000F09E82C3F307430293019B190311D51C
:10B1F000D4F80833DFF83C929E69DB6904F53E7BA6
:10B200001E40360C04F553774FF00008DA46002E46
:10B2100040F01681029B5A070FD5D4F80833834EAD
:10B220009F69DB691F40BFB2A6F118054FF0000906
:10B23000A6F54478002F40F04881019B9DF80470EA
:10B24000980741BF784BD3F8043302225A61019B1F
:10B25000002B1BDA744D95F802333BB1D5F804246A
:10B26000136823F0030161F307031360D5F8082383
:10B270006F48536823F0010353606E4BD3F8F038E6
:10B280009847D5F804334FF000425A61019B1905E5
:10B29000C3F3072631D5644D00238DF81F3095F890
:10B2A0000A348DF81F30634B05F53E70D3F8EC3847
:10B2B0009847D5F80423D5F808334FF400619B680C
:10B2C000516195F80223C2B1DA0716D595F80D340D
:10B2D000012B12D19DF81F30032B0ED1D5F8043469
:10B2E0001A6842F001021A601A6842F003021A60FA
:10B2F000514A136943F0060313613B070AD54A4DCF
:10B300004C4B05F53E70D3F8E4389847D5F8043334
:10B3100008225A61FD0615D5434BD3F80403826910
:10B3200022F010028261026AC2F34341022902F054
:10B330000F0500F08681062900F0AA81836943F099
:10B3400010038361F00637D5374DD5F80823D5F8BB
:10B3500004035368002723F001035360394651F07A
:10B360009DF9B84695F8F9023B4605F54475FF216D
:10B370008342C0F09B81D4F808332D484FF0FF3250
:10B380009A614FF00112DA610B2262F3070762F350
:10B3900007085F61C3F810801A686FF30A121A6019
:10B3A000FFF751FED4F8043321484FF480525A611C
:10B3B000204BD3F8E8389847B10640F193811A4CF6
:10B3C000D4F80833D4F8100399680268C1F3410136
:10B3D000022906BF032161F30A026FF30A02026029
:10B3E0005A6842F480725A6008A8FFF709F8D4F846
:10B3F0000413D4F80803CB68099A6FF38D23CB604C
:10B4000085680E48C5F34105284490F8CC00032810
:10B4100040F05381002284F8FA224FF40072A4F81D
:10B42000FC22092258E100BF802A0020902D002034
:10B43000782D00200000002000ED00E0CC4306083D
:10B44000F2073BD55FFA88F104EB8103D3F84C3364
:10B450009D68D4F808335B691D40EB0720D594F84C
:10B46000FB023B680125A8429D6007D11869DBF803
:10B470007C33C0F312001B1ACBF88C33D9F8D838C0
:10B480005046984794F8FB32012B09D1B8F1000FD0
:10B4900006D194F80934052B02D15046FFF7D3FDAD
:10B4A000A80742BF3B6802259D60290706D5D9F849
:10B4B000E038504698473B6808229A6008F1010836
:10B4C000760804370BF1280BA1E6FB0779D5D8F8ED
:10B4D00008335FFA89FA1969586B08EB8A0220FA77
:10B4E0000AFBD2F810234FEACB1B92685FFA8BFB62
:10B4F0004BEA010B0BEA020B1BF0010F1ED05A6B3B
:10B50000A8484FF0010B0BFA09F122EA01025A6335
:10B510003368C3F808B0A44B5146D3F8DC389847D9
:10B5200098F8FB325B4509D1B9F1000F06D198F8C4
:10B530000934042B02D19B48FFF785FD1BF0080F4F
:10B540001EBF33684FF0080BC3F808B01BF0100F94
:10B550001EBF33684FF0100BC3F808B01BF0400F4C
:10B560001EBF33684FF0400BC3F808B01BF0020F4A
:10B570001EBF33684FF0020BC3F808B01BF0800FFA
:10B580001FD0D5E94C329B1AD5F82421D6F800E01B
:10B5900098F8FBB2DEF81800934228BF1346033335
:10B5A000D8F8082303929B080AF1320A049308EBA7
:10B5B0008A0A049B80B2984203D9D5E94C03984289
:10B5C00005D809F101097F080436283532E6C01A8A
:10B5D000D5F82431984228BF1846C31C9B08049311
:10B5E000BBF1000F1BD0D5F82811D5F83421014448
:10B5F000C5F82811D5F8301102448A42DEF8180047
:10B60000C5F83421D5D1039B95F81C115A6B012341
:10B6100003FA01F1039B22EA01025A63C9E782B2ED
:10B62000DAF80013D5F828C10332931005930A46BF
:10B630005946059B8B42D6D05CF82130136001310E
:10B64000F7E747F6F07111423FF478AE282101FB8D
:10B650000531C2F30A12D71CD3F8C8E3D1F878C673
:10B66000BF1000218F420DD1282101FB0533D3F8F3
:10B6700078161144C3F87816D3F884160A44C3F830
:10B6800084265BE6DEF800804CF821800131E9E792
:10B69000D3F8C8130F68C3F8C4780968C3F8C8188A
:10B6A000282101FB0533C2F30A12E5E755F8042B04
:10B6B0009160AA6B013391605AE6012084F8FA0286
:10B6C0004020A4F8FC02A0F56400384CA0F56240CC
:10B6D0001044A04227D80E2262F38D23CB604FF492
:10B6E00000534B61029BDA060BD5314C2E4B04F50F
:10B6F0003E70D3F8F4389847D4F804334FF48012EE
:10B700005A61029B9B060BD5294C274B04F53E70D2
:10B71000D3F8F8389847D4F804334FF400125A613C
:10B720000DB0BDE8F08F234CA2F57400A0F51050C9
:10B73000A04201D80D22CFE71F48204C1044A04260
:10B7400001D20C22C8E71E4CA2F18C70A0F5434038
:10B75000A04201D80B22BFE71A481B4C1044A0425C
:10B7600001D20A22B8E71948194C1044A042FFF44C
:10B7700058AE184CA2F1B770A0F55850A04201D2B3
:10B780000822A9E71448154C1044A04201D2072210
:10B79000A2E713481044134A904234BF0622052200
:10B7A0009AE700BF782D0020000000203F420F00E4
:10B7B000802A0020DFC810002013FBFE20D61300D3
:10B7C000FF69180000D3CEFE40771B00C05BB3FEBC
:10B7D000C091210040AC2700C01D6AFE40E133004B
:10B7E000803C36FEE09C4100034BD3F8780908B159
:10B7F00005F04CBA012070478819002008B5FFF702
:10B80000F3FF0A4A18B9002382F84C3908BD92F8B0
:10B8100040390133DBB2072B82F84039F3D8044BAF
:10B82000D3F8CC31C2F83C390123EDE78819002068
:10B83000802A00202DE9FF47CC4CD4F87C09002851
:10B8400067D0CB4DCB4E04F6681794F84C39013BCA
:10B85000082B46D8DFE813F009006000EC00450033
:10B86000C4014B01A0014500FF01FDF77DFB002154
:10B870000846FDF705FC8046FDF786FBB8F1010F91
:10B880002AD14FF0000984F84199FDF76DFB40F291
:10B89000AB110820FDF7F4FB05280AD184F8418993
:10B8A000FDF772FB94F84139A3B1022384F84C39B7
:10B8B000CBE70128F4D10423D4F87C094A46694631
:10B8C00050F07CFF9DF80330AB2B04BF022384F8BB
:10B8D0004139E5E784F84C39D4F87C09022104F0B9
:10B8E00079FE94F84C39013B022B09D8A04BD4F8CF
:10B8F0003C29D3F8CC319B1AC82B01D9FFF77EFF26
:10B9000094F84C09042800F0B681A0F108035842CD
:10B91000584104B0BDE8F087FDF726FB94F84139A3
:10B92000022B0CBF4FF080484FF000080021372059
:10B93000FDF7A6FB41462920FDF7A2FB8046FDF757
:10B9400023FBB8F1000FC7D194F84139022B39D14C
:10B95000FDF70AFB41463A20FDF792FB042381469E
:10B960004246D4F87C09694650F028FFFDF70CFBED
:10B97000B9F1000F02D0FFF741FF66E7009B1BBA49
:10B98000C3F3807384F84239FDF7EEFA00210920F1
:10B99000FDF776FB98B910213846FDF725FB814667
:10B9A00068B901217F204DF0CBFE0128804606D1E9
:10B9B000022148464DF0C4FE38B101282CD0FDF7D5
:10B9C000E3FA89E784F84289DEE704212C204DF070
:10B9D000B7FE032182464E204DF0B2FE0C21814677
:10B9E00036204DF0ADFE09F10202411C01FA02F2CF
:10B9F00008FA0AF3A2FB03385B0A43EAC853C4F807
:10BA00005039FDF7C1FAFDF7AFFA00210A20FDF722
:10BA100037FB50B9032349E716213A204DF090FE39
:10BA200001308002C4F85009EBE7FDF7ADFAA2E758
:10BA300010216846FDF7D8FA00287FF44DAF9DF835
:10BA4000003084F85639BDF801305BBAA4F8543997
:10BA50009DF8033084F857399DF8043084F858393C
:10BA60009DF8053084F859399DF8063084F85A3924
:10BA70009DF8073084F85B399DF808301A0903F007
:10BA80000F0384F86139DDF8093084F860291BBAA6
:10BA9000C4F85C399DF80D309DF80E201B01DBB217
:10BAA00043EA121303F5FA6302F00F02A4F86239B5
:10BAB00084F86429FDF768FA94F842394BB1D4F858
:10BAC0007C09022104F086FD0023C4F848390423D0
:10BAD000ECE6FDF749FA4FF400711020FDF7D0FABB
:10BAE0008046FDF751FAB8F1000FE8D043E794F82B
:10BAF0003019D4F82829D4F87C09802302EBC1122C
:10BB0000002150F05BFE94F830390133DBB2042B96
:10BB100084F830397FF4E5AED4F87C09022332464C
:10BB2000002150F04BFE0123D4F87C090022694625
:10BB300050F044FE9DF8003003F01F03052B1BD18D
:10BB4000072384F84C390A4BD4F83459D3F8CC3154
:10BB5000C4F83C39002D3FF4C4AED4F83839D4F8D9
:10BB60002829D4F82C190120A847BAE68819002002
:10BB7000802A00209C440608FFF740FED4F8348950
:10BB8000B8F1000F3FF461AED4F83839D4F82C196D
:10BB900000220120C04758E64DF0F2FD002861D098
:10BBA000002384F84039D4F84839012B0BD9013BE4
:10BBB000C4F84839D4F844390133C4F84439082367
:10BBC00084F84C398DE607D1FDF730FA02287FF46E
:10BBD00088AEFDF7D9F984E6042384F84C39F8E7F8
:10BBE000D4F828094FF40071FDF7FEF901288046CA
:10BBF00018D002281ED000287FF473AEFDF7C4F9D8
:10BC0000D4F8345984F84089042384F84C39002D41
:10BC10003FF467AED4F83839D4F82829D4F82C1971
:10BC20004046A1E7D4F83C39D5F8CC21643393429F
:10BC3000BFF457AEFDF7A8F9FFF7E0FDD4F834895B
:10BC4000B8F1000F3FF401AE0022D4F83839D4F82F
:10BC50002C1910469EE74DF093FD18B1FDF794F9AD
:10BC60000423ADE7D4F83C39D5F8CC21FA3393421C
:10BC7000FFF481AE35E601204BE62DE9F341294C76
:10BC800005460E4690461F4694F84C39042B0BD0BF
:10BC9000082B07D1D4F84439AB4219D0FDF7C6F9C7
:10BCA0000228F1D001200EE0FDF75EF994F8423948
:10BCB00063B969021820FDF7E3F948B1FDF764F9AB
:10BCC000FFF79CFD032002B0BDE8F0812946F1E7B3
:10BCD00094F84C39D4F87C09082B0CBFFC23FE23C4
:10BCE000FF228DF804208DF8053001AA02230021DF
:10BCF00050F064FDD4F87C0980233246002150F0D6
:10BD00005DFD012384F830390623C4F82869C4F89E
:10BD10002C59C4F83489C4F8387984F84C39002097
:10BD2000D1E700BF8819002070B51C4C94F84C393D
:10BD3000042B05460E4610D1FDF716F900213720D9
:10BD4000FDF79EF931461720FDF79AF990B1FDF7FE
:10BD50001BF9FFF753FD032002E0082B01D001205F
:10BD600070BDD4F84439834214D0FDF75FF902283E
:10BD7000F5D1E1E794F8423973B969021920FDF76A
:10BD80007FF90028E3D1082384F84C39C4F84869C6
:10BD9000C4F844590220E3E72946EFE78819002058
:10BDA000034BD3F8EC0808B103691847704700BF8C
:10BDB000802A002008B500204EF026F8084B094ADA
:10BDC00003F60411C2F8EC18D3F804399847FFF7CA
:10BDD000E7FF0028FBD001204EF016F8002008BD38
:10BDE00000000020802A002008B5FFF7D9FF80F06E
:10BDF0000100404240B208BD2DE9F84FDFF8408015
:10BE00000E4617461D460024A54202DC0020BDE870
:10BE1000F88F06EB442A04EB0709D8F8EC3803B98D
:10BE2000FEE7D3F804B000231A4651464846D847E7
:10BE30000028F2D0FFF7B4FF0028FBD00134E3E77D
:10BE4000802A00202DE9F84FDFF844A00E46154661
:10BE50001F460024A74218DD06EB442905EB040821
:10BE600001E0FFF79DFFDAF8EC3843B1D3F80CB0EE
:10BE700000231A4649464046D8470028F1D1FFF72B
:10BE80008FFF0028FBD00134E4E70020BDE8F88FE5
:10BE9000802A0020034BD3F8EC0808B14369184707
:10BEA000704700BF802A0020034BD3F8EC0808B18C
:10BEB00083691847704700BF802A0020034BD3F8DE
:10BEC000EC0808B1C3691847704700BF802A0020FA
:10BED00038B50D461446FFF7F1FF03682B604FF4A9
:10BEE00000732360002038BD034B1B78032B0CBF6D
:10BEF00080204FF480707047C467002008B50B4A5B
:10BF000068B1816811B10723937008BDFFF7ECFF9A
:10BF1000C2E90311C2E9010011750423F4E702F537
:10BF20008051012381F8B4315370EEE7C4670020DB
:10BF300010B502784368022A0B4A06D1D2E9800183
:10BF400000EB410000EB532010BD0169D2F818024C
:10BF5000D2F8104218400239D2F80C32400A04FBE1
:10BF600001001844F0E700BFC4770020074B1B789E
:10BF7000022B0BBF030AC0F3D413C0B200F07F0042
:10BF80000CBF0B600B601060704700BFC4670020DF
:10BF900090F91A305A1C0AD003F58172124B03EB48
:10BFA0000213DA796FF30002DA71FF23837690F9D6
:10BFB0001B104B1C16D00C4A01F5817102EB0113CA
:10BFC00002EB0112DB79D179C3F34503012B86BF64
:10BFD00003F1FF3303F03F03002363F34601FF2324
:10BFE000D171C376704700BFC467002008B5FFF762
:10BFF0007BFF034BD3F810325843400208BD00BF0B
:10C00000C47700200378022B09D10D4BD3F82022EE
:10C010004368B3EB422F2CBF01200020704700691A
:10C0200060B1084B1B78032B0EBF074B80B24FF655
:10C03000F773984294BF0020012070470120704799
:10C04000C4770020C4670020F7FFFF0FF7B50D4647
:10C050004168C1F308032B44B3F5007F044603D2C3
:10C060002944616001202EE0FFF792FF0378022B44
:10C0700001D16168F4E7164BD3F81022B5EB422FDB
:10C080004FEA422721DCD3F8183246681E4073423B
:10C09000AB421ADCAB19BB4210D30169007E01AA86
:10C0A00050F0E2F8012810D123696361019B2361FC
:10C0B00063683B449B1BED1B636035442046FFF7E0
:10C0C000A1FF0028D5D003B0F0BD0020FBE700BFE2
:10C0D000C477002070B504460E461546FFF7B6FF3C
:10C0E00020B10DB12046A847012007E094F82800B0
:10C0F000022320B9C4E90B5684F8283070BD1846D5
:10C10000FCE7054A92F8B411012309B982F8B43169
:10C11000024A5370704700BFC4770020C4670020F4
:10C1200008B5074BC31A48BF03F2FF13B3F5805F8E
:10C130004FEA632003D3FFF7E4FF4FF0FF3008BD61
:10C14000DC6700202DE9F74F12F0020B0191174632
:10C1500000F0D180002840F0CE80FFF7D2FF022609
:10C160006EE04FF0FF36DFF8C4C1DFF8ACA1B64691
:10C170003446B1460025DCF800109CF80E80884259
:10C180001BD1B8F1000F00F09880D2F89840624EB1
:10C190000134C2F8984005F581721201B4502C4662
:10C1A0005D4D04F5817805EB08129679042ED4D8FC
:10C1B000DFE806F0315DB05D6700B8F1000F26D012
:10C1C000B8F1010F14D105F581780AEB081898F839
:10C1D000078018F0010F0BD118F07E0F08D15FEA2D
:10C1E000D81116D1DCF80880C14501D9AE46C14648
:10C1F0000135082D0CF1100CBDD1751C79D1611CD5
:10C200005CD1BEF1FF3F00F08580744656E02E46BB
:10C21000EEE72C46ECE717F0010215D03F4BD3F8C0
:10C22000EC38002B76D03E495F683E4A002301EB94
:10C230004421B84700286DD005EB08150223AB71E7
:10C24000304603B0BDE8F08F05EB0810FE1090F803
:10C2500007C0032B66F3C71C80F807C02BD94FF625
:10C26000FF72934228BF134605EB08129380BBF17F
:10C27000000F06D005EB041000F580501830FCF7D5
:10C280003FF97A0741BF05EB0812D37943F0010368
:10C29000D371FB0608D505EB0815EB79C3F345020E
:10C2A000013262F34603EB711D4B019A03EB442309
:10C2B00013600126C4E71346D6E72C46164E41F21A
:10C2C000180506EB041C4CF80500D2F8985001350F
:10C2D000C2F8985041F21C024CF8025004F58172E9
:10C2E0004FEA021C06EB021246F80C50002555607E
:10C2F00056E73446E2E70C4AD2F80862002E3FF4D3
:10C3000030AFD2E9834505FB0644A042FFF429AFD4
:10C31000FFF7F7FE002693E7C4670020802A00207D
:10C32000DC670020F5910008C4770020DC7700204E
:10C330007FB50F4D01AA0C4602A9FFF717FE05F5C0
:10C340008053029ED3F800020322002303A9304445
:10C35000FFF7F8FE012808D12978039B019A0229EA
:10C360000CBF23F8124043F8224004B070BD00BF58
:10C37000C46700202DE9F0470D4686B0164604A993
:10C3800003AA07462868FFF7F1FD364A0499D2F858
:10C39000003201EB0308039B013B9C19FFF7A4FD4E
:10C3A0002B68E41A0444A2F5805AB4FBF0F408EBBD
:10C3B00004092968B142A9EB080303D3012006B0A0
:10C3C000BDE8F087039A0193FFF78EFD9419641A74
:10C3D0008442019B28BF0446002A35D1A04294BF65
:10C3E0000A220B2205A94046FFF7ACFE0128E6D140
:10C3F0009AF800002A680599039B022802F10102BD
:10C400002DD1A34222D32B68039A9B1A2344012FD8
:10C410002B6014D1B34212D102280BBF04F10044A7
:10C4200004F1804304F1FF3403F1FF330BBF4FF6F7
:10C43000FF734FF0FF3221F8143041F8232000231E
:10C4400008F101080393B4E70B22CBE721F813208E
:10C4500001330132D5E741F8232001330132A342F1
:10C46000F9D3D0E7C47700202DE9F04F85B083469B
:10C47000FFF73AFD0C461646814601AA206802A93C
:10C48000FFF774FD0BF1FF33012B68D9019B63B9F2
:10C490004D46DFF8D080BBF1010F8CBF4FF0000B91
:10C4A0004FF0010BA8F5805A1BE0FFF72AFE02208F
:10C4B0002AE0D8F87821C2B1D8F89401884214D182
:10C4C000D8F81032013A590202EB4323B3FBF1F3DF
:10C4D0000344B3FBF5F205FB12320AB12B449B1A5D
:10C4E00023602168B142E4D329E0D8F80002029F1A
:10C4F0000023092203A93844FFF724FE012806D0AF
:10C500000228D4D00028ECD105B0BDE8F08F9AF80D
:10C5100000200399022A07D0032AC8D1019B51F8B1
:10C52000233023F0704302E0019B31F81330276879
:10C53000B3FA83F35B095B4504D1BE42E4D82660BD
:10C540000320E1E7019B2B442F444B4527600193D7
:10C55000E0D3029B0133029300230193C1E701253D
:10C5600097E700BFC477002037B50446C0690D4681
:10C5700098B10023032201A9FFF7E4FD012806D1A9
:10C58000B4F92030002B0ADAFFF7BBFD022003B01C
:10C5900030BDE5255554A2680BE00120F7E7019A6C
:10C5A000012D4FEA431102EB4313F4D0022DF0D0DA
:10C5B000E268DA612278032A04D100221A775A77D6
:10C5C0009A77DA77626A5A83110C9982DFE770B53D
:10C5D000304D0446042694F83430052B2CD8DFE87F
:10C5E00003F003243139424BD5F8082204F130011D
:10C5F00002320120FFF738FF012807D00238C0B20D
:10C60000012819D8052384F83430E4E7D5F810124E
:10C61000E268236BC5F8143202EB4122E260E26A61
:10C62000236102B963620123EDE7206B4FF0FF3114
:10C63000FFF77EFE012801D0002070BDE36A3BB108
:10C640000223E0E7D4E90B01FFF772FE0128F3D1E2
:10C650000323D8E700212046FFF786FF0128EBD10E
:10C6600084F83460B7E794F82830082B02D100230F
:10C6700084F828300120E0E794F82830082B04BF24
:10C68000002384F82830034B012283F8B5210220CF
:10C69000D3E700BFC47700202DE9F743DFF81891F6
:10C6A000044694F83850032D00F28180DFE805F04D
:10C6B00002106E772046FFF78AFF012802D184F826
:10C6C0003800EEE7022873D1032384F83830E8E716
:10C6D00023786668022B18BFD9F81832204618BF95
:10C6E0001E40FFF725FCC6F34F260746361A0023E7
:10C6F000022201A93846FFF725FD06EB07080128AD
:10C700001FFA88F8054653D101984FF400720021B2
:10C7100056F03CFEE369FBB16368EBB9019B4FF057
:10C7200020322E211A605A601970C3F80720606AFF
:10C730005883050C10201A625A6283F8201083F87F
:10C740002110D872C3F82720E26B9D8222FA00F1F3
:10C7500099865A8783F82B00D9F810124B1E9845FA
:10C7600008D24FF400712046FFF770FC4FF0A8FC90
:10C770000137BCE7C1EBC151490201F50071204608
:10C78000FFF764FC4FF09CFC02239EE7002384F833
:10C790002830236C0BB120469847012508E0236C14
:10C7A000002084F8280003B19847022500E0002506
:10C7B000284603B0BDE8F083C4770020F8B52E4EBC
:10C7C000044600F13007A6F5B87594F83830032B0D
:10C7D00050D8DFE803F0022E363FD5F894212261CD
:10C7E000FFF704FCE3681844E060FFF77DFB1044AA
:10C7F000C5F89401FFF7FAFBD5F87831181AC5F897
:10C800007801FFF7F3FBD5F87C31181AC5F87C01E5
:10C810002263FFF769FBE36A1044606323B9626235
:10C82000012384F83830D0E7FFF75EFB101A20634D
:10C83000F6E700213046FFF797FE01280ED10223CC
:10C84000EFE7626B39460120FFF794FD012805D11F
:10C850000323E6E700212046FFF786FE431EDBB2F6
:10C86000012B06D894F82830062B04BF002384F847
:10C870002830F8BD0220F1E7347900202DE9F74394
:10C88000454D0029044614BF0226002605F58057B1
:10C8900094F83C30042B71D8DFE803F029033640CC
:10C8A0006300DFF8FC802B78206B032B53D14045CD
:10C8B00094BF4FF000094FF00109B9F1000F48D1C2
:10C8C00001A94CF019FF012863D1206B4946FFF7FD
:10C8D0002FFD01285DD1019B2363D7F81422013B72
:10C8E000934294BFC7F81432C7F81422DBE73146ED
:10C8F0002046FFF739FE0128034648D1626B02B19A
:10C90000022384F83C30C3E7626B04F1300100205D
:10C91000FFF730FD01283AD10323F2E7E26AD7F8A6
:10C920009431C7F894219B1AD7F810221B4853431F
:10C93000D7F8782102EB4322C7F87821D7F87C2179
:10C94000002102EB4323C7F87C31FFF70DFE0128DD
:10C950001DD10423D5E71FFA80F94FF6F7739945E7
:10C96000A6E794F82830042B04BF002384F828306D
:10C97000A36B0BB12046984701200AE0022094F8EF
:10C980002830042B05D1002384F8283001E0022848
:10C99000F5D003B0BDE8F083C467002034790020EF
:10C9A000F7FFFF0F70B50378023B012B04461CD83C
:10C9B000237E990623D42046FFF7EAFA237E1A073E
:10C9C0000AD51F4D95F89801C31F584258414FF0A2
:10C9D00077FB002385F898310023237084F82830F2
:10C9E000E36A5BB1BDE870401847037E13F0060FA1
:10C9F000DED00121FFF7B8FD0128D9D070BDE26972
:10CA00001049002318014058824211D10E4903F504
:10CA1000817201EB0213DB79C3F34503012B0BD8C1
:10CA2000002301EB0212D17963F34601D171C2E711
:10CA30000133082BE6D1BEE7013B03F03F03F0E7EB
:10CA4000C4770020DC770020C467002010B580B1D7
:10CA5000027872B190F828206AB9D0E90124944292
:10CA60002CBF84608260032280F82820C162FFF717
:10CA700099FF012010BD0020FCE7B1F904300F2B15
:10CA80002DE9F34104460D4616460BD14FF40071D3
:10CA9000FFF7DCFA18B9002002B0BDE8F0814FF6CC
:10CAA000FF73AB802046FFF743FA94F91B20531C19
:10CAB000074611D01E4B41F2180103EB02104158FA
:10CAC0008F4230D0FFF71DFB2046FFF79BFA00286E
:10CAD000E1D00023336024E02046FFF793FA80463C
:10CAE0000028F1D1381E18BF01204FF0E9FA434663
:10CAF000112201A93846FFF725FB0128E4D101984E
:10CB0000FFF70EFBE076019A002ADDD0AB880133F7
:10CB10001BB2AB8002EB431333602046FFF708FAE9
:10CB200028600120B8E7183303EB42230193EAE7BA
:10CB3000C46700202DE9F043994E87B00446A6F55E
:10CB4000DC7594F83030042B11D8DFE813F01300B3
:10CB500005005E00DE00250104F11C0901AA49461A
:10CB60003046FFF78AFF01280ED002282FD007B0E9
:10CB7000BDE8F08330464DF02DFB4FF6FF73238464
:10CB8000012384F83030DCE7019F0FB13B7863B9B3
:10CB90003046FFF7FDF9237EDF061BD54DF01AFB6B
:10CBA0004FF6FF7323840223EBE797F80B8018F00E
:10CBB000080FD3D10B2204F13101384656F080FB27
:10CBC0000028CBD1637E88EA0303D90604D530461A
:10CBD000FFF7DEF90423D4E7BA8A7B8B43EA0243EA
:10CBE0006362D5F81022FB69A3605202B3FBF2F135
:10CBF00002FB113109B113445B1AE36084F8198018
:10CC00003046FFF7C5F90323BBE795F8E031002B69
:10CC1000ADD104F11C08092701AA41463046FFF7AF
:10CC20002CFF012850D1019888B30378E52B01D05F
:10CC3000002BF1D1FFF774FA5A4901EB0010FBF712
:10CC40005FFC01F5D070FFF7A3F9202200210198C5
:10CC500056F09CFB019BD4F831201A60D4F83520A3
:10CC60005A60B4F839201A8194F83B209A72019BDB
:10CC7000627EDA7203A803F0D4F8019B38BB6FF030
:10CC80007E021A7447225A749873D87338E095F864
:10CC9000B831022B9ED095F8E031002B9AD1C5E92E
:10CCA0007D33D5F8CC2185F8F03185F8EC31D5F815
:10CCB000143285F8E071C5F8E421C5F8E831304652
:10CCC000FFF7EAFC0128A7D0022883D04FE79DF8A0
:10CCD0000E109DF80F2042EA4112BDF80C10A1F28F
:10CCE000BC7142EA41221A829DF810209DF8111071
:10CCF000D20242EA41129DF8121042EA5102DA8150
:10CD00001A8A1A83DA89DA827DE7237E9A0608D5A1
:10CD1000E0690023112202A9FFF714FA01287FF429
:10CD200026AF20464DF056FA2269237E8AB91B07AA
:10CD300008D51D4B93F89821002A7FF418AF0722DD
:10CD400083F89821002384F82830E36A2046984726
:10CD50000DE703F0F70213F00403227608D0002356
:10CD6000E26AA16884F828302046FFF7B3F9FEE6AE
:10CD7000122AE7D1E26AA263626A84F83C30042195
:10CD8000C4E90B22C4E9023384F8281063636362A8
:10CD900020464DF01FFAEAE60020E36A2070D6E74D
:10CDA0007C790020DC770020C47700202DE9F34156
:10CDB00003780446002B72D090F82830013B082BF2
:10CDC0006DD8DFE803F0050947594B5E6C626700D8
:10CDD00002B0BDE8F041ADE6324B4568D3F81072C1
:10CDE000D3F818327F021D40216B2046FFF70AF965
:10CDF00005EB01084745064626D880B1D4E9013243
:10CE00009A422CBFA260A360002384F82830E36A12
:10CE1000002B44D0204602B0BDE8F04118472169FC
:10CE2000207E01AA4FF020FA012838D123696361DE
:10CE3000019B236163683B445B1B6360236BDB1BCB
:10CE40001D4425633546CFE763680028D6D11944D1
:10CE50006160D3E702B0BDE8F041A3E50121FFF72F
:10CE60000DFD01281BD1216C0023204684F82830B9
:10CE700002B0BDE8F041E9E5002102B0BDE8F041B3
:10CE8000FCE402B0BDE8F04198E402B0BDE8F04136
:10CE9000FFF79DBB02B0BDE8F041FFF7FDBB02B05C
:10CEA000BDE8F081C47700202DE9F0414FF0FF315B
:10CEB000304A314C0D460023107804280ED103F57A
:10CEC000817004EB0010C079C70707D46E1C52F8BC
:10CED0000A0C01D0884201D21D4601460133082BBD
:10CEE00002F11002E8D16B1C42D0234C234E05F511
:10CEF000817704EB0713998849B1D6F8EC3833B140
:10CF000004EB051041F218029B6880589847D6F848
:10CF1000EC389BB11A4ED3F80C801A4A04EB051C6E
:10CF200041F2180000235CF8000006EB4521C047E1
:10CF300020B1022810D00020BDE8F081124BD3F8B8
:10CF40009C2004EB0714013AC3F89C200322A27131
:10CF5000012283F8A020EEE706F6E87604EB07143A
:10CF6000D6F89C30013BC6F89C300123A371E2E760
:10CF70000120E1E7EA770020C4670020802A002032
:10CF8000DC6700204D920008C477002008B500211E
:10CF90004422104856F0FAF90F4B03F580501B78E5
:10CFA0004FF6FF72A0F8D221022B4FF0030218BFF8
:10CFB000134680F8B831D0F81C32C0F8DC311023A9
:10CFC00080F8D02180F8D13100F5DC704DF002F905
:10CFD000012008BD7C790020C467002070B5124D87
:10CFE000124BC5F8F03840F20112002385F849329F
:10CFF000A0F84421C0F85C3105F50F620D23C0E9AB
:10D000005422044685F8FC18C0F8583100F5A27186
:10D010004FF077FA05F50A7220461F23BDE87040ED
:10D0200001214FF007BB00BF802A00205553425317
:10D0300010B5074B93F8351204464CF095F80028CC
:10D0400004DA20460121BDE81040C7E710BD00BF4B
:10D05000802A0020F8B50B7813F0600506460C46D0
:10D0600038D0202D74D14A78FE2A05D0FF2A1CD052
:10D070004CF09EFB02252BE04D88A5B9CF88012FEF
:10D0800011D11A060FD5334CD4F854329B69984706
:10D09000C0B284F8000930B13A4604F51061304658
:10D0A0004FF004FA14E03046E2E74A88002AFAD149
:10D0B000CD88002DF7D11B06F5D4264A012182F830
:10D0C000495282F848121F2302F50A724FF0B2FA51
:10D0D0002846F8BD4B780A2B24D00B2B25D0012BEA
:10D0E000F6D194F904308988C068002B22DA01F067
:10D0F0007F014FF0D3FA2179164F30464FF010F9E7
:10D1000002232179402230464FF033F997F8483214
:10D11000022B12D1812130464FF0D0F8002387F83E
:10D120004832D5E70C490122BAE70A4B4A8883F80E
:10D130000129CDE74FF09CFADDE794F90420002A9D
:10D14000C6DA012BC4D001213046FFF747FFBFE705
:10D150000025BDE7802A00208133002008B5084B58
:10D1600093F84932022B07D0033B012B02D8002150
:10D17000FFF734FF002008BDFFF75AFFFAE700BFB2
:10D18000802A002070B52F4C94F8496205461EB1E4
:10D19000012E54D0002070BDD4F82C32C4F8F438DD
:10D1A000D4F83032C4F8F838B0F8B4331F2B0DD1AE
:10D1B000D4F82822244B9A4208D194F83512012938
:10D1C00004D894F83632013B0F2B0AD920210520D0
:10D1D0004BF0B4FF022384F848322846FBF792FD57
:10D1E000D8E74BF0C1FF0028F7DB94F84932013B48
:10D1F000022BCFD9B4F80219E9B1D4F8303284F84F
:10D20000FC68994228BF1946D4F8F8385B1AC4F86C
:10D21000F838042384F8493240F20113A5F8443168
:10D220000A4BC5E95616C5E9543305F5A2712846DF
:10D230004FF067F9AEE72846FFF7D0FEAAE7FFF701
:10D24000F7FEA7E7802A002055534243C457002029
:10D2500008B54CF01FFEFDF7E3FE1B2005F0F9FBBF
:10D2600018B10F23C380002303721C2005F0F1FBCB
:10D2700018B10F23C380002303720E4B93F80829C3
:10D28000012A12D0022A12D10B4A0C49C3F85422A7
:10D2900001F12C004CF09AFA00210120FDF7A0FECC
:10D2A000074B084683F8231008BD064AEDE7012026
:10D2B000FAE700BF802A002024090020640900202A
:10D2C00000ED00E0440900202DE9F04F2DED028B28
:10D2D0008FB036F0D3FB36F0ABFB4FF00008DFF831
:10D2E0003C930646444647464546BE4200F3AB8063
:10D2F000642C40F055816825DFF8F482B94BD8F8EA
:10D300004C71C3F8AC794C22554308EB050300215E
:10D31000184656F03BF84C22002156F037F8B24A36
:10D3200048F805200122C0E90466C0E90777826059
:10D33000AE4A826247620534AA4BAD4DD3F8AC7950
:10D340007300B3F1805F18DA4C2254432B1900218B
:10D35000184656F01BF84C22002156F017F8A54A43
:10D360002A5102224271C6F1006601229640C0E9AC
:10D370000466C0E90777826047629F499C484FF482
:10D38000987253F063FE9A4A042113460139C3E9A7
:10D3900007775F6203F14C03F8D1AC68002C4DD1E4
:10D3A0002B79002B4AD02B68002B47D0C5E91111EF
:10D3B0008F482964E9630F468C46C66C00F14C0324
:10D3C000002E40F02D8102231068002840F0588183
:10D3D0008A4E981E8A4BC6F88C3A3E23C6F8903A7D
:10D3E0003F23C6F8943A4023C6F8983AC6F8A81ADC
:10D3F000C6F8B44AC6F8A40A830F8100002800F0DA
:10D400006C8140F2FF128A1843F10003520A42EA8B
:10D41000C35202F14003C6F89C3A1344C6F8A03A3E
:10D4200003EBC003DA0DC6F8883A5B02C6F8803A0F
:10D43000744BC6F8AC5AC6F8B05A5A600FB0BDEC7F
:10D44000028BBDE8F08F202206A9384636F0D6FAC6
:10D450006D49122206A855F033FF0090002840F0D5
:10D460008D80AF421DD069490C20621C00FB041462
:10D47000CA4667490192204602F068F901214AF83C
:10D480004C4BC9E902155949C9F82810019AD9F835
:10D490001C10A7EB050BC9E904BBC9E90811144628
:10D4A000D146504BD3F8AC29C9F81C203D46122276
:10D4B00002F13803501C0DEB0302564B12F8201CEE
:10D4C00018F8032091425CD108F10108B8F1150F5A
:10D4D00059D1202206A9284436F090FA002505AA41
:10D4E0004D4906A854F0C2FD05AACDE9025508EE43
:10D4F000102A0195AA46AB4638B30BF1FF32042A35
:10D5000004D8DFE802F00F13171B1F0002F0E0FD44
:10D51000824618EE102A404900200BF1010B54F00E
:10D52000A5FDE9E702F0D4FD0190F2E702F0D0FD9D
:10D530000290EEE702F0CCFD0390EAE702F0C8FDAE
:10D540000546E6E702F0C4FD0090BAF1000F12D0E4
:10D55000DDE90123AAF2BC7A43EA4210039B40EAC8
:10D560004A2A680140EAC320009B40EA630040EA7F
:10D570000A40C9F81C00642C2ED03D4607F5006710
:10D58000B3E64FF00008202808D12035AE42F2DB88
:10D59000024606A9284636F031FA0020024687E7FF
:10D5A000AF4219D0194A1A49A7EB05080C2707FB07
:10D5B000042701342246384602F0C8F80122C9E99E
:10D5C00002250A4AC9F82820D9F81C20C9F8007099
:10D5D000C9E90488C9E90822251D002C7FF48CAE16
:10D5E0000424A9E60000002008F10608219800089C
:10D5F0004C38002015F10608A044060888190020C0
:10D6000022F1060808240020CCF006089033002000
:10D61000DFF00608EDF0060803F106087C3900206B
:10D620009E68C3F840C007F1FF3E7645C3E911CCC0
:10D63000C3F83CC005D1002F3FF400AF53F80C0CE9
:10D64000374607F1010E764508D10679002E3FF4E2
:10D65000F5AE4364186477461846AEE6BE427FF4E2
:10D66000EDAE002E3FF4EAAED0F840E0DEF83C70BC
:10D670000137CEF83C70C3F840E08364B646EAE771
:10D68000107903F1FF3CA0B11363D36B5B011ABFA8
:10D6900003F6FF731B0B01236344C2E90466C2E96E
:10D6A0000D33D2E90D03181A0144013301344C3211
:10D6B0008AE61769136367B107F6FF773F0B506976
:10D6C0006744576338B100F6FF70000B6044906305
:10D6D000E7E70127F3E70120F8E7012299E6F0B533
:10D6E0009C0827010E46154600EB0414A04206F1E3
:10D6F000100605F1100508D103F0030339443A443C
:10D7000004EB83039C4223D1F0BD84469CED006A68
:10D7100016ED045AD0ED016A56ED037A90ED027AC7
:10D7200056ED025A26EE056A66EEA76AD0ED037A38
:10D7300005ED046A16ED016A45ED036A27EE257AC8
:10D7400067EE867A103005ED027A45ED017ACDE775
:10D75000F4EC017AB1EC017A67EE877AE2EC017AB7
:10D76000D0E700BF70477047D0ED007AD0ED036A74
:10D7700030EE677AE6EE877AB0EE670AC0ED007A9F
:10D780007047D0ED017AF5EE407AF1EE10FA09D14A
:10D79000DFED0F7A60EEA70AB7EE007AC7EE207AC7
:10D7A000C0ED017AD0ED017A80ED021A71EE277A90
:10D7B000C1EE276AD0ED007AC0ED036A30EE677AD9
:10D7C000E6EE877AB0EE670AC0ED007A704700BFD8
:10D7D000DB0FC940D0ED017AD0ED036A30EE670A65
