:020000040800F2
:1000000000000220454705086D9B0008E52D020809
:10001000F5470508F5470508F54705080000000005
:100020000000000000000000000000006DB20008A9
:100030006FB200080000000071B20008791E0108CC
:10004000F5470508F5470508F5470508F54705088C
:10005000F5470508F5470508C1F00008C5F0000898
:10006000F5470508C9F00008CDF000082DA20008EA
:1000700041A2000855A2000869A200087DA200085C
:1000800091A20008A5A20008F5470508000000009D
:10009000000000000000000000000000D1F0000897
:1000A00065A100088DA10008B5A100084FA10008B6
:1000B000DDA10008F1A1000805A20008F547050828
:1000C000F5470508F5470508F5470508F54705080C
:1000D000F5470508B19C0008BD9C00080000000021
:1000E000D5F00008F547050873B2000800000000CD
:1000F000000000000000000000000000B9A200089D
:1001000000000000F547050819A20008F54705089A
:1001100000000000000000000000000000000000DF
:10012000CDA20008E1A20008F5A2000809A300087A
:100130001DA30008000000000000000000000000F7
:10014000000000000000000000000000C5B2000830
:1001500031A3000845A3000859A30008F547050886
:10016000F5470508F54705080000000000000000FD
:10017000000000000000000000000000000000007F
:1001800000000000F5470508000000000000000026
:08019000F5470508F5470508D5
:08019800D8420500010000003F
:1001A000483201200202000001012C0068320120C7
:1001B000020A000001012C00883201200206000022
:1001C00001012C00A83201200207000001012C00CF
:1001D000C83201200203000001012C00E832012096
:1001E0000208000001012C0008330120020C00006D
:1001F00000013F00283301200229010000013E00D8
:10020000483301200230000000011400683301204F
:100210000132000000003C0088330120013500005D
:0402200000002000BA
:10800000D0E907239A422FBFD01AC0688018C01A3F
:108010007047D0E9092300699A4238BF1218D31A71
:108020000138C01A7047D0E90902131A5842584162
:108030007047036A41690246C85CD16801338B42CC
:1080400028BF002313627047436A8269D154436A90
:1080500002690133934228BF0023426B4362D36815
:1080600043F08003D3607047436B188810F0100012
:108070001EBF1A889B8801207047436B99891A8814
:10808000890610B592B2044607D5900605D5E26A76
:1080900022B39888216B80B29047636B99891A88C4
:1080A000090692B20FD510060DD5D4E909128A42FD
:1080B00022D0A169895C998021690132B2FBF1F07B
:1080C00001FB1022A262998A1A88C90592B204D5CE
:1080D000D20744BF4FF6F7721A8010BD9B88E26941
:1080E0006169DBB28B54E369E2680133B3FBF2F1FF
:1080F00002FB1133E361D0E7DA6822F08002DA6034
:10810000E1E7036941681F2B30B54FF0200285BFBE
:10811000A3F120054C680C68AA4098BF9A402242FF
:108120001ED0826900201074D0688468206820F016
:10813000010020605468206865790A4C828934F80F
:10814000154092B21F2B22EA0402828188BF203B95
:108150004FF020028BBF9A4002FA03F3CA608B6093
:1081600030BD00BF088205080E4BDA68D20310D478
:10817000DA68D1060FD4DA68D2050ED4DA6812F0C4
:10818000E00F0CD1DB6813F0020F14BF08200920A8
:108190007047012070470620704702207047072073
:1081A000704700BF003C024007B509238DF8073037
:1081B000FFF7DAFF8DF807009DF80730012BF7D0A5
:1081C0009DF8070003B05DF804FB838A028B9BB225
:1081D00043EA024331EA03030CBF01200020704749
:1081E00082B0002301930093012300900193019B2F
:1081F00063B1009A21F07F4314320092009A126812
:108200001A4214BF0120002002B07047009A1832B1
:10821000F3E77047704701207047044BD3E9000330
:10822000984288BF03F50063181A7047781600203B
:10823000054AD2E900318B42FDD0D1180133C3F396
:108240000A03087A1360704778160020044BD3F8AD
:10825000080820B1D3F80808431F58425841704716
:1082600078160020012380F84930704710B5D0F807
:10827000E83504461B699847032384F8123100202F
:1082800010BD08B590F8123180F81331042380F83E
:108290001231D0F8E835DB689847002008BD08B5F2
:1082A000D0F8E435DB6903B19847002008BD08B574
:1082B000D0F8E4351B6A9847002008BD08B5D0F80F
:1082C000E4355B6A9847002008BD30B501380024CA
:1082D00023460134055D002DFAD1DBB201335B008A
:1082E00013800B7003234B70022310F8014F04B965
:1082F00030BD5A1CD2B2CC5402338D54DBB2F4E7F9
:1083000010B5074C2068FF2808D00649D1F80C2882
:1083100001F5016100F070F8FF232360002010BD1B
:108320000000002078160020432301480B8070478E
:1083300004000020122301480B80704747000020F2
:10834000042301480B8070475900002008B50A46F5
:1083500002490348FFF7B9FF084608BD901E0020F8
:108360006420060808B50A4602490348FFF7ADFF36
:10837000084608BD901E00206F20060808B50A4672
:1083800002490348FFF7A1FF084608BD901E0020E0
:108390007420060808B50A4602490348FFF795FF0E
:1083A000084608BD901E00207E20060808B50A4633
:1083B00002490348FFF789FF084608BD901E0020C8
:1083C00089200608704770477047704770477047AC
:1083D000044B00200522C3F80828C3F81809C3F885
:1083E0001C09704778160020024B0020C3F80808CB
:1083F000704700BF78160020212838B50C461BD0E6
:1084000022282BD0202815D1A1B1072A12D11A4D2C
:10841000D5F81C3913B10968002098472368C5F8BE
:108420002039237985F82439637985F82539A379AA
:1084300085F82639002038BD0029FBD0072AF9D15C
:108440000D4BD3F820290A6093F824290A7193F878
:1084500025294A7193F826398B71EBE70029E9D079
:10846000022AE7D1044BD3F81839002BE2D009884F
:1084700000209847DEE700BF78160020074AD2F8B0
:108480002839D2F82C29934203F1FF338CBF002006
:1084900001209B1A03EBC020704700BF7816002014
:1084A000ECE730B50F4CD4E900239A4286BF03F5C0
:1084B0000065AA1A9A1A0A44B2F5006F10D801444E
:1084C0000022814203D102B16360002030BDE21876
:1084D00010F8015B15720133C3F30A030122F0E7C0
:1084E0000220F3E778160020202301480B80704714
:1084F0005D000020122301480B8070477D000020A2
:10850000042301480B8070478F0000200A4608B5FD
:10851000044920B90448FFF7D8FE024808BD0348C3
:10852000F9E700BFA81F002097200608AF20060823
:1085300008B50A4602490348FFF7C7FE084608BDCA
:10854000A81F0020C720060808B50A4602490348AC
:10855000FFF7BBFE084608BDA81F0020DA2006086A
:1085600008B50A4602490348FFF7AFFE084608BDB2
:10857000A81F0020E5200608002370B54D1C1E46EC
:10858000040FB0F1204F34BF3034373401F81340BA
:1085900005F813600133DCB2A2424FEA0010EFD8B5
:1085A00070BD1A2310B50B80094BD3F8E807D3F838
:1085B000EC2780180AD0D3F8EA4706490822FFF7CB
:1085C000DBFF042210312046FFF7D6FF024810BD22
:1085D00000F0FF1F95000020930000204FF400736F
:1085E0001360034BD3F8383A0B600020704700BF8C
:1085F0007816002000207047012070470120704746
:108600000020704730B414461A69A24209D30D19EC
:10861000AA429B6938BF111B0A46E11830BC4FF0D3
:108620001DBB30BC704770477047D0ED007AD0ED6D
:10863000036A30EE677AE6EE877AB0EE670AC0ED3D
:10864000007A7047D0ED017AF5EE407AF1EE10FA3B
:1086500009D1DFED0F7A60EEA70AB7EE007AC7EE18
:10866000207AC0ED017AD0ED017A80ED021A71EE28
:10867000277AC1EE276AD0ED007AC0ED036A30EEAA
:10868000677AE6EE877AB0EE670AC0ED007A704747
:10869000DB0FC940D0ED017AD0ED036A30EE670AF6
:1086A000E6EE807A90ED000AC0ED017AB0EE677ACE
:1086B000D0ED027A37EE677AE6EE877AC0ED027A7D
:1086C00077EEC07AA6EEA70A80ED000A704790ED1B
:1086D000056AD0ED017AD0ED006AD0ED025A90ED36
:1086E000045A66EE277AB0EE407AE6EE807AD0ED54
:1086F000066A80ED057AE5EEA67AD0ED076AD0ED40
:10870000035A80ED066AE5EEE67AD0ED085AC0ED30
:10871000086AE5EE657AB0EE670AC0ED077A704741
:10872000D0ED006AD0ED057AE6EE807AB0EE407AC0
:10873000B0EE670AD0ED037AD0ED016A67EEC07A39
:10874000E6EE877AD0ED066A76EEA77AD0ED026A79
:10875000C0ED057AD0ED047A67EEC07AE6EE877A4E
:10876000C0ED067A704703685A1C026019707047A2
:1087700003690133012B036106D1002380ED010A57
:1087800080ED000A8360704790ED006A07EE903A32
:1087900070EE466AF8EEE77A86EEA77A77EE067A0A
:1087A00090ED027AC0ED017A30EE670AC0ED007AF2
:1087B000A6EE807A80ED037A80ED027A7047036836
:1087C0005A1C026019707047007970470079C0F335
:1087D0004010704700794009704790F830200346F8
:1087E00002F0FF0012B1002283F8302070474FF4EE
:1087F0008053838170474FF48053838170474FF4D7
:108800000063838170474FF40063838170474FF4A6
:108810000063838170474FF4006383817047064A89
:10882000002352F8041B814204D00133042BF8D1F9
:108830000020704701207047E02000200120704791
:10884000012070472DE9F843604F1546D7F8784A64
:10885000B7F87C2AB7F8829AC2EB24135200C2EB15
:10886000E402B7F97E4A624303FB03F4B7F9803AA6
:1088700024135C43A41304EBE224B7F9863AC7F847
:10888000944A0E46A4F5FA3181FB01CE4FEAE37813
:1088900003FB0EF20CFB0822A3FB0C389044B7F943
:1088A000842A82FB01021B0A120343EA086342EA9C
:1088B000105200031B1842EB282202F50042A3FBD2
:1088C000093809FB02884FEAE8734FEA680253EA65
:1088D00068084FF000006DD0B7F98C9A4FEAE9783C
:1088E00009FB0EFE0CFB08EEA9FB0C9CE644B7F955
:1088F0008ACA8CFB01814FEA414C4FEA484111EB97
:108900000909D7F8981A4CEAD83C4EEB0C0CC1F583
:10891000801E0EF00048B7F9881A48EA5E0810EB8E
:1089200009004FEACE7EBEEB00000CEBC10168EB04
:10893000010C40F63548A0FB080108FB0C114BF078
:108940001BFDB7F9923A4FEA613E4FEA503C4CEAC0
:10895000C14C03FB0EF24FEAE3790CFB0929A3FBA0
:108960000C324A4403FB0EFE0CFB02EEA3FB0C3C54
:10897000B7F9902AE6445B0E43EACE1313EB000CE2
:10898000804602FB01F34FEAE27941EB6E6EA2FBF7
:10899000082809FB00314144D00C40EA41301CEB6F
:1089A0000000B7F98E3A4EEBE141000A40EA01605F
:1089B00000EB03100EB1000A306025B104EB840413
:1089C000803424122C600120BDE8F8837816002042
:1089D00001207047054B0022C3F89C2AC3F8A02A47
:1089E000C3F8A42AC3F8A82A0120704778160020EB
:1089F0000A4BD3F8AC2AD3F8A81A521AFA2A9FBF06
:108A0000D3F89C2AC286D3F8A02AD3F8A43A9DBFF3
:108A10000287438701200020704700BF781600209E
:108A20002DE9F041476906468846002F59D1036871
:108A3000C3F30D0515B3D8F800803568FFF7B4FB14
:108A4000092840F08780454C236923F44073236153
:108A5000236943F400732361236943F00103236115
:108A6000C5F80080FFF7A0FB2369092823F0010364
:108A700023616FD133680433336032E0384A934264
:108A800029D302F58042934224D302F580429342D7
:108A90002AD3344A934229D902F58032934227D906
:108AA00002F50032934225D902F50032934223D9D0
:108AB00002F50032934221D902F5003293421FD9C8
:108AC00002F5802293421DD9B3F1016F1CD305201A
:108AD00009F0B6FA0825FFF767FB092816D04FF012
:108AE000FF373846BDE8F0811025F4E71825F2E796
:108AF0002025F0E72825EEE73025ECE73825EAE7E2
:108B00004025E8E74825E6E75825E4E7134C2369C4
:108B100023F440732361236943F4007323612369C1
:108B200023F0F803236123691D4345F00205256105
:108B3000236943F480332361FFF736FB236923F075
:108B4000020323612369092823F0F80323613FF41A
:108B500072AFC4E76FF00107C3E700BF003C0240FB
:108B600000400008FFFF000803682DE9F0410446BB
:108B70004068134483421AD80D468E1804F10C073E
:108B80004FF00008B54202D16069BDE8F081236969
:108B90005A1C2261234415F8011B1973042AF1D1D0
:108BA00039462046FFF73CFFC4E90480EAE74FF06E
:108BB000FF30EAE72DE9F347038A8689B6B2054616
:108BC0000C461E404FF0004901F14C0701F13408FA
:108BD00016B902B0BDE8F087B6FA86F329FA03F2B7
:108BE000D24391B2298216401B3B002C40D0042B6B
:108BF000EED8DFE803F039342E280300E368D5F817
:108C00002CA02BB19B681BB11FFA8AF1201D98473D
:108C1000636A33B19B6823B11FFA8AF104F11C0027
:108C20009847E36B2BB19B681BB11FFA8AF1404652
:108C30009847636D002BCBD09B68002BC8D01FFAE0
:108C40008AF1384603E0E368696B5B68201D98474A
:108C5000BEE7636AA96B5B6804F11C00F7E7E36B8E
:108C6000E96B5B684046F2E7636D296C5B68E8E797
:108C7000042B06D8DFE803F00D0B09070300EB6AAD
:108C80000193019BA4E76B6BFAE7AB6BF8E7EB6B27
:108C9000F6E72B6CF4E72DE9F0410D4DDFF8348059
:108CA0002C686B6901271C400CB9BDE8F081B4FA4F
:108CB00084F3C3F11F0307FA03F608EB830324EAE6
:108CC0000604D3F8B00A036898476E61ECE700BF6A
:108CD000003C01407816002090F84820531C0244C4
:108CE000DBB280F8483082F8341090F849200AB19D
:108CF000132B01D94AF0E0BA7047002280F84920CE
:108D00004AF0DABA70B50F4E96F8F03A002BFBD164
:108D100004464518AC4201D1002070BDD6F82C396C
:108D200014F8011BF2180133C3F30A0382F8F11A95
:108D3000C6F82C39FFF7A2FB0028EBD1012009F07F
:108D400036F9F7E77816002038B50C461146FFF7DC
:108D50007DFA48B1054D002AD5F8AC3A04DD20462D
:108D6000FFF7D0FFD5F8AC3A38BD00BF7816002029
:108D7000F0B590F8CF5590F8CE1590F8D12590F831
:108D8000D03590F8CC7590F8CDC501EB05218DB2AA
:108D900003EB022390F8D31590F8D22585B002EBAF
:108DA000012207F01F06012192B29BB28E420446B7
:108DB0008DF808708DF809C0ADF80A50ADF80C3088
:108DC000ADF80E20C0F8402180F8111100F00C81A0
:108DD000022E00F01D81002E40F09B81BCF1090F96
:108DE0005ED8DFE81CF0B600F4005D00C8005D004E
:108DF00057000A005D00A90076002E0A022EADF889
:108E000006200BD0032E25D0012E49D1D0F8EC3509
:108E10001B68A0780DF10601984709E0D0F8E43509
:108E200080789B6A0DF1060198474670C4F8F005FA
:108E3000BDF80620002A47D0BDF80E30002B43D0E5
:108E40009A4228BF1A46ADF806200146204649F04E
:108E50004FFD39E0E9B2052922D8DFE801F0030728
:108E60000B0F1317D0F8EC355B68D2E7D0F8EC3570
:108E70009B68CEE7D0F8EC35DB68CAE7D0F8EC3574
:108E80001B69C6E7D0F8EC355B69C2E7D0F8EC3572
:108E90009B69BEE71A4303D190F81231032B03D12B
:108EA000204649F051FC0FE0016905F07F0680F88B
:108EB00014610B6865F30A121A430A6049F02CFD2D
:108EC0002EB1022384F81231002005B0F0BD012339
:108ED000F8E7E9B2904D012985F8F911E0D890F84A
:108EE0001231022B0FD0032BDAD1C1B9022380F843
:108EF0001231D0F8E43580F810115B6898472046AD
:108F000049F00AFDE0E70029F9D00121032380F8A8
:108F1000101180F81231204649F0D8FBEFE790F8A5
:108F200010110129EBD0D0F8E4355B68984795F82B
:108F3000F91184F81011EEE7012AB1D190F812313D
:108F4000022B04D0032BABD100F588717EE7734967
:108F50007CE790F81231023B012BA1D86E4B002226
:108F6000C3F80022D0F8182112B10222C3F800225F
:108F70006B4902226AE7012D08D1C0F81851D4F8D4
:108F8000E43502A99B6820469847B8E7022D9BD19B
:108F9000DAB2002A98D102691B0A023B5268032BFD
:108FA00003D8DFE803F00C0E1012012363F306125E
:108FB000594BC3F80422012384F816319FE702239A
:108FC000F4E70323F2E70423F0E70523EEE790F844
:108FD0001231023B012B3FF663AF012D7FF474AFDA
:108FE0000023C0F81831CAE790F81221032A7FF451
:108FF00057AFDBB2012B3FF653AFD0F8E43502A9EF
:109000009B689847BDF80E30002B7FF45DAF76E784
:1090100007F06007202FD9B205D1D0F8E43502A9B6
:109020009B68984750E7BCF1010F31D0BCF1030FAA
:109030001ED0BCF1000F7FF447AF90F81221022A36
:109040005AD0032A7FF42CAF13F0800F4FF0280280
:10905000314B59D001F07F0102FB010191F81E2133
:10906000002A4FD00122C3F808222E490222EDE641
:1090700090F81231022B3FD0032B7FF411AF002D5B
:109080007FF47DAF4A063FF47AAF49F02BFB76E7D9
:1090900090F81221022A2FD0032A7FF401AF002D6D
:1090A0007FF412AF11F07F003FF429AF5BB2002BC9
:1090B0004FF02802B5BF02FB004102FB014101F560
:1090C0008E7101F55D710022DB0F08708A704B70A4
:1090D00004EB8000C9786BB18269136802396FF3C1
:1090E000555301298CBFC3F30071012161F31C7337
:1090F000136044E7426DF0E74B063FF4E5AE49F0FC
:10910000F1FAE1E60022AEE702FB010191F87623D5
:10911000A6E707F08001F2E7702700206C29002005
:10912000702900207829002010B5044671BB90F802
:109130001131032B1BD1D0F89023D0F87C339A4205
:1091400017D9C178012908BFD0F88013A2EB030218
:1091500004BFC918C0F88013934228BF1346C0F853
:1091600090239BB2D0F88023002149F085FC002099
:1091700010BDD0F8E4351B6923B190F81221032A01
:1091800000D19847204649F0C7FBF0E7D0F8E43516
:109190009B69002BEBD090F81221032AE7D1984766
:1091A000E5E770B50A7812F0600406460D462AD04D
:1091B000202C2FD1CC884B78FCB112060CD51F493E
:1091C00022461846FFF718F9EA881C49304649F04C
:1091D0008FFB0024204670BD194A1360194A0323EF
:1091E000C2F80C4880F81131C0E9E444234602F586
:1091F0000162002149F040FCEBE7022211441846CD
:10920000FFF7FAF8E6E74B780A2B08D00B2B0BD0C8
:10921000062BDFD1304649F097FA0224DAE70A49F3
:10922000012249F065FBD5E78B781BB9074BC3F8E2
:109230000C42CFE749F088FACCE700BF881E002037
:1092400000000020781600207C29002070270020D4
:1092500010B5282303FB0101074AB1F88C1304461B
:109260001046FFF71EF92046034A4023012149F02A
:1092700003FC002010BD00BF8029002070B50F4DF9
:10928000D5F85832044643B195F85C2295F870320F
:10929000134302D1012149F025FA8121204649F0EA
:1092A00021FA95F87032022B07D12046044ABDE816
:1092B00070401F23012149F0DFBB70BD70270020E3
:1092C000C0290020002310B519460446402249F069
:1092D00072FA402280212046002349F06CFA0123D3
:1092E00084F81231D4F8E835A0785B6898470020FC
:1092F00010BD38B5402204460223812149F05BFAB3
:10930000204602234022012149F055FA204603233A
:109310000822822149F04FFA084B0222002583F8E7
:109320004B2083F84C50FFF753F801212046044AA4
:10933000402349F0A1FB284638BD00BF00000020B3
:109340008029002010B58121044649F00BFA2046FF
:10935000012149F007FA2046822149F003FAFFF77C
:1093600043F8002010BD10B58121044649F0FAF9F8
:109370002046012149F0F6F9024B002083F87102E2
:1093800010BD00BF7027002038B5264C94F8F02A95
:10939000012A034633D12448D0F874221AB984F83C
:1093A000F02A002038BD402AD4F8281919D9403AAB
:1093B00001F14005C0F87422C4F8285940221B4826
:1093C00010FA81F1C3E9541140F201100021C3E900
:1093D0005621A3F8440103F5A271184649F0B3FAE7
:1093E000DFE702EB0105C4F828594FF00005C0F88B
:1093F00074520ABF022092B284F8F00ADFE7022A10
:10940000CFD1002540F20112C0E95455C0E95655AC
:10941000A0F8442100F5A27149F095FA84F8F05AB9
:10942000BFE700BF781600207027002069210020C8
:1094300038B52A4CD4F878320F2B03F1010203D04F
:10944000C4F87822002038BD254A0023C4F87832B9
:1094500092F8F03A002BF5D1D2F82819B1F5006F47
:1094600008BFC2F82839D2F82819D2F82C39994205
:1094700003D1002382F8F03AE4E78CBFC1F5006322
:109480005B1A402B1BD9403B01F14005C4F87432F4
:10949000012382F8F03AC2F828594023114A12FAFF
:1094A00081F140F20112A0F844210022C0E95411D8
:1094B000C0E9563200F5A27149F045FAC2E701EB66
:1094C0000305C2F828594FF00005C4F874520EBFC6
:1094D000022401249BB282F8F04ADFE770270020C3
:1094E000781600206921002070B50446144EFFF75D
:1094F0003AFF204602234022812149F05CF94022B4
:1095000001212046022349F056F90025D6F87C3285
:1095100086F871521B6886F8705228469847E068B2
:1095200049F0F4FCE068012149F006FD20461F23C4
:1095300006F51472012149F09FFA284670BD00BF5C
:109540007027002008B5002047F0C6FA002008BDAB
:109550002DE9F843089D0E461746002120220446B7
:1095600098464EF0B4FD4DB12B68E3811A0C6B6840
:109570002282E3821A0C6B892283638230464AF08E
:1095800009F9FB0604D400F1FF39B9F1FF3F41D1DD
:10959000082802464FF0FF39A8BF082200254FF0E7
:1095A000203323606360314620464EF057FB234A48
:1095B000228104F1080309F10101A27218462A462A
:1095C00031444EF04BFB621E0346E01D12F8011FB2
:1095D000A1F16105192D9CBF203911708242F5D18E
:1095E000184604F10B0210F8013BA3F1610119299F
:1095F0009CBF203B00F8013C9042F4D11823237318
:109600004FEA1843A382099BE772A4F81A80E3612A
:10961000BDE8F88316F809302E2B02D009F1FF3986
:10962000B3E74A46A0EB0905082A05F1FF35A8BFB4
:109630000822032DA8BF0325B1E700BF202020008A
:109640002DE9F04F012085B00D461646994647F0AA
:1096500043FAB64F04352C1FB9F1000F06D1484626
:1096600047F03AFA484605B0BDE8F08FD7F8502ADF
:10967000B24200F2B780D7F860AAA6EB02084FEA20
:10968000D803DAF830200233934208F0070803D3F6
:10969000DAF83820934218D951461846039347F018
:1096A00024F8039B824670B9A5F1080305F5FC7206
:1096B0009F4943F8041F9342FAD109F1FF3901365B
:1096C00005F50075C7E7C7F8600A9AF80420002A74
:1096D0006DD04FF40072002120464EF0F8FCDAF80D
:1096E0004030B8F1000F47D1CDE9008805F11C0BDF
:1096F00043BB43462046D7F83C1A0822FFF728FF11
:109700005C464FF4F073DAF8448004EB030AB8F1D6
:10971000000FD2D05445D0D098F80420D8F80010CB
:10972000D8F8303004F1200B08F11C00B2B300224D
:10973000CDE9000211222046FFF70AFF5C46D8F867
:109740004880E4E7DAF830307A4911222046FFF702
:10975000FFFEDAF840301A6C05F13C04CDE90088D0
:1097600042B94346744911225846FFF7F1FE4FF4BF
:10977000E073C8E71B6BF5E7002B0CBF0122022248
:10978000C2EB0812DAF84480B8F1000F03D0013AB6
:10979000D8F84880F8D14FF40073B6E798F805C0C0
:1097A000D8F81020CDE900024CF02102C3E7DAF826
:1097B00028B0BBF1000F06D14FF400720021204603
:1097C0004EF085FC79E7DAF830209B1ADAF80C20A5
:1097D00008EBC30802EB482253464FF400712046C1
:1097E000D8476AE7002E64D14FF400723146204614
:1097F0004EF06DFC802385F8BA310C2385F8BE311C
:10980000D7F8402A4D49D7F8383AC4F8C6218A42D9
:10981000C4F8CA3118DDFF2285F8BB2185F8BD21C7
:1098200085F8BC21454A013B934228DDFF2385F89A
:10983000BF3185F8C13185F8C031552385F8FA313B
:10984000AA2385F8FB3138E73F2192FBF1F1C1EB08
:10985000811C43F6C16492FBF4F4A2EB0C02A0104D
:1098600020F03F000132024385F8BC21FF2291FB2A
:10987000F2F2114485F8BD4185F8BB11D2E73F22D1
:1098800093FBF2F2C2EB821443F6C16093FBF0F05B
:109890001B1B811021F03F0101330B4385F8C031C0
:1098A000FF2392FBF3F31A4485F8C10185F8BF2129
:1098B000C3E7D7F8443A9E4242D1522323706370E3
:1098C0006123A37084F8E731D7F8583AC4F8E83137
:1098D0004FF000084FF0FF3341227221E27084F80C
:1098E000E41184F8E51184F8E62184F8EC3184F879
:1098F000ED3184F8EE3184F8EF314FF4F0724146E7
:1099000028464EF0E4FB5523C5F8EC81C5F8F081FC
:10991000C5F8F48184F8FE316FF0550384F8FC81BA
:1099200084F8FD8184F8FF31C7E600BF7816002077
:10993000DEADBEEF4E5706084D570608FF03FB008D
:10994000D7F8403A9E426DD14FF400720021204674
:109950004EF0BDFBEB2305F8043C3B4A582305F8C9
:10996000033C902305F8023C136845F8013C53681A
:10997000C5F80330022200234FF0080CF821E372EF
:10998000227385F809C0A273E37369743F212A73B7
:1099900021764FF0FF31A1763E21D7F8400A21779A
:1099A000D7F8381A84F82C20091A2162D7F8480A07
:1099B000D7F84C1A63760122091AE3766377A37706
:1099C000E37784F82D3084F82E3084F82F306162EC
:1099D00084F8302084F83130802385F83C30292306
:1099E00085F83E30942385F83F300E2385F84030CB
:1099F0000D2385F84130154B85F842C01A68C5F82B
:109A000043205A68C5F847201A89A5F84B20104A08
:109A10009B7A85F84D301368C5F84E305368C5F809
:109A200052300AE7D7F8481AD7F84C3A8E4206D394
:109A30009E4207D2711A204646F07AFE3DE69E42CB
:109A4000FFF4BAAEF11AF6E7F3200608FC20060888
:109A50000821060813460A460146184632F000BEA1
:109A6000024BD3F8800208F021B900BF7027002014
:109A700010B50D4B0D4CD3F8AC3AD4F884021B1A38
:109A8000FA2B06D904201FF07DFF002084F88802FD
:109A900010BD11B1D4F88C320B6012B1D4F89032F1
:109AA00013600120F4E700BF781600207027002023
:109AB00013B50C4C94F8940268B10523D4F89802BD
:109AC000ADF800306A46022301A949F05DFC9DF81B
:109AD000050000F0010084F8940280F0010002B05B
:109AE00010BD00BF7027002038B558B90A4BD3F815
:109AF0009C420A4DFFF7DCFF48B1074B0022C3F838
:109B00009C2208E0054BD3F8AC4A0444F1E7D5F8B1
:109B1000AC3A9C42EED838BD702700207816002061
:109B20000E49D1F8883043F47003C1F888300C4BEB
:109B30001A68002042F001021A6098601A6822F048
:109B4000847222F480321A60064A5A601A6822F43B
:109B500080221A60D860044B8B60704700ED00E0F3
:109B60000038024010300024000000087047002830
:109B7000ACBF00F16040074B4FEA0111ACBF00F5EC
:109B8000614000F00F00C9B2B4BF195480F800134F
:109B9000704700BF14ED00E02DE9F0479846414BB7
:109BA000914603EB800205469468002C78D0283358
:109BB000636004F13E03A36104F59F73E3614FF416
:109BC0008073C4E90433236894F83D00E160A36323
:109BD00006F032FA064694F8440294F83CA0271D99
:109BE00008B146F0E7FF94F8450208B146F0E2FFFD
:109BF000D4F840321BB12C4A116B0B43136318F09D
:109C0000080F2CD00135EDB21EB140F20673F3807F
:109C1000357218F0100F94F846221AD002213046FF
:109C200006F0CCF9D4F8481294F94702FFF79FFFE9
:109C300094F9473294F84722002B07DB02F01F010A
:109C400001228A405B09194941F823203846BDE8C2
:109C5000F08718F0200F14BF12213221DFE719F02E
:109C6000020F0CD06B1CDBB21EB140F20652F28028
:109C7000337294F846220221304606F09FF919F01B
:109C8000010FCFD0504606F0D7F90135EDB218B12B
:109C900040F20663C380057294F846220221BFE7B2
:109CA0002746D3E7088205080038024000E100E0BB
:109CB0000148FEF7E2B900BFB40000200148FEF7FA
:109CC000DCB900BF000300207047704770B5002862
:109CD00028D04C684CB9426815685679AB89022285
:109CE0009BB2B24023EA0203AB818A683AB9436867
:109CF0001D68AB8923F001031B041B0CAB81816041
:109D000044B14468216864798D890223A3402B43C0
:109D10009BB28B8132B143681A6893899BB243F03E
:109D20000103938170BD0B4B30B51A4600241D7999
:109D3000854208D1DD68294203D0142000FB0420AD
:109D400030BD0029F9D00134092C03F11403EED100
:109D50000020F5E74805002038B503681B681C683B
:109D6000254B03F2FC5393ED007A07EE902AB8EEF0
:109D7000477AF8EE677A013987EE270A8DB2DFED70
:109D80001F7A30EE270A4BF049F81D4A2388013824
:109D9000944280B29BB212D002F5806294420ED0FF
:109DA000B4F1804F0BD0A2F58032944207D002F577
:109DB0008062944203D002F58062944202D123F083
:109DC00070039BB20F4A944206D002F5806294421F
:109DD0001CBF23F440739BB22380094BE5629C4275
:109DE000208503D003F580639C4201D100232386A4
:109DF0000123A38238BD00BF000000200AD7233C06
:109E000000000140001000402DE9F0434568A879AA
:109E100010F0040300F002020BD000201746804629
:109E2000042406466B79032B49D8DFE803F0094A7E
:109E300089C990464FF480701F461C460126F1E701
:109E40002D682B8C23F001031B041B0C2B84B5F80D
:109E500020C0B5F804902B8B23F073031B041B0C5C
:109E600043F0600E2CF0020C6E4B4FEA0C4C4FEAA4
:109E70001C4C48EA06069D421FFA89F94CEA060C7A
:109E800003D003F580639D420AD14FF6F3730CEAC9
:109E900003033B4329F4407943EA040C40EA0909EF
:109EA000A5F80490A5F818E06963A5F820C02B8BED
:109EB00023F008031B041B0C43F008032B83BDE8AD
:109EC000F0832D682B8C23F010031B041B0C2B84B8
:109ED0002A8CB5F804E0B5F818C0524B2CF4E64CC7
:109EE00022F020024FEA0C4C12044FEA1C4C120CD8
:109EF00048EA06069D421FFA8EFE4CF4C04C42EA28
:109F0000061203D003F580639D420BD122F080023C
:109F100042EA071222F040022EF4406E42EA041296
:109F20004EEA800EA5F804E0A5F818C0A9632A84BB
:109F30002B8B23F400631B041B0C43F40063BDE76D
:109F40002D682B8C23F480731B041B0C2B842A8C10
:109F5000B5F804E0B5F81CC022F400732CF0730CC3
:109F6000304A4FEA0C4C1B044FEA1C4C1B0C48EACD
:109F7000060695421FFA8EFE4CF0600C43EA06235B
:109F800003D002F5806295420BD123F4006343EACB
:109F9000072323F480632EF4405E43EA04234EEA51
:109FA000001EA5F804E0A5F81CC0E9632B84AB8B68
:109FB00023F008031B041B0C43F00803AB837EE76C
:109FC0002C68238C23F480531B041B0C2384258CC6
:109FD000A288A38B25F400552D0448EA06062D0C13
:109FE00023F4E64345EA06350E4E1B041B0CB4422F
:109FF00092B243F4C04303D006F58066B44203D165
:10A0000022F4804242EA8012A280A3832164258444
:10A01000A38B23F400631B041B0C43F40063A38392
:10A020004DE700BF0000014043685A79032A0FD86A
:10A03000DFE802F00205080B186834307047186832
:10A040003830704718683C307047186840307047A7
:10A050000020704710B543681A685879084B0344CC
:10A06000012093F85840138CA0409BB223EA0003D0
:10A070001384138CA140194389B2118410BD00BF11
:10A0800008820508F0B5EFF31184102383F31288DA
:10A09000C5684668AA68136823F001031360326834
:10A0A0007779104E938936F817609BB223EA06033E
:10A0B00093812A696D681F2A4FF0200385BF203ADB
:10A0C00093409340EB6098BFAB60E3B283F3118899
:10A0D000C3689B6859601A6842F001021A60012344
:10A0E0000374F0BD088205080268137D012B04BFCC
:10A0F0000223137592F82C100CBF4FF40073002349
:10A10000012904BF022182F82C1092F8441008BFE4
:10A1100043F48063012904BF022182F8441092F8BD
:10A120005C1008BF43F4006301290DD1022182F8BD
:10A130005C1043F480534268116800224A628A89A5
:10A1400092B213438B8101E0002BF4D17047034B93
:10A150000348D3F8A012FEF72DBD00BF70270020E2
:10A160000000014010B5064C0648D4F8A012FEF7D6
:10A1700021FDD4F8C0120448BDE81040FEF71ABD16
:10A1800070270020000001400040014010B5064C3F
:10A190000648D4F8A012FEF70DFDD4F8C412044806
:10A1A000BDE81040FEF706BD70270020000001400A
:10A1B0000044014010B5064C0648D4F8A012FEF742
:10A1C000F9FCD4F8C8120448BDE81040FEF7F2BC10
:10A1D000702700200000014000480140034B4FF071
:10A1E0008040D3F8A412FEF7E5BC00BF7027002022
:10A1F000024B0348D3F8A812FEF7DCBC70270020FE
:10A2000000040040024B0348D3F8AC12FEF7D2BC66
:10A210007027002000080040024B0348D3F8B0121A
:10A22000FEF7C8BC70270020000C00400348D0F89F
:10A230000C3613B100F5C0601847704700000020CD
:10A240000348D0F82C3613B100F5C46018477047A6
:10A25000000000200348D0F84C3613B100F5C86068
:10A2600018477047000000200348D0F86C3613B13F
:10A2700000F5CC6018477047000000200348D0F874
:10A280008C3613B100F5D0601847704700000020ED
:10A290000348D0F8AC3613B100F5D46018477047C6
:10A2A000000000200348D0F8CC3613B100F5D86088
:10A2B00018477047000000200348D0F8EC3613B16F
:10A2C00000F5DC6018477047000000200348D0F814
:10A2D0000C3713B100F5E06018477047000000200C
:10A2E0000348D0F82C3713B100F5E46018477047E5
:10A2F000000000200348D0F84C3713B100F5E860A7
:10A3000018477047000000200348D0F86C3713B19D
:10A3100000F5EC6018477047000000200348D0F8B3
:10A320008C3713B100F5F06018477047000000202B
:10A330000348D0F8AC3713B100F5F4601847704704
:10A34000000000200348D0F8CC3713B100F5F860C6
:10A3500018477047000000200348D0F8EC3713B1CD
:10A3600000F5FC601847704700000020036823F0E8
:10A37000010303600023036043608360C3600361E3
:10A38000212343612A4B984203D13D2243F8082CF4
:10A390007047284B984204D14FF4746243F8202C44
:10A3A0007047254B984204D14FF4741243F8382C6F
:10A3B0007047224B984204D14FF0746243F8502CFE
:10A3C00070471F4B984203D11E4A43F8642C7047D4
:10A3D0001D4B984203D11D4A43F87C2C70471C4BFF
:10A3E000984203D11B4A43F8942C70471A4B984269
:10A3F00004D14FF03D5243F8AC2C17E0174B984274
:10A40000C3D0174B9842C7D0164B9842CCD0164BAE
:10A410009842D1D0154B9842D6D0154B9842DAD0FD
:10A42000144B9842DED0144B9842E2D0704700BFE4
:10A4300010600240286002404060024058600240C4
:10A44000706002403D00002088600240400F002004
:10A45000A060024000003D20B8600240106402404D
:10A460002864024040640240586402407064024024
:10A4700088640240A0640240B86402402DE9F041C3
:10A480000022012603250B6806FA02FC3CEA0303BE
:10A4900031D10368540005FA04FE23EA0E03036079
:10A4A0000B79D0F800806FEA0E0703FA04FE013B37
:10A4B0004EEA080E012BC0F800E011D883681F4057
:10A4C00087604B798768A3403B438360436823EAF6
:10A4D0000C0343608B79476893409BB23B434360D6
:10A4E000C36805FA04F723EA0703C360CB79C7689A
:10A4F000A3403B43C3600132102AC4D1BDE8F081C0
:10A50000204A936803F00C03042B10B520D0082BCD
:10A5100020D01D4B1B4C0360A3681C4AC3F30313DC
:10A52000134493F800180368CB404360A168C1F35B
:10A530008221114491F8001823FA01F18160A16889
:10A54000C1F342310A4492F80028D340C36010BDE1
:10A550000F4BDFE75368516813F4800F01F03F01A0
:10A56000536814BF0A4A084AB2FBF1F1054A52681F
:10A57000C2F30142C3F3881301324B435200B3FBD1
:10A58000F2F3C7E7003802400024F4000000002086
:10A5900000127A00F0B5446B8668A38923F4005357
:10A5A0001B041B0CA3818279278A0546BFB21003C6
:10A5B00012F0040F4FEA022100F400506A7927F4E8
:10A5C000405740EA0700208214BF4FF4805C4FF0F0
:10A5D000000C12F0010F0CBF002304239207A28984
:10A5E00022F4B05201F4806122F00C0248BF43F023
:10A5F000080341EA0C0112040B43120C1A43A28116
:10A60000A38A23F440731B041B0C85B0A382684605
:10A61000FFF776FF214B9C4203D003F580639C42F9
:10A620003AD1039BA2891921170401FB03F34FF0D0
:10A6300064014CBF7600B600B3FBF6F3B3FBF1F058
:10A6400001FB10330201A08900044BBFDB001B019A
:10A65000323332334BBFB3FBF1F3B3FBF1F303F00F
:10A66000070303F00F0313439BB223816A6BAB799B
:10A6700013F0080F938A0BBF23F008039BB21B044F
:10A6800043F0080308BF1B0C938293899BB243F4E9
:10A690000053938105B0F0BD029BC3E70010014059
:10A6A0002DE9F8431E46204B9DF820509DF824705C
:10A6B0009842894690462CD13B462A463146002096
:10A6C000FFF76AFA04460020C4E90700C4E909005C
:10A6D000C4E90B986571A660A7712046FFF75AFF81
:10A6E000EA0707D5636B4FF6DF721A80DA6842F02B
:10A6F0002002DA60626BAB0742BFD36843F080038D
:10A70000D36093899BB243F4005393812046BDE804
:10A71000F883064B984204D13B462A463146012035
:10A72000CEE70024F2E700BF0010014000440040E3
:10A7300081602FE741712DE72DE9F043654F07EB6D
:10A74000C00985B005464FEAC00899F8140805F01D
:10A7500073FC064699F8150805F06EFC044699F856
:10A76000160846F027FA6B1CDBB21EB140F60B123E
:10A77000F28033721CB140F60B22E2802372042275
:10A780003A21304605F01AFC204604223A2105F011
:10A7900015FC07EB0803D3F810484F4B9C4263D1DC
:10A7A00003F5F2331A6A42F400121A621A6A22F4AA
:10A7B00000121A62474497F81738022B6ED0032B09
:10A7C0006ED0464E464A012B08BF1646A78827F092
:10A7D0003F0768463F04FFF793FE3F0C029A414B48
:10A7E000B2FBF3F398B20743A780218821F001015F
:10A7F0000904090C21803C498E4253D13B4BB2FBEA
:10A80000F3F2013092B2042A80B238BF04222084CD
:10A81000A28323889BB243F001032380238823F47F
:10A82000816323F002031B041B0C43F48063238029
:10A830004FF480432381238823F080031B041B0CE7
:10A84000238023889BB243F001032380284B03EB32
:10A850004513012283F8D922002283F8D85283F8C5
:10A86000DA2205B0BDE8F083224B9C4209D103F502
:10A87000F0331A6A42F480021A621A6A22F48002E1
:10A8800097E71D4B9C4295D103F5EE331A6A42F4CB
:10A8900000021A621A6A22F400028AE7124E95E751
:10A8A000124E93E706EB4606B2FBF6F291B2C2F304
:10A8B0000B020AB941F0010141F400424FF49671D4
:10A8C0004B434FF47A71B3FBF1F301339BB2238412
:10A8D0009EE700BF0000002000540040801A0600E0
:10A8E00000350C0040420F00A0860100400D03001F
:10A8F0007027002000580040005C00402DE9F04720
:10A90000B74D460105EB401907F012FB99F9D82223
:10A91000B44B8846D10003EBC2020746D2F8104878
:10A9200099F8DA22013A142A00F28380DFE812F063
:10A93000790089009F00B700C200CC00D500EA0072
:10A94000F5000A01150164017D01A3010602170249
:10A95000290232024302670215005F184FF0090A0C
:10A9600097F8140805F068FB044697F8150805F0F9
:10A9700063FBB5F8383301339BB207462046A5F890
:10A98000383305F0EAFA384605F0E7FA1121204697
:10A9900005F0EDFA1121384605F0E9FA4FF06508A7
:10A9A00003E00520002107F0F1FA204605F0CCFA7B
:10A9B00010B9B8F10108F4D1204605F0D3FA00210E
:10A9C000052007F0E3FA204605F0C7FA052000212C
:10A9D00007F0DCFABAF1010AE0D1204605F0C2FA2C
:10A9E0000021052007F0D2FA384605F0BBFA002115
:10A9F000052007F0CBFA204605F0AFFA052000212C
:10AA000007F0C4FA384605F0A8FAAB1993F9D80252
:10AA1000431C01D0FFF790FEAB19002283F8DA2225
:10AA200007E0238813F4007340F02381AA1982F809
:10AA3000DA32AB1993F8DA32002B7FF465AFBDE858
:10AA4000F087238823F400631B041B0C23802388D6
:10AA50009BB243F48063238023889BB243F48073CA
:10AA60002380AB19C3E9B878032283F8DA225E4960
:10AA70002046FDF7AAFBAB19002855D093F8EA222F
:10AA80005AB993F8EB22FF2A04D193F8E8220AB1CD
:10AA90000A22C3E7AB190422C0E70F22BEE7AB19B5
:10AAA00093F8E92202F0FE022282C3E9B878052277
:10AAB00083F8DA224D492046FDF787FB002800F095
:10AAC0007081AB190622A9E7AB1993F8EB22228219
:10AAD000C3E9B878072283F8DA2245492046FDF712
:10AAE00074FB002800F05D81AB19D3F8EC223AB971
:10AAF000228892B242F400722280C3E9B8780EE153
:10AB000008228BE723889BB243F480732380AB1920
:10AB1000C3E9B878092283F8DA2233492046FDF7E1
:10AB200054FBAB190028B3D1D3E9B80142F210723B
:10AB3000381A68EB0101904271F10002FFF479AF1D
:10AB400015226BE7AB1993F8E92242F00102228249
:10AB5000C3E9B8780B2283F8DA2226492046FDF7AC
:10AB600034FB002800F01D81AA19D2F8EC32012B29
:10AB70001AD1238823F480631B041B0C2380EFF37A
:10AB80001181102383F31288238B23889BB243F413
:10AB900000732380CBB283F311880C2382F8DA325E
:10ABA000AB19C3E9B87844E7022B15D123889BB2CF
:10ABB00043F400632380EFF31181102383F31288A1
:10ABC000238B238823F480631B041B0C2380CBB2CC
:10ABD00083F311880D23E1E7238B0E23DEE700BF0B
:10ABE0007027002000000020010003008200070001
:10ABF000840007000200030086492046FDF7F0FAB2
:10AC0000AB19002890D0D3F8F022511CC3F8F012F1
:10AC1000218A1170D3F8EC22013AC3F8EC22012208
:10AC2000C3E9B87883F8F422F8E67B492046FDF7BB
:10AC3000D7FAF0B1EFF31182102383F3128823883F
:10AC40009BB243F400732380AB19D2B2D3F8F01255
:10AC5000481CC3F8F002208A087082F31188D3F8E8
:10AC6000F022511CC3F8F012218A11706FF001021A
:10AC7000D3E7AB1958E768492046FDF7B1FAAB199D
:10AC800000283FF451AFD3F8EC22032A03F53871C2
:10AC900030D1228822F480621204120C2280EFF359
:10ACA0001180102282F31288D3F8F02202F1010CF5
:10ACB000C3F8F0C2B4F810C082F800C0228892B283
:10ACC00042F400722280C2B282F31188D3F8F022DB
:10ACD000501CC3F8F002208A1070D3F8EC22023A1C
:10ACE000C3F8EC220C2283F8DA22C3F8E072C1F830
:10ACF00004809EE6022A14D8228822F4806212047C
:10AD0000120C2280228892B242F400722280228A9F
:10AD1000C3F8E072002283F8F422C1F80480012213
:10AD20007CE6D3F8F022501CC3F8F002208A1070A1
:10AD3000D3F8EC22013AC3F8EC22D6E7238823F4B7
:10AD400080631B041B0C2380AB1993F8E92202F0EB
:10AD5000FE022282C3E9B878102283F8DA222F4952
:10AD60002046FDF732FAE0B1AB1993F8EB22FF2A47
:10AD700004D193F8E8220AB113224FE6AB1911224D
:10AD80004CE6AB1993F8EB222282C3E9B878122281
:10AD900083F8DA2222492046FDF717FA08B1AB19E9
:10ADA000EAE720492046FDF71BFAAB1900283FF4DB
:10ADB000BBAE142232E6AB1903F53870D3F8EC229F
:10ADC00082B1D3F8F012013A11F801CBA4F810C007
:10ADD000C3F8EC22C3F8E072C3F8F012C0F80480A4
:10ADE00012221BE6228892B242F4007222800122D3
:10ADF000C3F8E07283F8F422C0F804800EE62388DA
:10AE00009BB243F4007323804FF6FF33A382AB1948
:10AE100073E600BF4000001004000010820007002D
:10AE2000840007000004001038B5114C04EB4014F6
:10AE300094F8D952D5B1C4F8EC32049BC4F8F0327E
:10AE4000002384F8F4320223490084F8EB2284F8CA
:10AE5000DA3201229DF8143084F8E91284F8EA22EB
:10AE600084F8E832FFF74AFD94F8F452284638BDDA
:10AE70007027002038B5114C04EB401494F8D952D7
:10AE8000CDB1C4F8EC32049BC4F8F032022349007F
:10AE900084F8EB2284F8DA3200229DF8143084F82A
:10AEA000E91284F8EA2284F8F42284F8E832FFF701
:10AEB00025FD94F8F452284638BD00BF70270020C5
:10AEC000F0B587B0002300930193744B1A6842F4E5
:10AED00080321A601A6802F400320192009A01323C
:10AEE0000092019A1AB9009AB2F5A04FF2D11B68EC
:10AEF00013F4003318BF01230193019B012B40F091
:10AF0000B180664B66491A6C42F080521A640A6836
:10AF100042F440420A609A689A609A689A609A6815
:10AF200042F480529A605F4A5A601A6842F0807216
:10AF30001A601A689201FCD55B4A40F202711160F6
:10AF40009A6822F003029A609A6842F002029A60BC
:10AF5000524A936803F00C03082BFAD19368534CC0
:10AF600003F00C03042B7FD0082B7FD0504BC4F888
:10AF7000FC354A4B4F4D9A684F48C2F303122244A6
:10AF8000002692F82818D4F8FC25CA40C4F8FC25FD
:10AF90004A4AEA605A6F4A4AAA605A6B22F0800213
:10AFA0005A635A6F42F080725A67196B454A0A43D6
:10AFB0001A635A6B5A631A6C42F0875242F4F612C3
:10AFC00042F41F6242F00F021A64596C3E4A0A436F
:10AFD0005A6402A948F2FF73CDE902364FF6FF77B3
:10AFE000FFF74CFA00F580600297FFF747FA00F58B
:10AFF00080600297FFF742FA00F58060FFF73EFAA3
:10B0000000F58060FFF73AFA0846FFF779FA029BED
:10B010002E4AB3FBF2F32E4AC2F83C33D5F8FC308B
:10B020002C4A43F08073C5F8FC302B4BC3F8B02F8B
:10B030005E601A6842F001021A60D4F8FC354FF4E1
:10B040007A72B3FBF2F3013BB3F1807F08D24FF089
:10B05000E0225361F02385F82330072396611361C2
:10B0600007B0F0BD00BFFDE71C4B80E75368516897
:10B0700013F4800F01F03F01536814BF174A0C4AC4
:10B08000B2FBF1F1054A5268C2F30142C3F38813DF
:10B0900001324B435200B3FBF2F368E70038024041
:10B0A0000070004008304004003C024000000020D6
:10B0B0000024F40000ED00E0000002400003FA0567
:10B0C000000000081F9067003357070040420F0040
:10B0D0007027002055CEACC5001000E000127A00A9
:10B0E00082B000230193054B0193019B03EB800089
:10B0F0000190019B196002B0704700BF50280040CA
:10B1000082B000230193054B0193019B03EB800068
:10B110000190019B186802B0704700BF50280040A2
:10B1200010B51C2004F088FF1121044604F01FFF15
:10B13000204604F017FFC82006F039FF2046BDE87E
:10B14000104004F00ABF436D064A1A61C278012A12
:10B1500006D100F2CC5058611A684FF080221A6074
:10B16000704700BF1800086038B5044600296FD149
:10B1700090F81131022B2AD1D0F83821D0F82411BF
:10B180008A4232D9C378012B04BFD0F828315B182A
:10B19000A2EB010208BFC0F828314FF48071D0F84B
:10B1A0002831C0F83821002592B2A0F81C11C0F84F
:10B1B0002C31C0F83451C0F8302100F58E7147F0C1
:10B1C00045FB2B462A462946204647F055FC94F875
:10B1D0001631012B07D1244A2369D2F804225A6080
:10B1E000002384F81631002038BDD0F83C31B3FB81
:10B1F000F1F501FB1535A5B9994212D8D0F84021D7
:10B2000093420ED24FF48073C0E94A55C0E94C55C1
:10B21000A0F81C3100F58E7147F018FBC4F84051BE
:10B22000CFE7D4F8E435DB682BB194F81221032A78
:10B2300001D120469847052384F811310023204688
:10B240001A46194647F018FC2046FFF77CFFBEE778
:10B25000D0F8E4355B69002BC5D090F81221032AA1
:10B26000C1D19847BFE700BF7027002070477047E3
:10B27000704710B5114C94F84A33CBB14FF0E0222F
:10B28000D2F8103D23F00603C2F8103DFEF748FC4B
:10B2900094F84A3363B1D4F850339B68DB0707D581
:10B2A000D4F84C24136823F0030161F307031360FF
:10B2B000034B4FF480225A6110BD00BF702700205D
:10B2C000003C01402DE9F04F974CD4F84C335A69BB
:10B2D000D0078DB000F1A5825A699B691340019394
:10B2E00000F09F82C3F307430293019B190311D51A
:10B2F000D4F85033DFF83C929E69DB6904F5507B4B
:10B300001E40360C04F565774FF00008DA46002E33
:10B3100040F01681029B5A070FD5D4F85033834E64
:10B320009F69DB691F40BFB2A6F118054FF0000905
:10B33000A6F55678002F40F04881019B9DF80470D7
:10B34000980741BF784BD3F84C3302225A61019BD6
:10B35000002B1BDA744D95F84A333BB1D5F84C24D9
:10B36000136823F0030161F307031360D5F850233A
:10B370006F48536823F0010353606E4BD3F8503885
:10B380009847D5F84C334FF000425A61019B19059C
:10B39000C3F3072631D5644D00238DF81F3095F88F
:10B3A00052348DF81F30634B05F55070D3F84C388C
:10B3B0009847D5F84C23D5F850334FF400619B687B
:10B3C000516195F84A23C2B1DA0716D595F855347C
:10B3D000012B12D19DF81F30032B0ED1D5F84C3420
:10B3E0001A6842F001021A601A6842F003021A60F9
:10B3F000514A136943F0060313613B070AD54A4DCE
:10B400004C4B05F55070D3F844389847D5F84C3379
:10B4100008225A61FD0615D5434BD3F84C038269C7
:10B4200022F010028261026AC2F34341022902F053
:10B430000F0500F08781062900F0AB81836943F096
:10B4400010038361F00637D5374DD5F85023D5F872
:10B450004C035368002723F001035360394647F03B
:10B460006BFDB84695F841033B4605F55675FF213F
:10B470008342C0F09C81D4F850332D484FF0FF3206
:10B480009A614FF00112DA610B2262F3070762F34F
:10B4900007085F61C3F810801A686FF30A121A6018
:10B4A000FFF751FED4F84C3321484FF480525A61D3
:10B4B000204BD3F848389847B10640F194811A4C94
:10B4C000D4F85033D4F8580399680268C1F34101A5
:10B4D000022906BF032161F30A026FF30A02026028
:10B4E0005A6842F480725A6008A8FFF709F8D4F845
:10B4F0004C13D4F85003CB68099A6FF38D23CB60BB
:10B5000085680E48C5F34105284490F85C0003287F
:10B5100040F05481002284F842234FF40072A4F8D2
:10B520004423092259E100BF70270020C82A0020C7
:10B53000B02A00200000002000ED00E0088205088D
:10B54000F2073BD55FFA88F104EB8103D3F894331B
:10B550009D68D4F850335B691D40EB0720D594F803
:10B5600043033B680125A8429D6007D11869DBF8B9
:10B570007C33C0F312001B1ACBF88C33D9F838385F
:10B580005046984794F84333012B09D1B8F1000F86
:10B5900006D194F85134052B02D15046FFF7D3FD64
:10B5A000A80742BF3B6802259D60290706D5D9F848
:10B5B0004038504698473B6808229A6008F10108D5
:10B5C000760804370BF1280BA1E6FB0777D5D8F8EE
:10B5D00050335FFA89FA1969586B08EB8A0220FA2E
:10B5E0000AFBD2F858234FEACB1B92685FFA8BFB19
:10B5F0004BEA010B0BEA020B1BF0010F1ED05A6B3A
:10B60000A8484FF0010B0BFA09F122EA01025A6334
:10B610003368C3F808B0A44B5146D3F83C38984778
:10B6200098F843335B4509D1B9F1000F06D198F87A
:10B630005134042B02D19B48FFF785FD1BF0080F06
:10B640001EBF33684FF0080BC3F808B01BF0100F93
:10B650001EBF33684FF0100BC3F808B01BF0400F4B
:10B660001EBF33684FF0400BC3F808B01BF0020F49
:10B670001EBF33684FF0020BC3F808B01BF0800FF9
:10B680001DD0D5E94C329B1AD5F82421D6F800E01C
:10B6900098F843B3DEF81800934228BF13460333EB
:10B6A000D8F8502303920AF1320A9B0808EB8A0A61
:10B6B00080B2984203D9D5E94C03984205D809F1E4
:10B6C00001097F080436283534E6C01AD5F824313C
:10B6D000984228BF1846C31C9B08BBF1000F1CD022
:10B6E000D5F82811D5F834210144C5F82811D5F82A
:10B6F000301102448A42DEF81800C5F83421D7D14F
:10B70000039A95F81C11526B4FF0010C0CFA01F1E1
:10B7100022EA010203994A63CAE7D5F82821049274
:10B7200082B2DAF84813033292108C4605925946D9
:10B73000059A8A42D4D0049A52F82120CCF80020ED
:10B740000131F5E747F6F07111423FF477AE282159
:10B7500001FB0531C2F30A12D71CD3F810E4D1F86B
:10B76000C0C6BF1000218F420DD1282101FB053337
:10B77000D3F8C0161144C3F8C016D3F8CC160A4447
:10B78000C3F8CC265AE6DEF800804CF8218001315F
:10B79000E9E7D3F810140F68C3F80C790968C3F807
:10B7A0001019282101FB0533C2F30A12E5E755F809
:10B7B000042B9160AA6B0133916059E6012084F853
:10B7C00042034020A4F84403A0F56400374CA0F5E0
:10B7D00062401044A04227D80E2262F38D23CB6032
:10B7E0004FF400534B61029BDA060BD5304C2E4BC5
:10B7F00004F55070D3F854389847D4F84C334FF4CC
:10B8000080125A61029B9B060BD5294C264B04F5EE
:10B810005070D3F858389847D4F84C334FF400128E
:10B820005A610DB0BDE8F08F224CA2F57400A0F56E
:10B830001050A04201D80D22CFE71F481F4C1044E2
:10B84000A04201D20C22C8E71D4CA2F18C70A0F5D9
:10B850004340A04201D80B22BFE71A481A4C1044BB
:10B86000A04201D20A22B8E71848194C1044A0425D
:10B87000FFF457AE174CA2F1B770A0F55850A04294
:10B8800001D20822A9E71448144C1044A04201D266
:10B890000722A2E712481044124A904234BF0622FF
:10B8A00005229AE7B02A0020000000203F420F0046
:10B8B00070270020DFC810002013FBFE20D61300E5
:10B8C000FF69180000D3CEFE40771B00C05BB3FEBB
:10B8D000C091210040AC2700C01D6AFE40E133004A
:10B8E000803C36FEE09C410070B5124D124BC5F80D
:10B8F000343940F20112002385F87132A0F8442156
:10B90000C0F85C3105F634120D23C0E95422044618
:10B9100085F84019C0F8583100F5A27147F013F8C6
:10B9200005F5147220461F23BDE87040012147F041
:10B93000A3B800BF702700205553425310B5074BE2
:10B9400093F85D12044647F0B5F8002804DA204663
:10B950000121BDE81040C7E710BD00BF70270020DF
:10B96000F8B50B7813F0600506460C4638D0202D4C
:10B9700074D14A78FE2A05D0FF2A1CD046F0E4FE96
:10B9800002252BE04D88A5B9CF88012F11D11A06C9
:10B990000FD5334CD4F87C329B699847C0B284F8F9
:10B9A000440930B13A4604F64411304646F0A0FF4F
:10B9B00014E03046E2E74A88002AFAD1CD88002D0B
:10B9C000F7D11B06F5D4264A012182F8715282F87C
:10B9D00070121F2302F5147247F04EF82846F8BD86
:10B9E0004B780A2B24D00B2B25D0012BF6D194F9C0
:10B9F00004308988C068002B22DA01F07F0147F00B
:10BA00009BFA2179164F304646F0ACFE022321798D
:10BA10004022304646F0CFFE97F87032022B12D10A
:10BA20008121304646F05EFE002387F87032D5E76C
:10BA30000C490122BAE70A4B4A8883F84529CDE729
:10BA400047F064FADDE794F90420002AC6DA012BF6
:10BA5000C4D001213046FFF747FFBFE70025BDE70F
:10BA600070270020B530002008B5084B93F87132DC
:10BA7000022B07D0033B012B02D80021FFF734FF34
:10BA8000002008BDFFF75AFFFAE700BF702700202B
:10BA900070B52F4C94F8716205461EB1012E54D03A
:10BAA000002070BDD4F85432C4F83839D4F8583274
:10BAB000C4F83C39B0F8B4331F2B0DD1D4F8502260
:10BAC000244B9A4208D194F85D12012904D894F8C5
:10BAD0005E32013B0F2B0AD92021052044F072FE73
:10BAE000022384F870322846FDF7C8FBD8E746F0F9
:10BAF000E1FF0028F7DB94F87132013B022BCFD92C
:10BB0000B4F84619E9B1D4F8583284F8406999423A
:10BB100028BF1946D4F83C395B1AC4F83C390423D1
:10BB200084F8713240F20113A5F844310A4BC5E99B
:10BB30005616C5E9543305F5A271284646F003FFB1
:10BB4000AEE72846FFF7D0FEAAE7FFF7F7FEA7E724
:10BB50007027002055534243C86400204A0901233E
:10BB600001F01F0103FA01F150F82230194214BF0D
:10BB70000120002070474A09012301F01F0103FA48
:10BB800001F150F822300B4340F8223070474A0947
:10BB9000012301F01F0103FA01F150F8223023EADA
:10BBA000010340F82230704730B54D09024400EBE4
:10BBB0008504A2424FF0FF3323D901F01F018B40CF
:10BBC00050F825100B4093FAA3F3B3FA83F3DBB2DA
:10BBD000202B02D003EB451030BD211D91420C46B5
:10BBE00002D34FF0FF30F7E72368043193FAA3F351
:10BBF000B3FA83F3DBB2202BF0D0201A03EBC000A2
:10BC0000EAE71846E8E780EA0120082341F221022A
:10BC100010F4004F4FEA400018BF5040013B80B283
:10BC2000F6D1704738B50C468D18AC4200D138BDFE
:10BC300014F8011BFFF7E7FFF7E74840082310F06F
:10BC4000800F4FEA400018BF80F0D500013BC0B222
:10BC5000F5D1704710B50A440C46944200D110BD8E
:10BC600014F8011BFFF7E9FFF7E738B50A46056846
:10BC700004460020AA4203D36B1C2360287038BD01
:10BC800012F8011BFFF7D9FFF4E7DFED0A7AC0EDE8
:10BC9000020A20EE270AB7EE007AC7EE007A0023E8
:10BCA0000360C0ED017A70EEA77A80EEA77A80ED8E
:10BCB000037A7047DB0FC94090ED017AD0ED007A2E
:10BCC000C0ED020A30EE877AC0EE876A30EE677AFE
:10BCD000E6EE877AB0EE670AC0ED007A704701237E
:10BCE00003700023C3648364036503644364436592
:10BCF000836283657047DFED157A80ED010AF4EE0B
:10BD0000E70AF1EE10FAC0ED020A80ED031AC0ED69
:10BD1000051A18DDB4EEE70AF1EE10FA10DD81EE37
:10BD2000007AC0EE207AF0EE006A77EE877A86EE2F
:10BD3000A77A80ED047A80ED0F2AC0ED0E2ACEE7B7
:10BD400000230361F7E700238360FAE7BD378635F8
:10BD5000FDEEC07A17EE903A2033402B43D8DFED4A
:10BD6000237A9FED237AB4EEE70AF1EE10FA28DC8D
:10BD7000DFED207A9FED1E7AB4EEE70AF1EE10FABD
:10BD800022D4DFED1D7AB4EEE70AF1EE10FA1EDDE3
:10BD900030EE670A37EEC00A60EE007ADFED176A10
:10BDA0009FED177AA7EEA67ADFED166AE7EE876AAF
:10BDB0009FED157AA7EEA67A20EE276AA6EE070A6F
:10BDC000704730EE470ACEE730EE070AD4E79FED22
:10BDD0000F7AB4EEC70AF1EE10FA44BF30EE270A2C
:10BDE00037EE400AD8E79FED0A0A7047DB0F49405B
:10BDF000DB0FC940DB0F49C0DB0FC93F9A7C2E36F1
:10BE0000FAAF4FB93587083CA4AA2ABEDB0FC9BFD9
:10BE100000000000DFED027A30EE270A98E700BF4D
:10BE2000DB0FC93F38B51D46304BB3FBF2F39942E7
:10BE3000B0EE405AF7EE005A4FF000044FD207EE32
:10BE4000901A9FED2B7ADFED2B6AF8EE677A67EE9A
:10BE5000877A07EE102AB8EE477A27EE267AC5EEE3
:10BE6000876A87EEA64AB0EE440AFFF771FFF0EE4C
:10BE7000404AB0EE440AFFF7CDFF35EE055A012DDA
:10BE800084EE854AF0EE407A1CBF35EEE76AF6EEA6
:10BE9000006AB8EE000A34EE257A12BF66EE266A12
:10BEA00027EE806AF0EE656A86EE875AC6EE076A6C
:10BEB00067EE807A75EEC45AC0ED016AC7EE876AF4
:10BEC000C5EE877A80ED005A80ED025AC0ED036A14
:10BED000C0ED047A846144610462C46138BDC0ED80
:10BEE000005A44608460C4600461F3E720A1070045
:10BEF000DB0FC940BD3786359FED010A002391E76E
:10BF0000F304353FB5EE400AF1EE10FA10B5F0EE4D
:10BF1000406A04464FF00003084627D007EE902AF7
:10BF2000F8EE670ADFED1A7A60EEA70A4CB9FFF760
:10BF3000ACFEFCEEE66ABDE8104016EE903A99B20F
:10BF4000DAE7022C13D0032CF3D19FED120A0B6019
:10BF500066EE806AB7EE007AC7EE267A4B608B6099
:10BF600077EEA07A80EEA77A81ED037A10BD9FED7F
:10BF70000A7A0B6020EE077AB7EE006AC6EE077AFF
:10BF80004B6077EEA07A80EEA77A81ED027AD0E757
:10BF9000BD378635F82F4541D2331C412DE9F0419C
:10BFA000FCEEC07A13460A4617EE901AD0F81480B9
:10BFB0008769C669056AB0EE600A89B2FFF732FF89
:10BFC000C0F814808761C6610562BDE8F081F0EEBB
:10BFD000E06AB0EEC07AF4EEC76AF1EE10FAD4BFB0
:10BFE000B0EE476AB0EE666AB5EE406AF1EE10FA5E
:10BFF000F0EE405A46D0F4EEC76AF1EE10FA54BFA4
:10C00000B0EE475AB0EE665AC5EE067A9FED1F6A4B
:10C010009FED1F5ADFED1F4AA7EE865A9FED1E6A5D
:10C02000A5EE276A9FED1D5AA6EE275A9FED1C6AC2
:10C03000A5EE276A9FED1B5AE7EE854AB7EE005A38
:10C04000A4EEA75AF1EE467A87EE850AF4EEC76AA7
:10C05000F1EE10FA48BFDFED147AF5EEC00A48BFE2
:10C0600037EEC00AF1EE10FA48BFDFED107AF5EEB8
:10C07000C05A48BF37EEC00AF1EE10FA48BFB1EE21
:10C08000400A7047DFED0A7AC0E700BF39094E3D2C
:10C09000E3B59EBE69A2163E88FA16BE45FE7FBF76
:10C0A000A7DFA8B499FB243FDB0FC93FDB0F494052
:10C0B0000000000044F25063984203DDA0F50C40FC
:10C0C000A0387047034B9842BCBF00F50C40A0302D
:10C0D000704700BFB0B9FFFF48F69F43984203DDA9
:10C0E000A0F50C40A03870470028BCBF00F50C40FC
:10C0F000A030704791ED005A08B5B0EE450AFFF741
:10C1000089FEF0EE405AB0EE450AFFF721FE91EDB0
:10C11000015AF0EE404AB0EE450AFFF77BFEF0EE22
:10C12000403AB0EE450AFFF713FE91ED023AB0EE49
:10C13000405AB0EE430AFFF76DFEB0EE404AB0EE53
:10C14000430AFFF705FE25EE806A63EEC07A24EE0F
:10C15000847AC0ED017AF0EE467AE5EE077A25EEB4
:10C16000843A64EE806AC0ED037AF0EE437AE5EE3D
:10C17000667AA5EE067AE5EE436A23EE844A64EE1B
:10C18000E34A65EEA35A80ED004A80ED025AC0ED05
:10C19000047AC0ED054AC0ED066A80ED077AC0ED6D
:10C1A000085A08BD034600F1400100221A615A6195
:10C1B0009A61DA6110339942F8D1102200214BF0D4
:10C1C00086BFD1ED007A90ED066AD0ED095AB8EE3F
:10C1D000E77AD0ED047AE7EE077AB7EE005AC0EDC1
:10C1E000047AD1ED017AF8EEE76AD0ED057AE7EE50
:10C1F000267AC0ED057AD1ED027AF8EEE77AA7EE5D
:10C20000276A80ED066A90ED076A36EE076A80EDD0
:10C21000076A90ED086AA7EE266A80ED086A26EEA6
:10C22000A66A75EE865AA7EE076AC0ED095AD0EDE8
:10C230000A5AE6EEA75AA7EEA76AC0ED0A5AD0ED51
:10C240000B5A75EEA65AC0ED0B5AD0ED0C5AE7EE1C
:10C25000275AC0ED0C5AD0ED0D5AE6EEA75AC0EDA4
:10C260000D5AD0ED0E5AE7EEA75AC0ED0E5AD0ED9A
:10C270000F5A75EEA75AC0ED0F5AD0ED105A75EE51
:10C28000875AC0ED105AD0ED115A75EEA65AC0ED7E
:10C29000115AD0ED125A75EEA75AC0ED125AD0EDD0
:10C2A000135A75EE855AC0ED135AD0ED005AE7EED9
:10C2B000065A90ED017AC0ED005AA6EE867A80ED1E
:10C2C000017A90ED027AA7EE867AD0ED037A80EDBE
:10C2D000027A37EE866A80ED036A70472DE9F043F3
:10C2E000034685B000F11007054600261C46AC4603
:10C2F00012E0F8EC016A1EED047AD4ED007AE6EE65
:10C30000C77AC4ED007A98450EF1100EF1D10434CD
:10C31000BC420CF1040C03D0A7F11008E646F2E78A
:10C3200001361C46B646BEF1040F1FD000EB0E1CB2
:10C33000A84604F1100909E0FCEC016A18ED047A42
:10C34000D4ED047AE6EEC77AC4ED047ACC4508F160
:10C350001008F1D1D4ED046A93ED007AC6EE877A25
:10C360000EF1010EC4ED047A6446DCE7042E03F1FD
:10C37000140305F1040507F11007B7D1002300935A
:10C380000193029303936C460023142752F8045B35
:10C3900044F8045B07FB030C00EB03156E46654590
:10C3A0001FD10133042BF1D104AD103100F1400253
:10C3B00055F8044D0E4600EB031741F8044D1446A2
:10C3C000A742D1ED007A17D152ED016A87EEA67A25
:10C3D000013BA2F1140281ED007AE9D105B0BDE87C
:10C3E000F083B6EC017A54ED017AF5EC016AE6EEE1
:10C3F000C77A44ED017AD2E7F4EC016AB6EC017A2F
:10C40000E6EEC77AC1ED007ADAE79FED0C7A00F12B
:10C410000C03F0EC017AF4EE677AF1EE10FA06D72D
:10C42000F0EEE77AF4EE477AF1EE10FA03DC984288
:10C43000EFD1012070470020704700BFFFFF7F7FD2
:10C440001FB50C46024669461030FFF747FFDDED89
:10C45000007AB6EE007A67EE877A2046C4ED007A5D
:10C46000DDED017A67EE877AC4ED017ADDED027ABF
:10C4700067EE877AC4ED027AFFF7C7FF04B010BDFC
:10C4800008B547F01BFE00EE100AB5EEC00AF1EE4B
:10C4900010FA06DB48F0E4FEB4EE400AF1EE10FAC2
:10C4A00001D79FED010A08BD0000000008B5F7EEB6
:10C4B000007A2DED028BF0EEC08A77EEE87AB0EECE
:10C4C000408A17EE900A47F0D1FAFFF7D9FF9FEDA7
:10C4D0000E7ADFED0E7AE8EE877A9FED0D7AA7EE01
:10C4E000A87ADFED0C7AE7EE287AB5EEC08ABDECCB
:10C4F000028BF1EE10FA20EE270A44BFDFED067A38
:10C5000037EEC00A08BD00BF306E99BC2716983DB3
:10C51000843459BEA40DC93FDB0F494008B50369F7
:10C52000012BC3BF03F1FF3307EE903AD0ED036A4E
:10C530009FED067AC4BFF8EEE77A86EEA77A17EE8B
:10C54000100A47F093FABDE8084099E700000000A0
:10C5500038B50378012B04462CD103691D4D23B94E
:10C56000426812B9D5F8AC2A4260D4ED067A77EE6B
:10C57000807A01332361C4ED067A04F11C00FCF7D4
:10C58000F7F86268D5F8AC3A9B1AA268934211D9C1
:10C59000FFF7C4FFD4ED057AB4EEE70AF1EE10FA26
:10C5A0000CDD237B3BB9D5F8AC2A62600022236105
:10C5B000A261E36238BD03232370FBE7D4ED047A64
:10C5C000D4ED066AF8EE677A022386EEA77A84ED48
:10C5D000067AF1E77816002038B500F11C0204460F
:10C5E00004F16405104650ED017AB1EC010A77EED2
:10C5F000807A40ED017AFCF7BBF81830A842F2D1FE
:10C600002369294D616801332361D5F8AC3A5B1A7F
:10C61000A1688B422CD91046FFF780FFD4ED057A34
:10C62000B4EEE70AF1EE10FA15DC04F13400FFF77E
:10C6300075FFD4ED057AB4EEE70AF1EE10FA0ADCE4
:10C6400004F14C00FFF76AFFD4ED057AB4EEE70A77
:10C65000F1EE10FA10DD237B5BB9D5F8AC2A6260ED
:10C6600000222361A261E36222636364A264E36542
:10C6700038BD03232370FBE7D4ED047AD4ED066ABA
:10C68000F8EE677A022386EEA77AD4ED0C6A84ED81
:10C69000067A86EEA77AD4ED126A84ED0C7A86EEDD
:10C6A000A77A84ED127AE5E77816002060EEA00AFA
:10C6B00008B5E0EE000A10EE900A47F0D7F9BDE8A1
:10C6C0000840DDE660EEA00A08B5E0EE000AE1EE03
:10C6D000010A10EE900A47F0C9F9BDE80840CFE61C
:10C6E0002DE9F74F90469DF83020002A14BF4FF0F7
:10C6F00030094FF020090D9A1C1E05460F46BABF9F
:10C7000064420123002312F8011B01B12CB9A24697
:10C7100063B100240D9EA41B12E0013CF3E7BD426F
:10C7200004D2494628460193C047019BBAF1010A49
:10C73000F5D2EFE7BD4203D228460193C047019BE3
:10C7400006EB040B16F8011B0029F3D133B1544654
:10C75000002C07DCBAF1000FA8BFD344584603B041
:10C76000BDE8F08FBD4202D249462846C047013C91
:10C77000EEE70FB437B50C4D06ABD5F8D81A53F821
:10C78000042BD5F8D40A019346F03DFE0446D5F8B3
:10C79000800205F0F0FA0028F9D0204603B0BDE889
:10C7A000304004B0704700BF702700200EB403B5BE
:10C7B00003AB084953F8042BCDE9003001A846F03B
:10C7C00022FE019B00221A7002B05DF804EB03B058
:10C7D000704700BFBF8700080CB430B52C4CD4F8AC
:10C7E000DC3AA5B01BB9D4F8E03A002B3AD094F863
:10C7F000E43A994206D9012303FA00F0D4F8E83A62
:10C8000018422FD0234BD3F8AC1A4FF47A7304A8F4
:10C81000B1FBF3F203FB12131F49FFF7C7FF04AB91
:10C820000344289A1D490393054629AB03A80293A4
:10C8300046F0E9FD039B591C03910A211970039BE3
:10C840000246591CD4F8DC0A03910021197090B1FA
:10C8500003681B6A03B19847D4F8DC5A04AC14F897
:10C86000011B21B925B0BDE8304002B07047284611
:10C8700005F01CFAF3E7D4F8E03A002BF2D00221DD
:10C880002A4400910A44FD2004A926F071F9E9E741
:10C8900070270020781600201121060867870008FD
:10C8A00010B54FF4004086B023F0B8F9044690B3B9
:10C8B0004FF4004123F014FB02281AD1226848F2F9
:10C8C00001039A4227D14FF4004043F07FFB10B39D
:10C8D0001F4BD3F8EC2A82421FD0D3F8C82B9042CA
:10C8E00030D0D3F8A42C90422FD00022C3F8E02AF5
:10C8F00011E00023022294F90400CDE901234FF452
:10C90000612200924FF400411A4625F00BF8104BBB
:10C91000C3F8DC0A28B906B010BD03F6EC22C3F850
:10C92000E02A0C4B04930C4B03930C4B02930C4BDF
:10C9300001930C4B00930C4A0C4B02210020FFF793
:10C940004BFFE8E703F6C832E9E703F6A442E6E75F
:10C95000702700201D210608262106082F21060821
:10C960003B21060864200608642F06086F2006088D
:10C97000184A38B5D2F8804D033004EB9003B3F574
:10C98000007F19D802F68455C2F8803D124A02EBA6
:10C99000810120F00300D1F88C24C3F5007310440A
:10C9A000C1F88C040D4A9B000421002005EB84048F
:10C9B000FFF712FF204638BD0021094A0846FFF75D
:10C9C0000BFF084AD2F8983043F00073C2F8983051
:10C9D0000024EFE770270020683800204121060876
:10C9E00064210608B03301202DE9F84F0268DFF812
:10C9F000A4800646002358F833108A420BD1DDB2DA
:10CA00000D2D0CD9204A00210520FFF7E5FE00245A
:10CA10002046BDE8F88F01330E2BECD1F2E71B4F17
:10CA200007EB850A4FEA8509DAF8A0B2BBF1000FDF
:10CA30001AD107216420FFF79BFF0446CAF8A00221
:10CA400028B90146124A0520FFF7C6FEE0E7642236
:10CA500059464BF03CFBDAF8A03208EBC505C3E9B8
:10CA60000053DB615B63DB644F447179D7F8A0420C
:10CA7000182000FB014300221C46C3E903229E60EC
:10CA80001A750434C4E700BF72210608702700201D
:10CA900097210608788205082DE9F043062592F9CA
:10CAA000007087B06B43144612F80580A0EB080EA7
:10CAB000A0EB070CBEF1000FB8BFCEF1000EBCF129
:10CAC000000FB8BFCCF1000CE64502EB050905F1FB
:10CAD0000605BCBF4FFA88F74C46AB421646E3D179
:10CAE0001A443378BB420CD1658873884D1BCB1A2E
:10CAF000002DB8BF6D42002BB8BF5B429D42C8BF3E
:10CB000034460636B242ECD1637904932379039319
:10CB1000638802932378064ACDE900130346032174
:10CB20000120FFF759FE204607B0BDE8F08300BFA3
:10CB3000B121060803685A1C026019700368090ACB
:10CB40005A1C02601970704703685A1C0260197001
:10CB500003685A1C02600A0A1A7003685A1C0260B1
:10CB60000A0C1A700368090E5A1C0260197070478B
:10CB700003685A1C02600A0A1A7003685A1C026091
:10CB80001970704738B50446006815464BF066F8D2
:10CB900023682B44236038BD03685A1C0260187850
:10CBA000704703685A1C02601A4612F8021B0260A2
:10CBB000587841EA0020704710B502681146531CAE
:10CBC000036011F8024B0160D31C51780360937825
:10CBD0001B0443EA0123111D0160D078234343EA7B
:10CBE000006010BDD1E900329A4206D05A1C0A609A
:10CBF00008B11B7803700120704700207047D1E90D
:10CC000000239B1A012B10B50446084604DDFFF7EC
:10CC1000C8FF2080012010BD0020FCE730B50A4489
:10CC20000446914201D1002011E014F8013BA3F128
:10CC30004100192811F8010BA0F1410598BF2033DC
:10CC4000192D98BF20301B1A02D10028E9D130BD20
:10CC50001846FCE76FF00042E0E710B50288C378A1
:10CC6000A2F5FA62910840F2B554013B04FB01338E
:10CC700081780C24013902F0030204FB02120D49F1
:10CC8000847901EB42021821B2F8E02013440279C2
:10CC900001FB0322437900893C2101FB0233064A50
:10CCA000224401FB03224FF47A730021C2FB0301EB
:10CCB00010BD00BF0882050880436D382DE9F041A2
:10CCC00090461F4605464FF47A7200234046394687
:10CCD00047F052FB284B3C21034493FBF1F201FB4C
:10CCE0001233AB7192FBF1F301FB13226A7140F234
:10CCF000B551182293FBF2F402FB143394FBF1F2CA
:10CD000001FB1244B4F5896F2B714FEA82032EDACE
:10CD100040F2DA2294422CDCB4F5B77FB4BF002194
:10CD20000121164A182000FB01220B2632F81600BA
:10CD3000A04201DD013EF9D103F5FA630B442B80DB
:10CD4000731CAB700C2303FB01660D4B03EB460613
:10CD50000134B6F8E030E41AEC704FF47A72002334
:10CD60004046394647F008FB2A81BDE8F08103219F
:10CD7000D7E70221D5E700BF80BC92C7E88205084B
:10CD800008820508F0B5274D06460F460FCD8DB039
:10CD90006C460FC40FCD0FC495E80F0084E80F0058
:10CDA00016F003033AD1642196FBF1F201FB126203
:10CDB00042B94FF4C87296FBF2F302FB1363003BD7
:10CDC00018BF0123721EC3F11D03002A019340F214
:10CDD0006D13104606FB03F3B8BFB01C03EBA000B5
:10CDE0006FF0630392FBF3F318444FF4C87392FBA4
:10CDF000F3F210440630694600240725013F51F83C
:10CE0000042BA74202EB000393FBF5F0C0EBC0003C
:10CE1000A3EB000004D1101A0DB0F0BD0123D1E73F
:10CE20000134ECE748830508094BD3F81015D3F813
:10CE3000142551EA020309D0064BD3F8AC3A5B182B
:10CE400042F10002C0E90032012070470020704723
:10CE5000683800207816002037B505466846FFF789
:10CE6000E3FF044638B1DDE900232846FFF726FF3B
:10CE7000204603B030BD40F2011328806B80A880AB
:10CE8000A8712881F4E7F0B50124B0FBF4F58D42D8
:10CE900003D200261CB91C70F0BD4C43F5E7B0FB73
:10CEA000F4F5B4FBF1F704FB15002EB9002D03DCFB
:10CEB0008C420CD33C46EDE7092D08DD002A14BF57
:10CEC000372457242C4403F8014B0136F2E7302471
:10CED000F8E7A0F13003DAB2092A01D81846704702
:10CEE000A0F16103052B01D857387047A0F1410329
:10CEF000052B94BF37384FF0FF30704770B50446AC
:10CF0000944208461546B4FBF2F602D33046FFF7CA
:10CF1000F5FF05FB1644024B1B5D00F8013B70BD9D
:10CF2000EA210608B5EEC00ADFED2D7AF1EE10FA1F
:10CF3000CCBF30EE270A30EE670ADFED2A7A20EE0A
:10CF4000270A30B5FDEEC07A87B017EE904A054645
:10CF500084EAE470002303A9A0EBE470CDE9003378
:10CF6000029343F049FE002CACBF20232D2303A8DD
:10CF70008DF8003046F00EFC012822D130238DF8C8
:10CF800001308DF802308DF8033003A968464BF06C
:10CF9000A6F8684646F0FEFB0338C4B2224669464E
:10CFA00028464AF05BFE00232B550F4928464BF0DC
:10CFB00096F80DEB040128464BF091F8284607B08F
:10CFC00030BD022805D130238DF801308DF80230B4
:10CFD000DBE7032804BF30238DF80130D5E700BF1D
:10CFE0006F12033A00007A444E57060830B50278B3
:10CFF000202A034600F10100F9D0092AF7D02D2A92
:10D000004BD10346BFEE000A9FED3C7A1A46F2EE82
:10D01000046A134612F8010BA0F13001CCB2092CBE
:10D0200041D92E280BD1F2EE046A1146B0EE666AA1
:10D030000B4611F8012B303AD0B209283CD91A78A6
:10D0400002F0DF02452A53D15A782D2A3FD102330C
:10D050000120013B00220A2513F8011F3039CCB210
:10D06000092C3AD9B2F59A7F1346DFED256A28BF1D
:10D070004FF49A731A46F7EE007A072A30D8DA0886
:10D080006FF0070101FB0233F2EE046A63BB88B361
:10D09000C7EE276A20EE260A30BD2B2A08BF0346BA
:10D0A000B7EE000AB0E707EE901AF8EEE77AE7EE7F
:10D0B000267AB0EE677AACE707EE902AF8EEE77AC8
:10D0C000C7EEA65A66EE866A37EE257AB0E72B2AB7
:10D0D00014BF013302330020BBE705FB0212BBE79C
:10D0E00067EEA67A083AC8E767EEA67A013BCDE775
:10D0F000F7EE007A67EE276ACCE700BF0000000079
:10D1000020BCBE4C70B5034610F8012B202AFAD083
:10D11000092AF8D02D2A0ABF034601254FF0FF3512
:10D12000591E00240A2611F8010FFFF7D2FE092824
:10D1300002D905FB04F070BD06FB0404F3E72DE9FA
:10D14000F04F2DED028B8FB02FF0CAFA2FF0A2FA1C
:10D150004FF00008DFF838930646444647464546F8
:10D16000BE4200F3AB80642C40F053816825DFF8A9
:10D17000F482B94BD8F84C71C3F8B87F4C225543B0
:10D1800008EB0503002118464AF0A1FF4C220021BC
:10D190004AF09DFFB14A48F805200122C0E9046623
:10D1A000C0E907778260AE4A826247620534AA4BC3
:10D1B000AC4DD3F8B87F7300B3F1805F18DA4C221E
:10D1C00054432B19002118464AF081FF4C220021BC
:10D1D0004AF07DFFA44A2A5102224271C6F100663C
:10D1E00001229640C0E90466C0E907778260476281
:10D1F0009E499C484FF498724AF030FD994A0421A8
:10D2000013460139C3E907775F6203F14C03F8D194
:10D21000AC68002C4DD12B79002B4AD02B68002B09
:10D2200047D0C5E911118F482964E9630F468C4640
:10D23000C66C00F14C03002E40F02C8102231068D4
:10D24000002840F057818A4E981E8A4BC6F83C3A17
:10D250003E23C6F8403A3F23C6F8443A4023C6F876
:10D26000483AC6F8581AC6F8644AC6F8540A830FF2
:10D270008100002800F06B8140F2FF128A1843F110
:10D280000003520A42EAC35202F14003C6F84C3A84
:10D290001344C6F8503A03EBC003DA0DC6F8383A27
:10D2A0005B02C6F8303A744BC6F85C5AC6F8605A4E
:10D2B0005A600FB0BDEC028BBDE8F08F202206A9AA
:10D2C00038462FF0CDF96D49122206A84AF04EFFDC
:10D2D0000090002840F08B80AF421DD068490C20A0
:10D2E000621C00FB0414CA46664901922046FFF7FF
:10D2F0005DFA01214AF84C4BC9E902155849C9F8B1
:10D300002810019AD9F81C10A7EB050BC9E904BB3A
:10D31000C9E908111446D1464F4BD3F8B82FC9F8C4
:10D320001C203D4612220EAB501C1A44564B12F8DC
:10D33000201C18F8032091425CD108F10108B8F1D3
:10D34000150F59D1202206A928442FF089F900256C
:10D3500005AA4E4906A84AF060FE05AACDE9025585
:10D3600008EE102A0195AA46AB4638B30BF1FF32FE
:10D37000042A04D8DFE802F00F13171B1F00FFF781
:10D38000C1FE824618EE102A404900200BF1010B25
:10D390004AF043FEE9E7FFF7B5FE0190F2E7FFF739
:10D3A000B1FE0290EEE7FFF7ADFE0390EAE7FFF76C
:10D3B000A9FE0546E6E7FFF7A5FE0090BAF1000FCB
:10D3C00012D0DDE90123AAF2BC7A43EA4210039BA2
:10D3D00040EA4A2A680140EAC320009B40EA630011
:10D3E00040EA0A40C9F81C00642C2ED03D4607F5DF
:10D3F0000067B5E64FF00008202808D12035AE427E
:10D40000F2DB024606A928462FF02AF90020024640
:10D4100089E7AF4219D01A4A1A49A7EB05080C2729
:10D4200007FB0427013422463846FFF7BFF90122E3
:10D43000C9E902250A4AC9F82820D9F81C20C9F8E8
:10D440000070C9E90488C9E90822251D002C7FF471
:10D450008EAE0424ABE600BF000000204B2206087D
:10D46000559A000850450020582206087883050880
:10D470007816002065220608A82000200F22060842
:10D48000803D002022220608302206084622060897
:10D49000804600209E68C3F840C007F1FF3E7645F5
:10D4A000C3E911CCC3F83CC005D1002F3FF401AF54
:10D4B00053F80C0C374607F1010E764508D1067972
:10D4C000002E3FF4F6AE4364186477461846AFE684
:10D4D000BE427FF4EEAE002E3FF4EBAED0F840E05B
:10D4E000DEF83C700137CEF83C70C3F840E083644E
:10D4F000B646EAE7107903F1FF3CA0B11363D36BA2
:10D500005B011ABF03F6FF731B0B01236344C2E9DF
:10D510000466C2E90D33D2E90D03181A0144013340
:10D5200001344C328BE61769136367B107F6FF7756
:10D530003F0B50696744576338B100F6FF70000B2A
:10D5400060449063E7E70127F3E70120F8E7012251
:10D550009AE610B50023802804D893420AD2C85412
:10D56000581C10BD934205D060F07F04CC54C00914
:10D570000133F0E74FF0FF30F3E770B51249134C79
:10D58000134E01220020FEF74DFB228862B1A31D3D
:10D59000B34217D2A518B54214D2052A12D9214692
:10D5A000FEF740FB2C46F0E721460222FEF73AFB4D
:10D5B00063880849084AC31A641A5842A2F8C8493D
:10D5C000584170BD0020FCE7004000080140000801
:10D5D00000800008FC3F0008683800202DE9F04F6B
:10D5E000794BDFF8F4818FB0A3EB0802CDE901237A
:10D5F0004FF00309102200210AA84AF068FD019BA0
:10D600000993029B0893714BCDF81C801A69002A7C
:10D61000BFBF6F4A5A6002F188325A600124F32278
:10D62000DA604FF0000A7E23224604A907A88DF88D
:10D630003440CDF830A08DF81030FBF795FA504506
:10D6400013DA0023B9F1010900F0B780002BD1D023
:10D6500098F800307E2B40F0B380FFF78EFF002853
:10D6600000F0AE800FB0BDE8F08F224604A950460E
:10D67000FEF7D8FA574CDFF864B1ADF812005C45FC
:10D680003CD30024022205A907A8ADF81440FBF7FB
:10D690006BFAA042D5DBBDF81200022205A9FEF705
:10D6A000C1FA0222ADF812000DF1120107A8FBF732
:10D6B0005BFAA042C5DB0B9888B1079B089A03442C
:10D6C0009342BED80AABC0F10402214618444AF086
:10D6D000FEFC0AA907A8FBF7A3F9CDE90B400C9BB8
:10D6E000002BAEDB9DF8342022B138490A6942F0A4
:10D6F00000420A61B3FA83F35B09A3E762888DF8FD
:10D7000019A0C2F30B06B31DADF814302388C3F380
:10D710000B011B0B8DF818301304ADF8161020D434
:10D72000062205A907A8FBF71FFA002889DBBDF828
:10D730001200062205A9FEF775FA6168ADF812001D
:10D74000324607A8FBF710FA0028FFF67AAFBDF8BB
:10D75000120061683246FEF765FAADF81200143423
:10D760008DE700273D460135EDB2062205A907A841
:10D770008DF81950FBF7F8F90028FFF662AFBDF8F5
:10D780001200062205A9FEF74DFA6168ADF81200F5
:10D790003944324607A80391FBF7E6F90028FFF663
:10D7A00050AFBDF8120003993246FEF73BFA032D45
:10D7B000ADF812003744D6D1D1E7002B7FF448AF43
:10D7C000052004F03DFC00BF00800008003C024042
:10D7D00023016745047E060800400008C882060849
:10D7E000034AD2F8CC391843C2F8CC09704700BFBD
:10D7F00068380020034AD2F8CC3923EA0000C2F886
:10D80000CC0970476838002003460649064888421C
:10D8100001D3002070470288C2F30B029342F9D073
:10D820001430F4E7C8820608047E060813B542885F
:10D830000B460446C2F30B020021184601924AF03F
:10D8400046FC216903460A48814209D30948019AE6
:10D85000814205D2184602B0BDE810404AF0FEB938
:10D8600021B1184602B0BDE81040084702B010BD13
:10D87000C88206086587060810B4B0F902404288DD
:10D88000002C0B4641685DF8044BBEBFC2F30B028F
:10D89000DBB203FB0211C9E730B5094B094CA342C7
:10D8A00000D330BDB3F902205988002A06DA5A683D
